{
  "contractName": "FarmerRole",
  "abi": [
    {
      "inputs": [],
      "stateMutability": "nonpayable",
      "type": "constructor"
    },
    {
      "anonymous": false,
      "inputs": [
        {
          "indexed": true,
          "internalType": "address",
          "name": "account",
          "type": "address"
        }
      ],
      "name": "FarmerAdded",
      "type": "event"
    },
    {
      "anonymous": false,
      "inputs": [
        {
          "indexed": true,
          "internalType": "address",
          "name": "account",
          "type": "address"
        }
      ],
      "name": "FarmerRemoved",
      "type": "event"
    },
    {
      "inputs": [
        {
          "internalType": "address",
          "name": "account",
          "type": "address"
        }
      ],
      "name": "isFarmer",
      "outputs": [
        {
          "internalType": "bool",
          "name": "",
          "type": "bool"
        }
      ],
      "stateMutability": "view",
      "type": "function"
    },
    {
      "inputs": [
        {
          "internalType": "address",
          "name": "account",
          "type": "address"
        }
      ],
      "name": "addFarmer",
      "outputs": [],
      "stateMutability": "nonpayable",
      "type": "function"
    },
    {
      "inputs": [],
      "name": "renounceFarmer",
      "outputs": [],
      "stateMutability": "nonpayable",
      "type": "function"
    }
  ],
  "bytecode": "0x608060405234801561001057600080fd5b5061002d61002261003260201b60201c565b61003a60201b60201c565b6101da565b600033905090565b61005281600061009860201b6100f01790919060201c565b8073ffffffffffffffffffffffffffffffffffffffff167f2e0ded4123377a3c2bc9a26f1717655a129e2f20752924d42e730ec89c83dbd060405160405180910390a250565b600073ffffffffffffffffffffffffffffffffffffffff168173ffffffffffffffffffffffffffffffffffffffff16036100d157600080fd5b6100e1828261014960201b60201c565b156100eb57600080fd5b60018260000160008373ffffffffffffffffffffffffffffffffffffffff1673ffffffffffffffffffffffffffffffffffffffff16815260200190815260200160002060006101000a81548160ff0219169083151502179055505050565b60008073ffffffffffffffffffffffffffffffffffffffff168273ffffffffffffffffffffffffffffffffffffffff160361018357600080fd5b8260000160008373ffffffffffffffffffffffffffffffffffffffff1673ffffffffffffffffffffffffffffffffffffffff16815260200190815260200160002060009054906101000a900460ff16905092915050565b61048e806101e96000396000f3fe608060405234801561001057600080fd5b50600436106100415760003560e01c806380c3f96d1461004657806380fc0ce414610062578063b94290691461006c575b600080fd5b610060600480360381019061005b91906103f5565b61009c565b005b61006a6100c1565b005b610086600480360381019061008191906103f5565b6100d3565b604051610093919061043d565b60405180910390f35b6100ac6100a761019b565b6100d3565b6100b557600080fd5b6100be816101a3565b50565b6100d16100cc61019b565b6101fd565b565b60006100e982600061025790919063ffffffff16565b9050919050565b600073ffffffffffffffffffffffffffffffffffffffff168173ffffffffffffffffffffffffffffffffffffffff160361012957600080fd5b6101338282610257565b1561013d57600080fd5b60018260000160008373ffffffffffffffffffffffffffffffffffffffff1673ffffffffffffffffffffffffffffffffffffffff16815260200190815260200160002060006101000a81548160ff0219169083151502179055505050565b600033905090565b6101b78160006100f090919063ffffffff16565b8073ffffffffffffffffffffffffffffffffffffffff167f2e0ded4123377a3c2bc9a26f1717655a129e2f20752924d42e730ec89c83dbd060405160405180910390a250565b6102118160006102e890919063ffffffff16565b8073ffffffffffffffffffffffffffffffffffffffff167fa5e0f060af304ab17dd418c7927e3da3ae7868189bf387aee09ab179ccc572f260405160405180910390a250565b60008073ffffffffffffffffffffffffffffffffffffffff168273ffffffffffffffffffffffffffffffffffffffff160361029157600080fd5b8260000160008373ffffffffffffffffffffffffffffffffffffffff1673ffffffffffffffffffffffffffffffffffffffff16815260200190815260200160002060009054906101000a900460ff16905092915050565b600073ffffffffffffffffffffffffffffffffffffffff168173ffffffffffffffffffffffffffffffffffffffff160361032157600080fd5b61032b8282610257565b61033457600080fd5b60008260000160008373ffffffffffffffffffffffffffffffffffffffff1673ffffffffffffffffffffffffffffffffffffffff16815260200190815260200160002060006101000a81548160ff0219169083151502179055505050565b600080fd5b600073ffffffffffffffffffffffffffffffffffffffff82169050919050565b60006103c282610397565b9050919050565b6103d2816103b7565b81146103dd57600080fd5b50565b6000813590506103ef816103c9565b92915050565b60006020828403121561040b5761040a610392565b5b6000610419848285016103e0565b91505092915050565b60008115159050919050565b61043781610422565b82525050565b6000602082019050610452600083018461042e565b9291505056fea2646970667358221220e9a47df41cf0a37da7d2757fa8affa901bd22b9530269fb0e5b272698a43fa2f64736f6c63430008110033",
  "immutableReferences": {},
  "source": "// SPDX-License-Identifier: MIT\r\npragma solidity ^0.8.0;\r\n\r\nimport \"./Roles.sol\";\r\nimport \"./Context.sol\";\r\n\r\n// Define a contract 'FarmerRole' to manage this role - add, remove, check\r\ncontract FarmerRole is Context {\r\n    using Roles for Roles.Role;\r\n\r\n    // Define 2 events, one for Adding, and other for Removing\r\n    event FarmerAdded(address indexed account);\r\n    event FarmerRemoved(address indexed account);\r\n\r\n    // Define a struct 'farmers' by inheriting from 'Roles' library, struct Role\r\n    Roles.Role private farmers;\r\n\r\n    // In the constructor make the address that deploys this contract the 1st farmer\r\n    constructor() public {\r\n        _addFarmer(_msgSender());\r\n    }\r\n\r\n    // Define a modifier that checks to see if _msgSender() has the appropriate role\r\n    modifier onlyFarmer() {\r\n        require(isFarmer(_msgSender()));\r\n        _;\r\n    }\r\n\r\n    // Define a function 'isFarmer' to check this role\r\n    function isFarmer(address account) public view returns (bool) {\r\n        return farmers.has(account);\r\n    }\r\n\r\n    // Define a function 'addFarmer' that adds this role\r\n    function addFarmer(address account) public onlyFarmer {\r\n        _addFarmer(account);\r\n    }\r\n\r\n    // Define a function 'renounceFarmer' to renounce this role\r\n    function renounceFarmer() public {\r\n        _removeFarmer(_msgSender());\r\n    }\r\n\r\n    // Define an internal function '_addFarmer' to add this role, called by 'addFarmer'\r\n    function _addFarmer(address account) internal {\r\n        farmers.add(account);\r\n        emit FarmerAdded(account);\r\n    }\r\n\r\n    // Define an internal function '_removeFarmer' to remove this role, called by 'removeFarmer'\r\n    function _removeFarmer(address account) internal {\r\n        farmers.remove(account);\r\n        emit FarmerRemoved(account);\r\n    }\r\n}",
  "sourcePath": "D:\\Code\\Blockchain\\Final-year-project\\contracts\\FarmerRole.sol",
  "compiler": {
    "name": "solc",
    "version": "0.8.17+commit.8df45f5f.Emscripten.clang"
  },
  "schemaVersion": "3.4.10",
  "updatedAt": "2023-04-15T08:32:25.653Z",
  "devdoc": {
    "kind": "dev",
    "methods": {},
    "version": 1
  },
  "userdoc": {
    "kind": "user",
    "methods": {},
    "version": 1
  }
}