{
  "contractName": "main",
  "abi": [
    {
      "inputs": [],
      "stateMutability": "payable",
      "type": "constructor",
      "payable": true
    },
    {
      "anonymous": false,
      "inputs": [
        {
          "indexed": false,
          "internalType": "uint256",
          "name": "productCode",
          "type": "uint256"
        }
      ],
      "name": "CropRegistered",
      "type": "event"
    },
    {
      "anonymous": false,
      "inputs": [
        {
          "indexed": true,
          "internalType": "address",
          "name": "account",
          "type": "address"
        }
      ],
      "name": "DistributorAdded",
      "type": "event"
    },
    {
      "anonymous": false,
      "inputs": [
        {
          "indexed": true,
          "internalType": "address",
          "name": "account",
          "type": "address"
        }
      ],
      "name": "DistributorRemoved",
      "type": "event"
    },
    {
      "anonymous": false,
      "inputs": [
        {
          "indexed": true,
          "internalType": "address",
          "name": "account",
          "type": "address"
        }
      ],
      "name": "FarmerAdded",
      "type": "event"
    },
    {
      "anonymous": false,
      "inputs": [
        {
          "indexed": true,
          "internalType": "address",
          "name": "account",
          "type": "address"
        }
      ],
      "name": "FarmerRemoved",
      "type": "event"
    },
    {
      "anonymous": false,
      "inputs": [
        {
          "indexed": false,
          "internalType": "uint256",
          "name": "productCode",
          "type": "uint256"
        }
      ],
      "name": "ForSaleByDistributor",
      "type": "event"
    },
    {
      "anonymous": false,
      "inputs": [
        {
          "indexed": false,
          "internalType": "uint256",
          "name": "productCode",
          "type": "uint256"
        }
      ],
      "name": "ForSaleByFarmer",
      "type": "event"
    },
    {
      "anonymous": false,
      "inputs": [
        {
          "indexed": false,
          "internalType": "uint256",
          "name": "productCode",
          "type": "uint256"
        }
      ],
      "name": "ForSaleByRetailer",
      "type": "event"
    },
    {
      "anonymous": false,
      "inputs": [
        {
          "indexed": true,
          "internalType": "address",
          "name": "previousOwner",
          "type": "address"
        },
        {
          "indexed": true,
          "internalType": "address",
          "name": "newOwner",
          "type": "address"
        }
      ],
      "name": "OwnershipTransferred",
      "type": "event"
    },
    {
      "anonymous": false,
      "inputs": [
        {
          "indexed": false,
          "internalType": "uint256",
          "name": "productCode",
          "type": "uint256"
        }
      ],
      "name": "ProcessedByDistributor",
      "type": "event"
    },
    {
      "anonymous": false,
      "inputs": [
        {
          "indexed": false,
          "internalType": "uint256",
          "name": "productCode",
          "type": "uint256"
        }
      ],
      "name": "PurchasedByDistributor",
      "type": "event"
    },
    {
      "anonymous": false,
      "inputs": [
        {
          "indexed": false,
          "internalType": "uint256",
          "name": "productCode",
          "type": "uint256"
        }
      ],
      "name": "PurchasedByRetailer",
      "type": "event"
    },
    {
      "anonymous": false,
      "inputs": [
        {
          "indexed": false,
          "internalType": "uint256",
          "name": "productCode",
          "type": "uint256"
        }
      ],
      "name": "ReceivedByDistributor",
      "type": "event"
    },
    {
      "anonymous": false,
      "inputs": [
        {
          "indexed": false,
          "internalType": "uint256",
          "name": "productCode",
          "type": "uint256"
        }
      ],
      "name": "ReceivedByRetailer",
      "type": "event"
    },
    {
      "anonymous": false,
      "inputs": [
        {
          "indexed": true,
          "internalType": "address",
          "name": "account",
          "type": "address"
        }
      ],
      "name": "RetailerAdded",
      "type": "event"
    },
    {
      "anonymous": false,
      "inputs": [
        {
          "indexed": true,
          "internalType": "address",
          "name": "account",
          "type": "address"
        }
      ],
      "name": "RetailerRemoved",
      "type": "event"
    },
    {
      "anonymous": false,
      "inputs": [
        {
          "indexed": false,
          "internalType": "uint256",
          "name": "productCode",
          "type": "uint256"
        }
      ],
      "name": "ShippedByDistributor",
      "type": "event"
    },
    {
      "anonymous": false,
      "inputs": [
        {
          "indexed": false,
          "internalType": "uint256",
          "name": "productCode",
          "type": "uint256"
        }
      ],
      "name": "ShippedByFarmer",
      "type": "event"
    },
    {
      "inputs": [
        {
          "internalType": "address",
          "name": "account",
          "type": "address"
        }
      ],
      "name": "addDistributor",
      "outputs": [],
      "stateMutability": "nonpayable",
      "type": "function"
    },
    {
      "inputs": [
        {
          "internalType": "address",
          "name": "account",
          "type": "address"
        }
      ],
      "name": "addFarmer",
      "outputs": [],
      "stateMutability": "nonpayable",
      "type": "function"
    },
    {
      "inputs": [
        {
          "internalType": "address",
          "name": "account",
          "type": "address"
        }
      ],
      "name": "addRetailer",
      "outputs": [],
      "stateMutability": "nonpayable",
      "type": "function"
    },
    {
      "inputs": [
        {
          "internalType": "address",
          "name": "account",
          "type": "address"
        }
      ],
      "name": "isDistributor",
      "outputs": [
        {
          "internalType": "bool",
          "name": "",
          "type": "bool"
        }
      ],
      "stateMutability": "view",
      "type": "function",
      "constant": true
    },
    {
      "inputs": [
        {
          "internalType": "address",
          "name": "account",
          "type": "address"
        }
      ],
      "name": "isFarmer",
      "outputs": [
        {
          "internalType": "bool",
          "name": "",
          "type": "bool"
        }
      ],
      "stateMutability": "view",
      "type": "function",
      "constant": true
    },
    {
      "inputs": [],
      "name": "isOwner",
      "outputs": [
        {
          "internalType": "address",
          "name": "",
          "type": "address"
        }
      ],
      "stateMutability": "view",
      "type": "function",
      "constant": true
    },
    {
      "inputs": [
        {
          "internalType": "address",
          "name": "account",
          "type": "address"
        }
      ],
      "name": "isRetailer",
      "outputs": [
        {
          "internalType": "bool",
          "name": "",
          "type": "bool"
        }
      ],
      "stateMutability": "view",
      "type": "function",
      "constant": true
    },
    {
      "inputs": [],
      "name": "ownerLookup",
      "outputs": [
        {
          "internalType": "address",
          "name": "",
          "type": "address"
        }
      ],
      "stateMutability": "view",
      "type": "function",
      "constant": true
    },
    {
      "inputs": [],
      "name": "renounceDistributor",
      "outputs": [],
      "stateMutability": "nonpayable",
      "type": "function"
    },
    {
      "inputs": [],
      "name": "renounceFarmer",
      "outputs": [],
      "stateMutability": "nonpayable",
      "type": "function"
    },
    {
      "inputs": [],
      "name": "renounceOwnership",
      "outputs": [],
      "stateMutability": "nonpayable",
      "type": "function"
    },
    {
      "inputs": [],
      "name": "renounceRetailer",
      "outputs": [],
      "stateMutability": "nonpayable",
      "type": "function"
    },
    {
      "inputs": [
        {
          "internalType": "address",
          "name": "newOwner",
          "type": "address"
        }
      ],
      "name": "transferOwnership",
      "outputs": [],
      "stateMutability": "nonpayable",
      "type": "function"
    },
    {
      "inputs": [],
      "name": "kill",
      "outputs": [],
      "stateMutability": "nonpayable",
      "type": "function"
    },
    {
      "inputs": [
        {
          "internalType": "uint256",
          "name": "_productCode",
          "type": "uint256"
        },
        {
          "internalType": "string",
          "name": "_productName",
          "type": "string"
        },
        {
          "internalType": "string",
          "name": "_productType",
          "type": "string"
        },
        {
          "internalType": "string",
          "name": "_productDescription",
          "type": "string"
        },
        {
          "internalType": "string",
          "name": "_productDate",
          "type": "string"
        },
        {
          "internalType": "string",
          "name": "_farmName",
          "type": "string"
        },
        {
          "internalType": "uint256",
          "name": "_price",
          "type": "uint256"
        }
      ],
      "name": "cropRegisteredByFarmer",
      "outputs": [],
      "stateMutability": "nonpayable",
      "type": "function"
    },
    {
      "inputs": [
        {
          "internalType": "uint256",
          "name": "_productCode",
          "type": "uint256"
        },
        {
          "internalType": "uint256",
          "name": "_price",
          "type": "uint256"
        }
      ],
      "name": "sellItemByFarmer",
      "outputs": [],
      "stateMutability": "nonpayable",
      "type": "function"
    },
    {
      "inputs": [
        {
          "internalType": "uint256",
          "name": "_productCode",
          "type": "uint256"
        }
      ],
      "name": "purchaseItemByDistributor",
      "outputs": [],
      "stateMutability": "payable",
      "type": "function",
      "payable": true
    },
    {
      "inputs": [
        {
          "internalType": "uint256",
          "name": "_productCode",
          "type": "uint256"
        }
      ],
      "name": "shippedItemByFarmer",
      "outputs": [],
      "stateMutability": "payable",
      "type": "function",
      "payable": true
    },
    {
      "inputs": [
        {
          "internalType": "uint256",
          "name": "_productCode",
          "type": "uint256"
        }
      ],
      "name": "receivedItemByDistributor",
      "outputs": [],
      "stateMutability": "nonpayable",
      "type": "function"
    },
    {
      "inputs": [
        {
          "internalType": "uint256",
          "name": "_productCode",
          "type": "uint256"
        },
        {
          "internalType": "uint256",
          "name": "slices",
          "type": "uint256"
        }
      ],
      "name": "processedItemByDistributor",
      "outputs": [],
      "stateMutability": "nonpayable",
      "type": "function"
    },
    {
      "inputs": [
        {
          "internalType": "uint256",
          "name": "_productCode",
          "type": "uint256"
        },
        {
          "internalType": "uint256",
          "name": "_price",
          "type": "uint256"
        }
      ],
      "name": "sellItemByDistributor",
      "outputs": [],
      "stateMutability": "nonpayable",
      "type": "function"
    },
    {
      "inputs": [
        {
          "internalType": "uint256",
          "name": "_productCode",
          "type": "uint256"
        }
      ],
      "name": "purchaseItemByRetailer",
      "outputs": [],
      "stateMutability": "payable",
      "type": "function",
      "payable": true
    },
    {
      "inputs": [
        {
          "internalType": "uint256",
          "name": "_productCode",
          "type": "uint256"
        }
      ],
      "name": "shippedItemByDistributor",
      "outputs": [],
      "stateMutability": "nonpayable",
      "type": "function"
    },
    {
      "inputs": [
        {
          "internalType": "uint256",
          "name": "_productCode",
          "type": "uint256"
        }
      ],
      "name": "receivedItemByRetailer",
      "outputs": [],
      "stateMutability": "nonpayable",
      "type": "function"
    },
    {
      "inputs": [
        {
          "internalType": "uint256",
          "name": "_productCode",
          "type": "uint256"
        },
        {
          "internalType": "uint256",
          "name": "_price",
          "type": "uint256"
        }
      ],
      "name": "sellItemByRetailer",
      "outputs": [],
      "stateMutability": "nonpayable",
      "type": "function"
    },
    {
      "inputs": [
        {
          "internalType": "uint256",
          "name": "_productCode",
          "type": "uint256"
        }
      ],
      "name": "fetchItemBufferOne",
      "outputs": [
        {
          "internalType": "uint256",
          "name": "itemstockUnit",
          "type": "uint256"
        },
        {
          "internalType": "uint256",
          "name": "itemproductCode",
          "type": "uint256"
        },
        {
          "internalType": "address",
          "name": "ownerID",
          "type": "address"
        },
        {
          "internalType": "address",
          "name": "farmerID",
          "type": "address"
        },
        {
          "internalType": "string",
          "name": "farmName",
          "type": "string"
        },
        {
          "internalType": "string",
          "name": "productDescription",
          "type": "string"
        },
        {
          "internalType": "uint256",
          "name": "productDate",
          "type": "uint256"
        }
      ],
      "stateMutability": "view",
      "type": "function",
      "constant": true
    },
    {
      "inputs": [
        {
          "internalType": "uint256",
          "name": "_productCode",
          "type": "uint256"
        }
      ],
      "name": "fetchItemBufferTwo",
      "outputs": [
        {
          "internalType": "uint256",
          "name": "itemstockUnit",
          "type": "uint256"
        },
        {
          "internalType": "uint256",
          "name": "itemproductCode",
          "type": "uint256"
        },
        {
          "internalType": "uint256",
          "name": "productID",
          "type": "uint256"
        },
        {
          "internalType": "string",
          "name": "productType",
          "type": "string"
        },
        {
          "internalType": "uint256",
          "name": "productPrice",
          "type": "uint256"
        },
        {
          "internalType": "uint256",
          "name": "productDate",
          "type": "uint256"
        },
        {
          "internalType": "enum main.Modified",
          "name": "itemState",
          "type": "uint8"
        },
        {
          "internalType": "address",
          "name": "distributorID",
          "type": "address"
        },
        {
          "internalType": "address",
          "name": "retailerID",
          "type": "address"
        }
      ],
      "stateMutability": "view",
      "type": "function",
      "constant": true
    },
    {
      "inputs": [
        {
          "internalType": "uint256",
          "name": "_productCode",
          "type": "uint256"
        }
      ],
      "name": "fetchitemHistory",
      "outputs": [
        {
          "internalType": "uint256",
          "name": "blockfarmerToDistributor",
          "type": "uint256"
        },
        {
          "internalType": "uint256",
          "name": "blockDistributorToRetailer",
          "type": "uint256"
        }
      ],
      "stateMutability": "view",
      "type": "function",
      "constant": true
    }
  ],
  "bytecode": "0x60806040526200002462000018620000ea60201b60201c565b620000f260201b60201c565b6200004462000038620000ea60201b60201c565b620001b660201b60201c565b6200006462000058620000ea60201b60201c565b6200021760201b60201c565b6200008462000078620000ea60201b60201c565b6200027860201b60201c565b62000094620000ea60201b60201c565b600460006101000a81548173ffffffffffffffffffffffffffffffffffffffff021916908373ffffffffffffffffffffffffffffffffffffffff1602179055506001600681905550600160058190555062000420565b600033905090565b60008060009054906101000a900473ffffffffffffffffffffffffffffffffffffffff169050816000806101000a81548173ffffffffffffffffffffffffffffffffffffffff021916908373ffffffffffffffffffffffffffffffffffffffff1602179055508173ffffffffffffffffffffffffffffffffffffffff168173ffffffffffffffffffffffffffffffffffffffff167f8be0079c531659141344cd1fd0a4f28419497f9722a3daafe3b4186f6b6457e060405160405180910390a35050565b620001d1816001620002d960201b62002a1e1790919060201c565b8073ffffffffffffffffffffffffffffffffffffffff167f2e0ded4123377a3c2bc9a26f1717655a129e2f20752924d42e730ec89c83dbd060405160405180910390a250565b62000232816002620002d960201b62002a1e1790919060201c565b8073ffffffffffffffffffffffffffffffffffffffff167fddbf200aa634dc3fb81cfd68583dd1040d1c751d335e1d86b631bde3e977fea860405160405180910390a250565b62000293816003620002d960201b62002a1e1790919060201c565b8073ffffffffffffffffffffffffffffffffffffffff167f71ae26cad02663e3d92efd6ec56031a80d74a20c0ab4183faa8bf262261c9baa60405160405180910390a250565b600073ffffffffffffffffffffffffffffffffffffffff168173ffffffffffffffffffffffffffffffffffffffff16036200031357600080fd5b6200032582826200038e60201b60201c565b156200033057600080fd5b60018260000160008373ffffffffffffffffffffffffffffffffffffffff1673ffffffffffffffffffffffffffffffffffffffff16815260200190815260200160002060006101000a81548160ff0219169083151502179055505050565b60008073ffffffffffffffffffffffffffffffffffffffff168273ffffffffffffffffffffffffffffffffffffffff1603620003c957600080fd5b8260000160008373ffffffffffffffffffffffffffffffffffffffff1673ffffffffffffffffffffffffffffffffffffffff16815260200190815260200160002060009054906101000a900460ff16905092915050565b613b8e80620004306000396000f3fe6080604052600436106101b75760003560e01c806380c3f96d116100ec578063b94290691161008a578063e618f00011610064578063e618f000146105ab578063eab7d6e8146105d4578063f2fde38b146105fd578063fdcdc06f14610626576101b7565b8063b94290691461052c578063db0e6a2f14610569578063e02e64ea14610580576101b7565b80638adff8ba116100c65780638adff8ba146104725780638ec4f5051461049b5780638f0c86fa146104c45780638f32d59b14610501576101b7565b806380c3f96d1461040957806380fc0ce41461043257806382e831ec14610449576101b7565b80635da09b8811610159578063715018a611610133578063715018a61461036a57806371f3ff90146103815780637250e2241461039d57806377c45913146103c6576101b7565b80635da09b88146102d1578063644241db1461030e57806366225ff914610325576101b7565b806326d529b41161019557806326d529b41461024c57806337b2f92c1461026857806341c0e1b514610291578063546eb586146102a8576101b7565b80631154501c146101bc578063117a4aa7146101fa57806324cb166914610223575b600080fd5b3480156101c857600080fd5b506101e360048036038101906101de91906130bf565b610642565b6040516101f19291906130fb565b60405180910390f35b34801561020657600080fd5b50610221600480360381019061021c919061326a565b61068f565b005b34801561022f57600080fd5b5061024a600480360381019061024591906130bf565b610af7565b005b610266600480360381019061026191906130bf565b610c56565b005b34801561027457600080fd5b5061028f600480360381019061028a91906130bf565b610f55565b005b34801561029d57600080fd5b506102a66110b4565b005b3480156102b457600080fd5b506102cf60048036038101906102ca9190613398565b61115a565b005b3480156102dd57600080fd5b506102f860048036038101906102f39190613436565b6112d5565b604051610305919061347e565b60405180910390f35b34801561031a57600080fd5b506103236112f2565b005b34801561033157600080fd5b5061034c600480360381019061034791906130bf565b611304565b6040516103619998979695949392919061359e565b60405180910390f35b34801561037657600080fd5b5061037f6118b8565b005b61039b600480360381019061039691906130bf565b6118cc565b005b3480156103a957600080fd5b506103c460048036038101906103bf9190613436565b611a2b565b005b3480156103d257600080fd5b506103ed60048036038101906103e891906130bf565b611a50565b6040516104009796959493929190613632565b60405180910390f35b34801561041557600080fd5b50610430600480360381019061042b9190613436565b611fec565b005b34801561043e57600080fd5b50610447612011565b005b34801561045557600080fd5b50610470600480360381019061046b91906130bf565b612023565b005b34801561047e57600080fd5b5061049960048036038101906104949190613398565b612182565b005b3480156104a757600080fd5b506104c260048036038101906104bd9190613436565b6122fd565b005b3480156104d057600080fd5b506104eb60048036038101906104e69190613436565b612322565b6040516104f8919061347e565b60405180910390f35b34801561050d57600080fd5b5061051661233f565b60405161052391906136af565b60405180910390f35b34801561053857600080fd5b50610553600480360381019061054e9190613436565b612368565b604051610560919061347e565b60405180910390f35b34801561057557600080fd5b5061057e612385565b005b34801561058c57600080fd5b50610595612397565b6040516105a291906136af565b60405180910390f35b3480156105b757600080fd5b506105d260048036038101906105cd9190613398565b6123c0565b005b3480156105e057600080fd5b506105fb60048036038101906105f69190613398565b61253b565b005b34801561060957600080fd5b50610624600480360381019061061f9190613436565b61269b565b005b610640600480360381019061063b91906130bf565b61271e565b005b600080600060086000858152602001908152602001600020604051806040016040529081600082015481526020016001820154815250509050806000015181602001519250925050915091565b61069f61069a612ac9565b612368565b6106a857600080fd5b6000806106b3612f74565b600654816000018181525050898160200181815250506106d1612ac9565b816040019073ffffffffffffffffffffffffffffffffffffffff16908173ffffffffffffffffffffffffffffffffffffffff1681525050610710612ac9565b816060019073ffffffffffffffffffffffffffffffffffffffff16908173ffffffffffffffffffffffffffffffffffffffff1681525050848160800181905250868160a001819052506006548a61076791906136f9565b8160c0018181525050878160e00181905250838161014001818152505042816101200181815250506000816101600190600a8111156107a9576107a8613518565b5b9081600a8111156107bd576107bc613518565b5b815250508281610180019073ffffffffffffffffffffffffffffffffffffffff16908173ffffffffffffffffffffffffffffffffffffffff168152505081816101a0019073ffffffffffffffffffffffffffffffffffffffff16908173ffffffffffffffffffffffffffffffffffffffff168152505080600760008c8152602001908152602001600020600082015181600001556020820151816001015560408201518160020160006101000a81548173ffffffffffffffffffffffffffffffffffffffff021916908373ffffffffffffffffffffffffffffffffffffffff16021790555060608201518160030160006101000a81548173ffffffffffffffffffffffffffffffffffffffff021916908373ffffffffffffffffffffffffffffffffffffffff16021790555060808201518160040190816108fe9190613939565b5060a08201518160050190816109149190613939565b5060c0820151816006015560e08201518160070190816109349190613939565b5061010082015181600801908161094b9190613939565b50610120820151816009015561014082015181600a015561016082015181600b0160006101000a81548160ff0219169083600a81111561098e5761098d613518565b5b021790555061018082015181600b0160016101000a81548173ffffffffffffffffffffffffffffffffffffffff021916908373ffffffffffffffffffffffffffffffffffffffff1602179055506101a082015181600c0160006101000a81548173ffffffffffffffffffffffffffffffffffffffff021916908373ffffffffffffffffffffffffffffffffffffffff1602179055506101c082015181600d019081610a399190613939565b506101e082015181600e019081610a509190613939565b509050506000610a5e61305b565b818160000181815250508181602001818152505080600860008e815260200190815260200160002060008201518160000155602082015181600101559050506001600654610aac91906136f9565b6006819055507f36035b711719171c5d396e693e0eb1dc781a6cbfbbdff7f8e883383aaadfc4c18c604051610ae19190613a0b565b60405180910390a1505050505050505050505050565b610b07610b02612ac9565b612322565b610b1057600080fd5b806003600a811115610b2557610b24613518565b5b60076000838152602001908152602001600020600b0160009054906101000a900460ff16600a811115610b5b57610b5a613518565b5b14610b6557600080fd5b6007600083815260200190815260200160002060020160009054906101000a900473ffffffffffffffffffffffffffffffffffffffff168073ffffffffffffffffffffffffffffffffffffffff16610bbb612ac9565b73ffffffffffffffffffffffffffffffffffffffff1614610bdb57600080fd5b600460076000858152602001908152602001600020600b0160006101000a81548160ff0219169083600a811115610c1557610c14613518565b5b02179055507fc8ca2150e6e1849a10ef5aa4932060fa353bcacdffeb150c9e1890c6ab9403cc83604051610c499190613a0b565b60405180910390a1505050565b610c66610c61612ac9565b6112d5565b610c6f57600080fd5b806006600a811115610c8457610c83613518565b5b60076000838152602001908152602001600020600b0160009054906101000a900460ff16600a811115610cba57610cb9613518565b5b14610cc457600080fd5b60076000838152602001908152602001600020600a015480341015610ce857600080fd5b82610cf1612ac9565b600060076000848152602001908152602001600020600a0154905060008134610d1a9190613a26565b90508273ffffffffffffffffffffffffffffffffffffffff166108fc829081150290604051600060405180830381858888f19350505050158015610d62573d6000803e3d6000fd5b506000610da4600760008a8152602001908152602001600020600b0160019054906101000a900473ffffffffffffffffffffffffffffffffffffffff16612ad1565b90508073ffffffffffffffffffffffffffffffffffffffff166108fc600760008b8152602001908152602001600020600a01549081150290604051600060405180830381858888f19350505050158015610e02573d6000803e3d6000fd5b50610e0b612ac9565b600760008a815260200190815260200160002060020160006101000a81548173ffffffffffffffffffffffffffffffffffffffff021916908373ffffffffffffffffffffffffffffffffffffffff160217905550610e67612ac9565b600760008a8152602001908152602001600020600c0160006101000a81548173ffffffffffffffffffffffffffffffffffffffff021916908373ffffffffffffffffffffffffffffffffffffffff16021790555060078060008a8152602001908152602001600020600b0160006101000a81548160ff0219169083600a811115610ef457610ef3613518565b5b021790555043600860008a8152602001908152602001600020600101819055507faa7352d10146444c3afd9bd7fb0ae56b0a85e81139536bbec3f1f660fddd7be188604051610f439190613a0b565b60405180910390a15050505050505050565b610f65610f60612ac9565b6112d5565b610f6e57600080fd5b806008600a811115610f8357610f82613518565b5b60076000838152602001908152602001600020600b0160009054906101000a900460ff16600a811115610fb957610fb8613518565b5b14610fc357600080fd5b6007600083815260200190815260200160002060020160009054906101000a900473ffffffffffffffffffffffffffffffffffffffff168073ffffffffffffffffffffffffffffffffffffffff16611019612ac9565b73ffffffffffffffffffffffffffffffffffffffff161461103957600080fd5b600960076000858152602001908152602001600020600b0160006101000a81548160ff0219169083600a81111561107357611072613518565b5b02179055507f322f34e90f2269750b3e28178631d975cc678db36f21098fe548b7f755ce0bd0836040516110a79190613a0b565b60405180910390a1505050565b600460009054906101000a900473ffffffffffffffffffffffffffffffffffffffff1673ffffffffffffffffffffffffffffffffffffffff166110f5612ac9565b73ffffffffffffffffffffffffffffffffffffffff160361115857600061113d600460009054906101000a900473ffffffffffffffffffffffffffffffffffffffff16612ad1565b90508073ffffffffffffffffffffffffffffffffffffffff16ff5b565b61116a611165612ac9565b6112d5565b61117357600080fd5b816009600a81111561118857611187613518565b5b60076000838152602001908152602001600020600b0160009054906101000a900460ff16600a8111156111be576111bd613518565b5b146111c857600080fd5b6007600084815260200190815260200160002060020160009054906101000a900473ffffffffffffffffffffffffffffffffffffffff168073ffffffffffffffffffffffffffffffffffffffff1661121e612ac9565b73ffffffffffffffffffffffffffffffffffffffff161461123e57600080fd5b600a60076000868152602001908152602001600020600b0160006101000a81548160ff0219169083600a81111561127857611277613518565b5b02179055508260076000868152602001908152602001600020600a01819055507f59e7ad085805e2b02ad4b0f8033bd75e7ee4c8cd43f996267463585e35896252846040516112c79190613a0b565b60405180910390a150505050565b60006112eb826003612adb90919063ffffffff16565b9050919050565b6113026112fd612ac9565b612b6c565b565b60008060006060600080600080600080600760008c81526020019081526020016000206040518061020001604052908160008201548152602001600182015481526020016002820160009054906101000a900473ffffffffffffffffffffffffffffffffffffffff1673ffffffffffffffffffffffffffffffffffffffff1673ffffffffffffffffffffffffffffffffffffffff1681526020016003820160009054906101000a900473ffffffffffffffffffffffffffffffffffffffff1673ffffffffffffffffffffffffffffffffffffffff1673ffffffffffffffffffffffffffffffffffffffff1681526020016004820180546114039061375c565b80601f016020809104026020016040519081016040528092919081815260200182805461142f9061375c565b801561147c5780601f106114515761010080835404028352916020019161147c565b820191906000526020600020905b81548152906001019060200180831161145f57829003601f168201915b505050505081526020016005820180546114959061375c565b80601f01602080910402602001604051908101604052809291908181526020018280546114c19061375c565b801561150e5780601f106114e35761010080835404028352916020019161150e565b820191906000526020600020905b8154815290600101906020018083116114f157829003601f168201915b50505050508152602001600682015481526020016007820180546115319061375c565b80601f016020809104026020016040519081016040528092919081815260200182805461155d9061375c565b80156115aa5780601f1061157f576101008083540402835291602001916115aa565b820191906000526020600020905b81548152906001019060200180831161158d57829003601f168201915b505050505081526020016008820180546115c39061375c565b80601f01602080910402602001604051908101604052809291908181526020018280546115ef9061375c565b801561163c5780601f106116115761010080835404028352916020019161163c565b820191906000526020600020905b81548152906001019060200180831161161f57829003601f168201915b5050505050815260200160098201548152602001600a8201548152602001600b820160009054906101000a900460ff16600a81111561167e5761167d613518565b5b600a8111156116905761168f613518565b5b8152602001600b820160019054906101000a900473ffffffffffffffffffffffffffffffffffffffff1673ffffffffffffffffffffffffffffffffffffffff1673ffffffffffffffffffffffffffffffffffffffff168152602001600c820160009054906101000a900473ffffffffffffffffffffffffffffffffffffffff1673ffffffffffffffffffffffffffffffffffffffff1673ffffffffffffffffffffffffffffffffffffffff168152602001600d820180546117509061375c565b80601f016020809104026020016040519081016040528092919081815260200182805461177c9061375c565b80156117c95780601f1061179e576101008083540402835291602001916117c9565b820191906000526020600020905b8154815290600101906020018083116117ac57829003601f168201915b50505050508152602001600e820180546117e29061375c565b80601f016020809104026020016040519081016040528092919081815260200182805461180e9061375c565b801561185b5780601f106118305761010080835404028352916020019161185b565b820191906000526020600020905b81548152906001019060200180831161183e57829003601f168201915b5050505050815250509050806000015181602001518260c001518360e00151846101400151856101200151866101600151876101800151886101a00151995099509950995099509950995099509950509193959799909294969850565b6118c0612bc6565b6118ca6000612c44565b565b6118dc6118d7612ac9565b612368565b6118e557600080fd5b806002600a8111156118fa576118f9613518565b5b60076000838152602001908152602001600020600b0160009054906101000a900460ff16600a8111156119305761192f613518565b5b1461193a57600080fd5b6007600083815260200190815260200160002060030160009054906101000a900473ffffffffffffffffffffffffffffffffffffffff168073ffffffffffffffffffffffffffffffffffffffff16611990612ac9565b73ffffffffffffffffffffffffffffffffffffffff16146119b057600080fd5b600360076000858152602001908152602001600020600b0160006101000a81548160ff0219169083600a8111156119ea576119e9613518565b5b02179055507fe6ae062d51064ae2a5a31a72fcb1bee1d343fdc6bddc1d3dfce658ece4f0321283604051611a1e9190613a0b565b60405180910390a1505050565b611a3b611a36612ac9565b612322565b611a4457600080fd5b611a4d81612d08565b50565b600080600080606080600080600760008a81526020019081526020016000206040518061020001604052908160008201548152602001600182015481526020016002820160009054906101000a900473ffffffffffffffffffffffffffffffffffffffff1673ffffffffffffffffffffffffffffffffffffffff1673ffffffffffffffffffffffffffffffffffffffff1681526020016003820160009054906101000a900473ffffffffffffffffffffffffffffffffffffffff1673ffffffffffffffffffffffffffffffffffffffff1673ffffffffffffffffffffffffffffffffffffffff168152602001600482018054611b4b9061375c565b80601f0160208091040260200160405190810160405280929190818152602001828054611b779061375c565b8015611bc45780601f10611b9957610100808354040283529160200191611bc4565b820191906000526020600020905b815481529060010190602001808311611ba757829003601f168201915b50505050508152602001600582018054611bdd9061375c565b80601f0160208091040260200160405190810160405280929190818152602001828054611c099061375c565b8015611c565780601f10611c2b57610100808354040283529160200191611c56565b820191906000526020600020905b815481529060010190602001808311611c3957829003601f168201915b5050505050815260200160068201548152602001600782018054611c799061375c565b80601f0160208091040260200160405190810160405280929190818152602001828054611ca59061375c565b8015611cf25780601f10611cc757610100808354040283529160200191611cf2565b820191906000526020600020905b815481529060010190602001808311611cd557829003601f168201915b50505050508152602001600882018054611d0b9061375c565b80601f0160208091040260200160405190810160405280929190818152602001828054611d379061375c565b8015611d845780601f10611d5957610100808354040283529160200191611d84565b820191906000526020600020905b815481529060010190602001808311611d6757829003601f168201915b5050505050815260200160098201548152602001600a8201548152602001600b820160009054906101000a900460ff16600a811115611dc657611dc5613518565b5b600a811115611dd857611dd7613518565b5b8152602001600b820160019054906101000a900473ffffffffffffffffffffffffffffffffffffffff1673ffffffffffffffffffffffffffffffffffffffff1673ffffffffffffffffffffffffffffffffffffffff168152602001600c820160009054906101000a900473ffffffffffffffffffffffffffffffffffffffff1673ffffffffffffffffffffffffffffffffffffffff1673ffffffffffffffffffffffffffffffffffffffff168152602001600d82018054611e989061375c565b80601f0160208091040260200160405190810160405280929190818152602001828054611ec49061375c565b8015611f115780601f10611ee657610100808354040283529160200191611f11565b820191906000526020600020905b815481529060010190602001808311611ef457829003601f168201915b50505050508152602001600e82018054611f2a9061375c565b80601f0160208091040260200160405190810160405280929190818152602001828054611f569061375c565b8015611fa35780601f10611f7857610100808354040283529160200191611fa3565b820191906000526020600020905b815481529060010190602001808311611f8657829003601f168201915b5050505050815250509050806000015181602001518260400151836060015184608001518560a00151866101200151975097509750975097509750975050919395979092949650565b611ffc611ff7612ac9565b612368565b61200557600080fd5b61200e81612d62565b50565b61202161201c612ac9565b612dbc565b565b61203361202e612ac9565b612322565b61203c57600080fd5b806007600a81111561205157612050613518565b5b60076000838152602001908152602001600020600b0160009054906101000a900460ff16600a81111561208757612086613518565b5b1461209157600080fd5b60076000838152602001908152602001600020600b0160019054906101000a900473ffffffffffffffffffffffffffffffffffffffff168073ffffffffffffffffffffffffffffffffffffffff166120e7612ac9565b73ffffffffffffffffffffffffffffffffffffffff161461210757600080fd5b600860076000858152602001908152602001600020600b0160006101000a81548160ff0219169083600a81111561214157612140613518565b5b02179055507fc5c33776d405e5686e4386e1ef31a65cf6195e4f7ceb8808ab64d05b6ccbc2a6836040516121759190613a0b565b60405180910390a1505050565b61219261218d612ac9565b612322565b61219b57600080fd5b816005600a8111156121b0576121af613518565b5b60076000838152602001908152602001600020600b0160009054906101000a900460ff16600a8111156121e6576121e5613518565b5b146121f057600080fd5b6007600084815260200190815260200160002060020160009054906101000a900473ffffffffffffffffffffffffffffffffffffffff168073ffffffffffffffffffffffffffffffffffffffff16612246612ac9565b73ffffffffffffffffffffffffffffffffffffffff161461226657600080fd5b600660076000868152602001908152602001600020600b0160006101000a81548160ff0219169083600a8111156122a05761229f613518565b5b02179055508260076000868152602001908152602001600020600a01819055507f539b4a835a8a5d1bc5756a9f146e2bfeaa6bd6b1fa77a7631c0a5154c86cdd03846040516122ef9190613a0b565b60405180910390a150505050565b61230d612308612ac9565b6112d5565b61231657600080fd5b61231f81612e16565b50565b6000612338826002612adb90919063ffffffff16565b9050919050565b60008060009054906101000a900473ffffffffffffffffffffffffffffffffffffffff16905090565b600061237e826001612adb90919063ffffffff16565b9050919050565b612395612390612ac9565b612e70565b565b60008060009054906101000a900473ffffffffffffffffffffffffffffffffffffffff16905090565b6123d06123cb612ac9565b612368565b6123d957600080fd5b816000600a8111156123ee576123ed613518565b5b60076000838152602001908152602001600020600b0160009054906101000a900460ff16600a81111561242457612423613518565b5b1461242e57600080fd5b6007600084815260200190815260200160002060020160009054906101000a900473ffffffffffffffffffffffffffffffffffffffff168073ffffffffffffffffffffffffffffffffffffffff16612484612ac9565b73ffffffffffffffffffffffffffffffffffffffff16146124a457600080fd5b600160076000868152602001908152602001600020600b0160006101000a81548160ff0219169083600a8111156124de576124dd613518565b5b02179055508260076000868152602001908152602001600020600a01819055507f7a02b5a0b1f928cffcafd0e750f369a40f124f4f34f65801fe1f0d945b9a79158460405161252d9190613a0b565b60405180910390a150505050565b61254b612546612ac9565b612322565b61255457600080fd5b816004600a81111561256957612568613518565b5b60076000838152602001908152602001600020600b0160009054906101000a900460ff16600a81111561259f5761259e613518565b5b146125a957600080fd5b6007600084815260200190815260200160002060020160009054906101000a900473ffffffffffffffffffffffffffffffffffffffff168073ffffffffffffffffffffffffffffffffffffffff166125ff612ac9565b73ffffffffffffffffffffffffffffffffffffffff161461261f57600080fd5b600560076000868152602001908152602001600020600b0160006101000a81548160ff0219169083600a81111561265957612658613518565b5b02179055507f5725e53fd0efed5294b7db2af148f040264a63630b4deb0afbccf6e60830988a8460405161268d9190613a0b565b60405180910390a150505050565b6126a3612bc6565b600073ffffffffffffffffffffffffffffffffffffffff168173ffffffffffffffffffffffffffffffffffffffff1603612712576040517f08c379a000000000000000000000000000000000000000000000000000000000815260040161270990613acc565b60405180910390fd5b61271b81612c44565b50565b61272e612729612ac9565b612322565b61273757600080fd5b806001600a81111561274c5761274b613518565b5b60076000838152602001908152602001600020600b0160009054906101000a900460ff16600a81111561278257612781613518565b5b1461278c57600080fd5b60076000838152602001908152602001600020600a0154803410156127b057600080fd5b826127b9612ac9565b600060076000848152602001908152602001600020600a01549050600081346127e29190613a26565b90508273ffffffffffffffffffffffffffffffffffffffff166108fc829081150290604051600060405180830381858888f1935050505015801561282a573d6000803e3d6000fd5b50600061286c600760008a815260200190815260200160002060030160009054906101000a900473ffffffffffffffffffffffffffffffffffffffff16612ad1565b90508073ffffffffffffffffffffffffffffffffffffffff166108fc600760008b8152602001908152602001600020600a01549081150290604051600060405180830381858888f193505050501580156128ca573d6000803e3d6000fd5b506128d3612ac9565b600760008a815260200190815260200160002060020160006101000a81548173ffffffffffffffffffffffffffffffffffffffff021916908373ffffffffffffffffffffffffffffffffffffffff16021790555061292f612ac9565b600760008a8152602001908152602001600020600b0160016101000a81548173ffffffffffffffffffffffffffffffffffffffff021916908373ffffffffffffffffffffffffffffffffffffffff1602179055506002600760008a8152602001908152602001600020600b0160006101000a81548160ff0219169083600a8111156129bd576129bc613518565b5b021790555043600860008a8152602001908152602001600020600001819055507facd9402b9f9e8c15fa7c1819f8393ca56eb61316cc354fc6ac2150aed3ce793188604051612a0c9190613a0b565b60405180910390a15050505050505050565b600073ffffffffffffffffffffffffffffffffffffffff168173ffffffffffffffffffffffffffffffffffffffff1603612a5757600080fd5b612a618282612adb565b15612a6b57600080fd5b60018260000160008373ffffffffffffffffffffffffffffffffffffffff1673ffffffffffffffffffffffffffffffffffffffff16815260200190815260200160002060006101000a81548160ff0219169083151502179055505050565b600033905090565b6000819050919050565b60008073ffffffffffffffffffffffffffffffffffffffff168273ffffffffffffffffffffffffffffffffffffffff1603612b1557600080fd5b8260000160008373ffffffffffffffffffffffffffffffffffffffff1673ffffffffffffffffffffffffffffffffffffffff16815260200190815260200160002060009054906101000a900460ff16905092915050565b612b80816002612eca90919063ffffffff16565b8073ffffffffffffffffffffffffffffffffffffffff167f126174f6cf49c81cdb4a9214c6b8f037bef55b4ec31e4fc776cea2a1c8a88d5960405160405180910390a250565b612bce61233f565b73ffffffffffffffffffffffffffffffffffffffff16612bec612ac9565b73ffffffffffffffffffffffffffffffffffffffff1614612c42576040517f08c379a0000000000000000000000000000000000000000000000000000000008152600401612c3990613b38565b60405180910390fd5b565b60008060009054906101000a900473ffffffffffffffffffffffffffffffffffffffff169050816000806101000a81548173ffffffffffffffffffffffffffffffffffffffff021916908373ffffffffffffffffffffffffffffffffffffffff1602179055508173ffffffffffffffffffffffffffffffffffffffff168173ffffffffffffffffffffffffffffffffffffffff167f8be0079c531659141344cd1fd0a4f28419497f9722a3daafe3b4186f6b6457e060405160405180910390a35050565b612d1c816002612a1e90919063ffffffff16565b8073ffffffffffffffffffffffffffffffffffffffff167fddbf200aa634dc3fb81cfd68583dd1040d1c751d335e1d86b631bde3e977fea860405160405180910390a250565b612d76816001612a1e90919063ffffffff16565b8073ffffffffffffffffffffffffffffffffffffffff167f2e0ded4123377a3c2bc9a26f1717655a129e2f20752924d42e730ec89c83dbd060405160405180910390a250565b612dd0816001612eca90919063ffffffff16565b8073ffffffffffffffffffffffffffffffffffffffff167fa5e0f060af304ab17dd418c7927e3da3ae7868189bf387aee09ab179ccc572f260405160405180910390a250565b612e2a816003612a1e90919063ffffffff16565b8073ffffffffffffffffffffffffffffffffffffffff167f71ae26cad02663e3d92efd6ec56031a80d74a20c0ab4183faa8bf262261c9baa60405160405180910390a250565b612e84816003612eca90919063ffffffff16565b8073ffffffffffffffffffffffffffffffffffffffff167fdb7176e79cffef81cb01767dd0447a0b24bb72ca9778d4b245581086b2a7e6db60405160405180910390a250565b600073ffffffffffffffffffffffffffffffffffffffff168173ffffffffffffffffffffffffffffffffffffffff1603612f0357600080fd5b612f0d8282612adb565b612f1657600080fd5b60008260000160008373ffffffffffffffffffffffffffffffffffffffff1673ffffffffffffffffffffffffffffffffffffffff16815260200190815260200160002060006101000a81548160ff0219169083151502179055505050565b6040518061020001604052806000815260200160008152602001600073ffffffffffffffffffffffffffffffffffffffff168152602001600073ffffffffffffffffffffffffffffffffffffffff168152602001606081526020016060815260200160008152602001606081526020016060815260200160008152602001600081526020016000600a81111561300d5761300c613518565b5b8152602001600073ffffffffffffffffffffffffffffffffffffffff168152602001600073ffffffffffffffffffffffffffffffffffffffff16815260200160608152602001606081525090565b604051806040016040528060008152602001600081525090565b6000604051905090565b600080fd5b600080fd5b6000819050919050565b61309c81613089565b81146130a757600080fd5b50565b6000813590506130b981613093565b92915050565b6000602082840312156130d5576130d461307f565b5b60006130e3848285016130aa565b91505092915050565b6130f581613089565b82525050565b600060408201905061311060008301856130ec565b61311d60208301846130ec565b9392505050565b600080fd5b600080fd5b6000601f19601f8301169050919050565b7f4e487b7100000000000000000000000000000000000000000000000000000000600052604160045260246000fd5b6131778261312e565b810181811067ffffffffffffffff821117156131965761319561313f565b5b80604052505050565b60006131a9613075565b90506131b5828261316e565b919050565b600067ffffffffffffffff8211156131d5576131d461313f565b5b6131de8261312e565b9050602081019050919050565b82818337600083830152505050565b600061320d613208846131ba565b61319f565b90508281526020810184848401111561322957613228613129565b5b6132348482856131eb565b509392505050565b600082601f83011261325157613250613124565b5b81356132618482602086016131fa565b91505092915050565b600080600080600080600060e0888a0312156132895761328861307f565b5b60006132978a828b016130aa565b975050602088013567ffffffffffffffff8111156132b8576132b7613084565b5b6132c48a828b0161323c565b965050604088013567ffffffffffffffff8111156132e5576132e4613084565b5b6132f18a828b0161323c565b955050606088013567ffffffffffffffff81111561331257613311613084565b5b61331e8a828b0161323c565b945050608088013567ffffffffffffffff81111561333f5761333e613084565b5b61334b8a828b0161323c565b93505060a088013567ffffffffffffffff81111561336c5761336b613084565b5b6133788a828b0161323c565b92505060c06133898a828b016130aa565b91505092959891949750929550565b600080604083850312156133af576133ae61307f565b5b60006133bd858286016130aa565b92505060206133ce858286016130aa565b9150509250929050565b600073ffffffffffffffffffffffffffffffffffffffff82169050919050565b6000613403826133d8565b9050919050565b613413816133f8565b811461341e57600080fd5b50565b6000813590506134308161340a565b92915050565b60006020828403121561344c5761344b61307f565b5b600061345a84828501613421565b91505092915050565b60008115159050919050565b61347881613463565b82525050565b6000602082019050613493600083018461346f565b92915050565b600081519050919050565b600082825260208201905092915050565b60005b838110156134d35780820151818401526020810190506134b8565b60008484015250505050565b60006134ea82613499565b6134f481856134a4565b93506135048185602086016134b5565b61350d8161312e565b840191505092915050565b7f4e487b7100000000000000000000000000000000000000000000000000000000600052602160045260246000fd5b600b811061355857613557613518565b5b50565b600081905061356982613547565b919050565b60006135798261355b565b9050919050565b6135898161356e565b82525050565b613598816133f8565b82525050565b6000610120820190506135b4600083018c6130ec565b6135c1602083018b6130ec565b6135ce604083018a6130ec565b81810360608301526135e081896134df565b90506135ef60808301886130ec565b6135fc60a08301876130ec565b61360960c0830186613580565b61361660e083018561358f565b61362461010083018461358f565b9a9950505050505050505050565b600060e082019050613647600083018a6130ec565b61365460208301896130ec565b613661604083018861358f565b61366e606083018761358f565b818103608083015261368081866134df565b905081810360a083015261369481856134df565b90506136a360c08301846130ec565b98975050505050505050565b60006020820190506136c4600083018461358f565b92915050565b7f4e487b7100000000000000000000000000000000000000000000000000000000600052601160045260246000fd5b600061370482613089565b915061370f83613089565b9250828201905080821115613727576137266136ca565b5b92915050565b7f4e487b7100000000000000000000000000000000000000000000000000000000600052602260045260246000fd5b6000600282049050600182168061377457607f821691505b6020821081036137875761378661372d565b5b50919050565b60008190508160005260206000209050919050565b60006020601f8301049050919050565b600082821b905092915050565b6000600883026137ef7fffffffffffffffffffffffffffffffffffffffffffffffffffffffffffffffff826137b2565b6137f986836137b2565b95508019841693508086168417925050509392505050565b6000819050919050565b600061383661383161382c84613089565b613811565b613089565b9050919050565b6000819050919050565b6138508361381b565b61386461385c8261383d565b8484546137bf565b825550505050565b600090565b61387961386c565b613884818484613847565b505050565b5b818110156138a85761389d600082613871565b60018101905061388a565b5050565b601f8211156138ed576138be8161378d565b6138c7846137a2565b810160208510156138d6578190505b6138ea6138e2856137a2565b830182613889565b50505b505050565b600082821c905092915050565b6000613910600019846008026138f2565b1980831691505092915050565b600061392983836138ff565b9150826002028217905092915050565b61394282613499565b67ffffffffffffffff81111561395b5761395a61313f565b5b613965825461375c565b6139708282856138ac565b600060209050601f8311600181146139a35760008415613991578287015190505b61399b858261391d565b865550613a03565b601f1984166139b18661378d565b60005b828110156139d9578489015182556001820191506020850194506020810190506139b4565b868310156139f657848901516139f2601f8916826138ff565b8355505b6001600288020188555050505b505050505050565b6000602082019050613a2060008301846130ec565b92915050565b6000613a3182613089565b9150613a3c83613089565b9250828203905081811115613a5457613a536136ca565b5b92915050565b7f4f776e61626c653a206e6577206f776e657220697320746865207a65726f206160008201527f6464726573730000000000000000000000000000000000000000000000000000602082015250565b6000613ab66026836134a4565b9150613ac182613a5a565b604082019050919050565b60006020820190508181036000830152613ae581613aa9565b9050919050565b7f4f776e61626c653a2063616c6c6572206973206e6f7420746865206f776e6572600082015250565b6000613b226020836134a4565b9150613b2d82613aec565b602082019050919050565b60006020820190508181036000830152613b5181613b15565b905091905056fea2646970667358221220e9ca8e09a80a43775fbc1ed7edad47453ebf6ca4dd9bdc26f914ed3d5ab79ba264736f6c63430008110033",
  "immutableReferences": {},
  "source": "// SPDX-License-Identifier: GPL-3.0\r\nimport \"./Ownable.sol\";\r\nimport \"./FarmerRole.sol\";\r\nimport \"./DistributorRole.sol\";\r\nimport \"./RetailerRole.sol\";\r\nimport \"./Roles.sol\";\r\nimport \"./Context.sol\";\r\n\r\npragma solidity >= 0.5.0 < 0.9.0;\r\n\r\ncontract main is\r\n    Ownable,\r\n    FarmerRole,\r\n    DistributorRole,\r\n    RetailerRole\r\n{\r\n//   struct Farmer{\r\n//         uint f_id;\r\n//         string f_name;\r\n//         string f_email;\r\n//         uint f_phone;\r\n//         string f_password;\r\n//         string f_location;\r\n//     }\r\n\r\n//     struct Distributor{\r\n//         uint d_id;\r\n//         string d_name;\r\n//         string d_email;\r\n//         uint d_phone;\r\n//         string d_password;\r\n//         string d_location;\r\n//     }\r\n\r\n//     struct Retailer{\r\n//         uint r_id;\r\n//         string r_name;\r\n//         string r_email;\r\n//         uint r_phone;\r\n//         string r_password;\r\n//         string r_location;\r\n//     }\r\n\r\n//     struct Product{\r\n//         uint batch_id;\r\n//         uint productId;\r\n//         string productName;\r\n//         string desc;\r\n//         string productType;\r\n//         string farmer;\r\n//         string distributor;\r\n//         string retailer;\r\n//         string date_of_harvest;\r\n//         address payable distribute;\r\n//         address payable retail;\r\n//     }\r\n    // uint counter = 1;\r\n    // Product[] public products;\r\n\r\n    //@Modified Code starts from heree ------->\r\n\r\n    address owner;\r\n    // Define a variable called 'productCode' for Universal Product Code (productCode)\r\n    uint256 productCode;\r\n    // Define a variable called 'stockUnit' for Stock Keeping Unit (stockUnit)\r\n    uint256 stockUnit;\r\n    // Define a public mapping 'items' that maps the productCode to an Item.\r\n    mapping(uint256 => Item) items;\r\n    // Define a public mapping 'itemsHistory' that maps the productCode to an array of TxHash,\r\n    // that track its journey through the supply chain -- to be sent from DApp.\r\n    mapping(uint256 => Txblocks) itemsHistory;\r\n\r\n    enum Modified {\r\n        CropRegistered,\r\n        ForSaleByFarmer,\r\n        PurchasedByDistributor,\r\n        ShippedByFarmer, // 3\r\n        ReceivedByDistributor, // 4\r\n        ProcessedByDistributor, // 6\r\n        ForSaleByDistributor, // 7\r\n        PurchasedByRetailer, // 8\r\n        ShippedByDistributor, // 9\r\n        ReceivedByRetailer, // 10\r\n        ForSaleByRetailer\r\n    }\r\n\r\n    Modified constant defaultState = Modified.CropRegistered;\r\n\r\n    struct Item {\r\n        uint256 stockUnit; // Stock Keeping Unit (stockUnit)\r\n        uint256 productCode; // Universal Product Code (productCode), generated by the Farmer, goes on the package, can be verified by the Consumer\r\n        address ownerID; // Metamask-Ethereum address of the current owner as the product moves through 8 stages\r\n        address farmerID; // Metamask-Ethereum address of the Farmer // ADDED PAYABLE\r\n        string farmName; // Farmer Name\r\n        string productDescription; // product Description \r\n        uint256 productID; // Product ID potentially a combination of productCode + stockUnit\r\n        string productType; // Product types\r\n        string productName;\r\n        uint256 productDate; // Product Date NOTE: MIGHT NEED TO CHANGE type\r\n        uint256 productPrice; // Product Price\r\n        Modified itemState; // Product State as represented in the enum above\r\n        address distributorID; // Metamask-Ethereum address of the Distributor\r\n        address retailerID; // Metamask-Ethereum address of the Retailer\r\n        string distName;\r\n        string retailName;\r\n\r\n    }\r\n\r\n    // Block number stuct\r\n    struct Txblocks {\r\n        uint256 FTD; // blockfarmerToDistributor\r\n        uint256 DTR; // blockDistributorToRetailer\r\n    }\r\n\r\n    event CropRegistered(uint256 productCode); //1\r\n    event ForSaleByFarmer(uint256 productCode); //2\r\n    event PurchasedByDistributor(uint256 productCode); //3\r\n    event ShippedByFarmer(uint256 productCode); //4\r\n    event ReceivedByDistributor(uint256 productCode); //5\r\n    event ProcessedByDistributor(uint256 productCode); //6\r\n    event ForSaleByDistributor(uint256 productCode); //7\r\n    event PurchasedByRetailer(uint256 productCode); //8\r\n    event ShippedByDistributor(uint256 productCode); //9\r\n    event ReceivedByRetailer(uint256 productCode); //10\r\n    event ForSaleByRetailer(uint256 productCode); //11\r\n\r\n    // Define a modifer that checks to see if _msgSender() == owner of the contract\r\n    modifier only_Owner() {\r\n        require(_msgSender() == owner);\r\n        _;\r\n    }\r\n\r\n    // Define a modifer that verifies the Caller\r\n    modifier verifyCaller(address _address) {\r\n        require(_msgSender() == _address);\r\n        _;\r\n    }\r\n\r\n    // Define a modifier that checks if the paid amount is sufficient to cover the price\r\n    modifier paidEnough(uint256 _price) {\r\n        require(msg.value >= _price);\r\n        _;\r\n    }\r\n\r\n    // Define a modifier that checks the price and refunds the remaining balance\r\n    modifier checkValue(uint256 _productCode, address payable addressToFund) {\r\n        uint256 _price = items[_productCode].productPrice;\r\n        uint256 amountToReturn = msg.value - _price;\r\n        addressToFund.transfer(amountToReturn);\r\n        _;\r\n    }\r\n\r\n\r\n    //Item State Modifiers\r\n    modifier producedByFarmer(uint256 _productCode) {\r\n        require(items[_productCode].itemState == Modified.CropRegistered);\r\n        _;\r\n    }\r\n\r\n    modifier forSaleByFarmer(uint256 _productCode) {\r\n        require(items[_productCode].itemState == Modified.ForSaleByFarmer);\r\n        _;\r\n    }\r\n\r\n    modifier purchasedByDistributor(uint256 _productCode) {\r\n        require(items[_productCode].itemState == Modified.PurchasedByDistributor);\r\n        _;\r\n    }\r\n\r\n    modifier shippedByFarmer(uint256 _productCode) {\r\n        require(items[_productCode].itemState == Modified.ShippedByFarmer);\r\n        _;\r\n    }\r\n\r\n    modifier receivedByDistributor(uint256 _productCode) {\r\n        require(items[_productCode].itemState == Modified.ReceivedByDistributor);\r\n        _;\r\n    }\r\n\r\n      modifier processByDistributor(uint256 _productCode) {\r\n        require(items[_productCode].itemState == Modified.ProcessedByDistributor);\r\n        _;\r\n    }\r\n\r\n    modifier forSaleByDistributor(uint256 _productCode) {\r\n        require(items[_productCode].itemState == Modified.ForSaleByDistributor);\r\n        _;\r\n    }\r\n\r\n    modifier shippedByDistributor(uint256 _productCode) {\r\n        require(items[_productCode].itemState == Modified.ShippedByDistributor);\r\n        _;\r\n    }\r\n\r\n    modifier purchasedByRetailer(uint256 _productCode) {\r\n        require(items[_productCode].itemState == Modified.PurchasedByRetailer);\r\n        _;\r\n    }\r\n\r\n    modifier receivedByRetailer(uint256 _productCode) {\r\n        require(items[_productCode].itemState == Modified.ReceivedByRetailer);\r\n        _;\r\n    }\r\n\r\n    modifier forSaleByRetailer(uint256 _productCode) {\r\n        require(items[_productCode].itemState == Modified.ForSaleByRetailer);\r\n        _;\r\n    }\r\n\r\n    // constructor setup owner stockUnit productCode\r\n    constructor() public payable {\r\n        owner = _msgSender();\r\n        stockUnit = 1;\r\n        productCode = 1;\r\n    }\r\n\r\n    // Define a function 'kill'\r\n    function kill() public {\r\n        if (_msgSender() == owner) {\r\n            address payable ownerAddressPayable = _make_payable(owner);\r\n            selfdestruct(ownerAddressPayable);\r\n        }\r\n    }\r\n\r\n    // allows you to convert an address into a payable address\r\n    function _make_payable(address x) internal pure returns (address payable) {\r\n        return payable(address(uint160(x)));\r\n    }\r\n\r\n\r\n/*\r\n 1st step in supplychain\r\n Allows farmer to create product\r\n*/\r\n    function cropRegisteredByFarmer(\r\n        uint256 _productCode,\r\n        string memory _productName,\r\n        string memory _productType, \r\n        string memory _productDescription,\r\n        string memory _productDate,\r\n        string memory _farmName,\r\n        uint256 _price\r\n    )\r\n        public onlyFarmer \r\n    {\r\n        address distributorID; // Empty distributorID address\r\n        address retailerID; // Empty retailerID address\r\n       \r\n        Item memory newProduce; // Create a new struct Item in memory\r\n        newProduce.stockUnit = stockUnit; // Stock Keeping Unit (stockUnit)\r\n        newProduce.productCode = _productCode; // Universal Product Code (productCode), generated by the Farmer, goes on the package, can be verified by the Consumer\r\n        newProduce.ownerID = _msgSender(); // Metamask-Ethereum address of the current owner as the product moves through 8 stages\r\n        newProduce.farmerID = _msgSender(); // Metamask-Ethereum address of the Farmer\r\n        newProduce.farmName = _farmName; // Farmer Name\r\n        newProduce.productDescription = _productDescription; // Product Decription Information\r\n       \r\n        newProduce.productID = _productCode + stockUnit; // Product ID\r\n        newProduce.productType = _productType; // Product Type\r\n        newProduce.productPrice = _price; // Product Price\r\n        newProduce.productDate = block.timestamp;\r\n        \r\n        newProduce.itemState = defaultState; // Product State as represented in the enum above\r\n        newProduce.distributorID = distributorID; // Metamask-Ethereum address of the Distributor\r\n        newProduce.retailerID = retailerID; // Metamask-Ethereum address of the Retailer\r\n       \r\n        items[_productCode] = newProduce; // Add newProduce to items struct by productCode\r\n        uint256 placeholder; // Block number place holder\r\n        Txblocks memory txBlock; // create new txBlock struct\r\n        txBlock.FTD = placeholder; // assign placeholder values\r\n        txBlock.DTR = placeholder;\r\n        \r\n        itemsHistory[_productCode] = txBlock; // add txBlock to itemsHistory mapping by productCode\r\n\r\n        // Increment stockUnit\r\n        stockUnit = stockUnit + 1;\r\n\r\n        // Emit the appropriate event\r\n        emit CropRegistered(_productCode);\r\n    }\r\n\r\n/*\r\n2nd step in supplychain\r\nAllows farmer to sell product\r\n*/\r\n    function sellItemByFarmer(uint256 _productCode, uint256 _price)\r\n        public\r\n        onlyFarmer // check _msgSender() belongs to farmerRole\r\n        producedByFarmer(_productCode) // check items state has been produced\r\n        verifyCaller(items[_productCode].ownerID) // check _msgSender() is owner\r\n    {\r\n        items[_productCode].itemState = Modified.ForSaleByFarmer;\r\n        items[_productCode].productPrice = _price;\r\n        emit ForSaleByFarmer(_productCode);\r\n    }\r\n\r\n\r\n/*\r\n3rd step in supplychain\r\nAllows distributor to purchase product\r\n*/\r\n    function purchaseItemByDistributor(uint256 _productCode)\r\n        public\r\n        payable\r\n        onlyDistributor // check _msgSender() belongs to distributorRole\r\n        forSaleByFarmer(_productCode) // check items state is for ForSaleByFarmer\r\n        paidEnough(items[_productCode].productPrice) // check if distributor sent enough Ether for product\r\n        checkValue(_productCode, payable(_msgSender())) // check if overpayed return remaing funds back to _msgSender()\r\n    {\r\n        address payable ownerAddressPayable = _make_payable(\r\n            items[_productCode].farmerID\r\n        ); // make originFarmID payable\r\n        ownerAddressPayable.transfer(items[_productCode].productPrice); // transfer funds from distributor to farmer\r\n        items[_productCode].ownerID = _msgSender(); // update owner\r\n        items[_productCode].distributorID = _msgSender(); // update distributor\r\n        items[_productCode].itemState = Modified.PurchasedByDistributor; // update state\r\n        itemsHistory[_productCode].FTD = block.number; // add block number\r\n        emit PurchasedByDistributor(_productCode);\r\n    }\r\n\r\n /*\r\n  4th step in supplychain\r\n  Allows farmer to ship product purchased by distributor\r\n  */\r\n    function shippedItemByFarmer(uint256 _productCode)\r\n        public\r\n        payable\r\n        onlyFarmer // check _msgSender() belongs to FarmerRole\r\n        purchasedByDistributor(_productCode)\r\n        verifyCaller(items[_productCode].farmerID) // check _msgSender() is originFarmID\r\n    {\r\n        items[_productCode].itemState = Modified.ShippedByFarmer; // update state\r\n        emit ShippedByFarmer(_productCode);\r\n    }\r\n\r\n    /*\r\n  5th step in supplychain\r\n  Allows distributor to receive product\r\n  */\r\n    function receivedItemByDistributor(uint256 _productCode)\r\n        public\r\n        onlyDistributor // check _msgSender() belongs to DistributorRole\r\n        shippedByFarmer(_productCode)\r\n        verifyCaller(items[_productCode].ownerID) // check _msgSender() is owner\r\n    {\r\n        items[_productCode].itemState = Modified.ReceivedByDistributor; // update state\r\n        emit ReceivedByDistributor(_productCode);\r\n    }\r\n\r\n  /*\r\n  6th step in supplychain\r\n  Allows distributor to process product\r\n  */\r\n    function processedItemByDistributor(uint256 _productCode, uint256 slices)\r\n        public\r\n        onlyDistributor // check _msgSender() belongs to DistributorRole\r\n        receivedByDistributor(_productCode)\r\n        verifyCaller(items[_productCode].ownerID) // check _msgSender() is owner\r\n    {\r\n        items[_productCode].itemState = Modified.ProcessedByDistributor; // update state\r\n        \r\n        emit ProcessedByDistributor(_productCode);\r\n    }\r\n\r\n/*\r\n  8th step in supplychain\r\n  Allows distributor to sell product\r\n  */\r\n    function sellItemByDistributor(uint256 _productCode, uint256 _price)\r\n        public\r\n        onlyDistributor // check _msgSender() belongs to DistributorRole\r\n        processByDistributor(_productCode)\r\n        verifyCaller(items[_productCode].ownerID) // check _msgSender() is owner\r\n    {\r\n        items[_productCode].itemState = Modified.ForSaleByDistributor;\r\n        items[_productCode].productPrice = _price;\r\n        emit ForSaleByDistributor(_productCode);\r\n    }\r\n\r\n\r\n    /*\r\n  9th step in supplychain\r\n  Allows retailer to purchase product\r\n  */\r\n    function purchaseItemByRetailer(uint256 _productCode)\r\n        public\r\n        payable\r\n        onlyRetailer // check _msgSender() belongs to RetailerRole\r\n        forSaleByDistributor(_productCode)\r\n        paidEnough(items[_productCode].productPrice)\r\n        checkValue(_productCode, payable(_msgSender()))\r\n    {\r\n        address payable ownerAddressPayable = _make_payable(\r\n            items[_productCode].distributorID\r\n        );\r\n        ownerAddressPayable.transfer(items[_productCode].productPrice);\r\n        items[_productCode].ownerID = _msgSender();\r\n        items[_productCode].retailerID = _msgSender();\r\n        items[_productCode].itemState = Modified.PurchasedByRetailer;\r\n        itemsHistory[_productCode].DTR = block.number;\r\n        emit PurchasedByRetailer(_productCode);\r\n    }\r\n\r\n\r\n    /*\r\n  10th step in supplychain\r\n  Allows Distributor to\r\n  */\r\n    function shippedItemByDistributor(uint256 _productCode)\r\n        public\r\n        onlyDistributor // check _msgSender() belongs to DistributorRole\r\n        purchasedByRetailer(_productCode)\r\n        verifyCaller(items[_productCode].distributorID) // check _msgSender() is distributorID\r\n    {\r\n        items[_productCode].itemState = Modified.ShippedByDistributor;\r\n        emit ShippedByDistributor(_productCode);\r\n    }\r\n\r\n    /*\r\n  11th step in supplychain\r\n  */\r\n    function receivedItemByRetailer(uint256 _productCode)\r\n        public\r\n        onlyRetailer // check _msgSender() belongs to RetailerRole\r\n        shippedByDistributor(_productCode)\r\n        verifyCaller(items[_productCode].ownerID) // check _msgSender() is ownerID\r\n    {\r\n        items[_productCode].itemState = Modified.ReceivedByRetailer;\r\n        emit ReceivedByRetailer(_productCode);\r\n    }\r\n\r\n  /*\r\n  12th step in supplychain\r\n  */\r\n    function sellItemByRetailer(uint256 _productCode, uint256 _price)\r\n        public\r\n        onlyRetailer // check _msgSender() belongs to RetailerRole\r\n        receivedByRetailer(_productCode)\r\n        verifyCaller(items[_productCode].ownerID) // check _msgSender() is ownerID\r\n    {\r\n        items[_productCode].itemState = Modified.ForSaleByRetailer;\r\n        items[_productCode].productPrice = _price;\r\n        emit ForSaleByRetailer(_productCode);\r\n    }\r\n\r\n    // Define a function 'fetchItemBufferOne' that fetches the data\r\n    function fetchItemBufferOne(uint256 _productCode)\r\n        public\r\n        view\r\n        returns (\r\n            uint256 itemstockUnit,\r\n            uint256 itemproductCode,\r\n            address ownerID,\r\n            address farmerID,\r\n            string memory farmName,\r\n            string memory productDescription,\r\n            uint256 productDate\r\n        )\r\n     {\r\n        // Assign values to the 8 parameters\r\n        Item memory item = items[_productCode];\r\n\r\n        return (\r\n            item.stockUnit,\r\n            item.productCode,\r\n            item.ownerID,\r\n            item.farmerID,\r\n            item.farmName,\r\n            item.productDescription,\r\n            item.productDate\r\n        );\r\n    }\r\n\r\n    // Define a function 'fetchItemBufferTwo' that fetches the data\r\n    function fetchItemBufferTwo(uint256 _productCode)\r\n        public\r\n        view\r\n        returns (\r\n            uint256 itemstockUnit,\r\n            uint256 itemproductCode,\r\n            uint256 productID,\r\n            string memory productType,\r\n            uint256 productPrice,\r\n            uint256 productDate,\r\n            Modified itemState,\r\n            address distributorID,\r\n            address retailerID\r\n        )\r\n    {\r\n        // Assign values to the 9 parameters\r\n        Item memory item = items[_productCode];\r\n\r\n        return (\r\n            item.stockUnit,\r\n            item.productCode,\r\n            item.productID,\r\n            item.productType,\r\n            item.productPrice,\r\n            item.productDate,\r\n            item.itemState,\r\n            item.distributorID,\r\n            item.retailerID\r\n        );\r\n    }\r\n\r\n\r\n    // Define a function 'fetchItemHistory' that fetaches the data\r\n    function fetchitemHistory(uint256 _productCode)\r\n        public\r\n        view\r\n        returns (\r\n            uint256 blockfarmerToDistributor,\r\n            uint256 blockDistributorToRetailer\r\n        )\r\n    {\r\n        // Assign value to the parameters\r\n        Txblocks memory txblock = itemsHistory[_productCode];\r\n        return (txblock.FTD, txblock.DTR);\r\n    }\r\n\r\n\r\n\r\n    // Farmer public farmer;\r\n    // Distributor public distributor;\r\n    // Retailer public retailer;\r\n    // Product public product;\r\n\r\n    // enum State{\r\n    //     allowed,\r\n    //     not_allowed,\r\n    //     wait\r\n    // }\r\n\r\n    // State public farmerState = State.allowed;\r\n    // State public DistributorState = State.not_allowed;\r\n    // State public RetailerState = State.not_allowed;\r\n\r\n    // string public product_name;\r\n    // string public product_type;\r\n    // string public description;\r\n    // string public dateofharvest;\r\n\r\n// ---------------------------------------Farmer Section-----------------------------------//\r\n\r\n    // function farmerDetails(\r\n    //     uint _fid, \r\n    //     string memory _fname, \r\n    //     string memory _femail,\r\n    //     string memory _flocation, \r\n    //     uint _fphone, \r\n    //     string memory _fpass\r\n    //     ) public {\r\n    //         farmer.f_id = _fid;\r\n    //         farmer.f_name = _fname;\r\n    //         farmer.f_email = _femail;\r\n    //         farmer.f_location = _flocation;\r\n    //         farmer.f_phone = _fphone;\r\n    //         farmer.f_password = _fpass;\r\n    // }\r\n\r\n\r\n    // function cropRegistration(\r\n    //     string memory productname,\r\n    //     string memory producttype, \r\n    //     string memory descript,\r\n    //     string memory doh\r\n    //     ) public returns(\r\n    //         string memory, \r\n    //         uint, \r\n    //         string memory,\r\n    //         string memory, \r\n    //         string memory,\r\n    //         string memory, \r\n    //         string memory\r\n    //         ){\r\n\r\n    //         string memory farmername = farmer.f_name;\r\n    //         uint farmerphone = farmer.f_phone;   \r\n    //         string memory farmerlocation = farmer.f_location;\r\n            \r\n    //         product_name = productname;\r\n    //         product_type = producttype;\r\n    //         description = descript; \r\n    //         dateofharvest = doh;\r\n             \r\n    //         return (farmername, farmerphone, dateofharvest, farmerlocation, product_name, product_type, description);        \r\n    // }\r\n\r\n    // function addFarmertoProduct() public returns(string memory){\r\n    //     if(farmerState == State.allowed){\r\n    //         product.productName = product_name;\r\n    //         product.productType = product_type;\r\n    //         product.desc = description;\r\n    //         product.farmer = farmer.f_name;\r\n    //         product.date_of_harvest = dateofharvest;\r\n    //         return(\"Farmer Details are Updated Successfully!!!\");\r\n    //     }\r\n    //     else{\r\n    //         revert(\"Something went wrong in Farmer's state\");\r\n    //     }\r\n    // }\r\n\r\n    // function soldtoDistrubutor() public returns(string memory){\r\n    //     if(farmerState == State.allowed){\r\n    //         product.distributor = distributor.d_name;\r\n    //         DistributorState = State.allowed;\r\n    //         return(\"Farmer Sold product to Distributor Successfully!!!!\"); \r\n    //     }\r\n    //     else{\r\n    //         revert(\"Transaction between farmer and distributor not happened\");\r\n    //     }\r\n    // }\r\n\r\n\r\n//-------------------------------Distributer Section------------------------//\r\n\r\n    // function distributorDetails(\r\n    //     uint did,\r\n    //     string memory dname, \r\n    //     string memory demail, \r\n    //     string memory dlocation, \r\n    //     uint dphone, \r\n    //     string memory dpassword\r\n    //     ) public{\r\n    //         uint d_id = did;\r\n    //         string memory d_name = dname;\r\n    //         string memory d_email = demail;\r\n    //         string memory d_location = dlocation;\r\n    //         uint d_phone = dphone;\r\n    //         string memory d_password = dpassword;\r\n\r\n    //         distributor.d_id = d_id;\r\n    //         distributor.d_name = d_name;\r\n    //         distributor.d_email = d_email;\r\n    //         distributor.d_location = d_location;\r\n    //         distributor.d_phone = d_phone;\r\n    //         distributor.d_password = d_password;\r\n\r\n    // }\r\n\r\n    // function distributorBatch(uint batchId) public returns(string memory){\r\n    //     if(DistributorState == State.allowed && farmerState == State.allowed ){\r\n    //         product.batch_id = batchId;\r\n    //         DistributorState = State.wait;\r\n    //         return(\"Batch Id is assigned to the product\");    \r\n    //     }\r\n    //     else{\r\n    //         revert(\"Not Assigned Batch ID\");\r\n    //     }\r\n    // }\r\n\r\n    // function selltoRetailer() public returns(string memory){\r\n    //     if(DistributorState == State.wait && farmerState == State.allowed){\r\n    //         product.retailer = retailer.r_name;\r\n    //         RetailerState = State.allowed;\r\n    //         return(\"Distributor sold product to retailer\");\r\n    //     }\r\n    //     else{\r\n    //         revert(\"Transaction between distributor and retailer not happened\");\r\n    //     }\r\n    // }\r\n    \r\n\r\n//---------------------------------------------------retailerDetails--------------------------------------//\r\n\r\n    // function retailerDetails(\r\n    //     uint rid, \r\n    //     string memory rname, \r\n    //     string memory remail, \r\n    //     string memory rlocation, \r\n    //     uint rphone, \r\n    //     string memory rpassword\r\n    //     ) public{\r\n    //         uint r_id = rid;\r\n    //         string memory r_name = rname;\r\n    //         string memory r_email = remail;\r\n    //         string memory r_location = rlocation;\r\n    //         uint r_phone = rphone;\r\n    //         string memory r_password = rpassword;\r\n\r\n    //         retailer.r_id = r_id;\r\n    //         retailer.r_name = r_name;\r\n    //         retailer.r_email = r_email;\r\n    //         retailer.r_location = r_location;\r\n    //         retailer.r_phone = r_phone;\r\n    //         retailer.r_password = r_password;\r\n\r\n    // }\r\n\r\n//-----------------------------------------------------Product-------------------------------------------------------//\r\n\r\n    // function productResult() public view returns(\r\n    //     uint, \r\n    //     string memory, \r\n    //     string memory, \r\n    //     string memory,\r\n    //     string memory, \r\n    //     string memory, \r\n    //     string memory, \r\n    //     string memory\r\n    //     ){  return(\r\n    //         product.batch_id,\r\n    //         product.productName,\r\n    //         product.desc,\r\n    //         product.productType,\r\n    //         product.date_of_harvest,\r\n    //         product.farmer,\r\n    //         product.distributor,\r\n    //         product.retailer\r\n    //     );\r\n    // }\r\n\r\n//--------------------------------------------sample-----------------\r\n\r\n    // address payable user = payable(0x5B38Da6a701c568545dCfcB03FcB875f56beddC4);\r\n    \r\n\r\n}",
  "sourcePath": "D:\\Code\\Blockchain\\Final-year-project\\contracts\\main.sol",
  "compiler": {
    "name": "solc",
    "version": "0.8.17+commit.8df45f5f.Emscripten.clang"
  },
  "schemaVersion": "3.4.10",
  "updatedAt": "2023-04-01T05:52:03.903Z",
  "networkType": "ethereum",
  "devdoc": {
    "kind": "dev",
    "methods": {},
    "version": 1
  },
  "userdoc": {
    "kind": "user",
    "methods": {
      "ownerLookup()": {
        "notice": "Look up the address of the owner"
      },
      "renounceOwnership()": {
        "notice": "Define a function to renounce ownerhip"
      },
      "transferOwnership(address)": {
        "notice": "Define a public function to transfer ownership"
      }
    },
    "version": 1
  }
}