{
  "contractName": "main",
  "abi": [
    {
      "inputs": [],
      "stateMutability": "payable",
      "type": "constructor"
    },
    {
      "anonymous": false,
      "inputs": [
        {
          "indexed": false,
          "internalType": "uint256",
          "name": "productCode",
          "type": "uint256"
        }
      ],
      "name": "CropRegistered",
      "type": "event"
    },
    {
      "anonymous": false,
      "inputs": [
        {
          "indexed": true,
          "internalType": "address",
          "name": "account",
          "type": "address"
        }
      ],
      "name": "DistributorAdded",
      "type": "event"
    },
    {
      "anonymous": false,
      "inputs": [
        {
          "indexed": true,
          "internalType": "address",
          "name": "account",
          "type": "address"
        }
      ],
      "name": "DistributorRemoved",
      "type": "event"
    },
    {
      "anonymous": false,
      "inputs": [
        {
          "indexed": false,
          "internalType": "uint256",
          "name": "id",
          "type": "uint256"
        },
        {
          "indexed": false,
          "internalType": "uint256",
          "name": "productCode",
          "type": "uint256"
        },
        {
          "indexed": false,
          "internalType": "string",
          "name": "productName",
          "type": "string"
        },
        {
          "indexed": false,
          "internalType": "string",
          "name": "retailName",
          "type": "string"
        },
        {
          "indexed": false,
          "internalType": "uint256",
          "name": "batches",
          "type": "uint256"
        },
        {
          "indexed": false,
          "internalType": "string",
          "name": "timestamp",
          "type": "string"
        },
        {
          "indexed": false,
          "internalType": "uint256",
          "name": "price",
          "type": "uint256"
        }
      ],
      "name": "DistributorTransaction",
      "type": "event"
    },
    {
      "anonymous": false,
      "inputs": [
        {
          "indexed": true,
          "internalType": "address",
          "name": "account",
          "type": "address"
        }
      ],
      "name": "FarmerAdded",
      "type": "event"
    },
    {
      "anonymous": false,
      "inputs": [
        {
          "indexed": true,
          "internalType": "address",
          "name": "account",
          "type": "address"
        }
      ],
      "name": "FarmerRemoved",
      "type": "event"
    },
    {
      "anonymous": false,
      "inputs": [
        {
          "indexed": false,
          "internalType": "uint256",
          "name": "id",
          "type": "uint256"
        },
        {
          "indexed": false,
          "internalType": "uint256",
          "name": "productCode",
          "type": "uint256"
        },
        {
          "indexed": false,
          "internalType": "string",
          "name": "productName",
          "type": "string"
        },
        {
          "indexed": false,
          "internalType": "string",
          "name": "distName",
          "type": "string"
        },
        {
          "indexed": false,
          "internalType": "string",
          "name": "quantity",
          "type": "string"
        },
        {
          "indexed": false,
          "internalType": "string",
          "name": "timestamp",
          "type": "string"
        },
        {
          "indexed": false,
          "internalType": "uint256",
          "name": "price",
          "type": "uint256"
        }
      ],
      "name": "FarmerTransaction",
      "type": "event"
    },
    {
      "anonymous": false,
      "inputs": [
        {
          "indexed": true,
          "internalType": "address",
          "name": "previousOwner",
          "type": "address"
        },
        {
          "indexed": true,
          "internalType": "address",
          "name": "newOwner",
          "type": "address"
        }
      ],
      "name": "OwnershipTransferred",
      "type": "event"
    },
    {
      "anonymous": false,
      "inputs": [
        {
          "indexed": true,
          "internalType": "address",
          "name": "account",
          "type": "address"
        }
      ],
      "name": "RetailerAdded",
      "type": "event"
    },
    {
      "anonymous": false,
      "inputs": [
        {
          "indexed": true,
          "internalType": "address",
          "name": "account",
          "type": "address"
        }
      ],
      "name": "RetailerRemoved",
      "type": "event"
    },
    {
      "inputs": [
        {
          "internalType": "address",
          "name": "account",
          "type": "address"
        }
      ],
      "name": "addDistributor",
      "outputs": [],
      "stateMutability": "nonpayable",
      "type": "function"
    },
    {
      "inputs": [
        {
          "internalType": "address",
          "name": "account",
          "type": "address"
        }
      ],
      "name": "addFarmer",
      "outputs": [],
      "stateMutability": "nonpayable",
      "type": "function"
    },
    {
      "inputs": [
        {
          "internalType": "address",
          "name": "account",
          "type": "address"
        }
      ],
      "name": "addRetailer",
      "outputs": [],
      "stateMutability": "nonpayable",
      "type": "function"
    },
    {
      "inputs": [
        {
          "internalType": "address",
          "name": "account",
          "type": "address"
        }
      ],
      "name": "isDistributor",
      "outputs": [
        {
          "internalType": "bool",
          "name": "",
          "type": "bool"
        }
      ],
      "stateMutability": "view",
      "type": "function"
    },
    {
      "inputs": [
        {
          "internalType": "address",
          "name": "account",
          "type": "address"
        }
      ],
      "name": "isFarmer",
      "outputs": [
        {
          "internalType": "bool",
          "name": "",
          "type": "bool"
        }
      ],
      "stateMutability": "view",
      "type": "function"
    },
    {
      "inputs": [],
      "name": "isOwner",
      "outputs": [
        {
          "internalType": "address",
          "name": "",
          "type": "address"
        }
      ],
      "stateMutability": "view",
      "type": "function"
    },
    {
      "inputs": [
        {
          "internalType": "address",
          "name": "account",
          "type": "address"
        }
      ],
      "name": "isRetailer",
      "outputs": [
        {
          "internalType": "bool",
          "name": "",
          "type": "bool"
        }
      ],
      "stateMutability": "view",
      "type": "function"
    },
    {
      "inputs": [],
      "name": "noteCount",
      "outputs": [
        {
          "internalType": "uint256",
          "name": "",
          "type": "uint256"
        }
      ],
      "stateMutability": "view",
      "type": "function"
    },
    {
      "inputs": [],
      "name": "ownerLookup",
      "outputs": [
        {
          "internalType": "address",
          "name": "",
          "type": "address"
        }
      ],
      "stateMutability": "view",
      "type": "function"
    },
    {
      "inputs": [],
      "name": "renounceDistributor",
      "outputs": [],
      "stateMutability": "nonpayable",
      "type": "function"
    },
    {
      "inputs": [],
      "name": "renounceFarmer",
      "outputs": [],
      "stateMutability": "nonpayable",
      "type": "function"
    },
    {
      "inputs": [],
      "name": "renounceOwnership",
      "outputs": [],
      "stateMutability": "nonpayable",
      "type": "function"
    },
    {
      "inputs": [],
      "name": "renounceRetailer",
      "outputs": [],
      "stateMutability": "nonpayable",
      "type": "function"
    },
    {
      "inputs": [
        {
          "internalType": "address",
          "name": "newOwner",
          "type": "address"
        }
      ],
      "name": "transferOwnership",
      "outputs": [],
      "stateMutability": "nonpayable",
      "type": "function"
    },
    {
      "inputs": [],
      "name": "kill",
      "outputs": [],
      "stateMutability": "nonpayable",
      "type": "function"
    },
    {
      "inputs": [
        {
          "internalType": "uint256",
          "name": "_productCode",
          "type": "uint256"
        },
        {
          "internalType": "string",
          "name": "_productName",
          "type": "string"
        },
        {
          "internalType": "string",
          "name": "_productType",
          "type": "string"
        },
        {
          "internalType": "string",
          "name": "_productDescription",
          "type": "string"
        },
        {
          "internalType": "string",
          "name": "_productDate",
          "type": "string"
        },
        {
          "internalType": "string",
          "name": "_farmName",
          "type": "string"
        },
        {
          "internalType": "uint256",
          "name": "_price",
          "type": "uint256"
        }
      ],
      "name": "cropRegisteredByFarmer",
      "outputs": [],
      "stateMutability": "nonpayable",
      "type": "function"
    },
    {
      "inputs": [
        {
          "internalType": "uint256",
          "name": "_id",
          "type": "uint256"
        },
        {
          "internalType": "uint256",
          "name": "_productCode",
          "type": "uint256"
        },
        {
          "internalType": "string",
          "name": "_productName",
          "type": "string"
        },
        {
          "internalType": "string",
          "name": "_distName",
          "type": "string"
        },
        {
          "internalType": "string",
          "name": "_quantity",
          "type": "string"
        },
        {
          "internalType": "string",
          "name": "_timestamp",
          "type": "string"
        },
        {
          "internalType": "uint256",
          "name": "_price",
          "type": "uint256"
        }
      ],
      "name": "transactionByFarmer",
      "outputs": [],
      "stateMutability": "nonpayable",
      "type": "function"
    },
    {
      "inputs": [
        {
          "internalType": "uint256",
          "name": "_id",
          "type": "uint256"
        },
        {
          "internalType": "uint256",
          "name": "_productCode",
          "type": "uint256"
        },
        {
          "internalType": "string",
          "name": "_productName",
          "type": "string"
        },
        {
          "internalType": "string",
          "name": "_retailName",
          "type": "string"
        },
        {
          "internalType": "uint256",
          "name": "_batches",
          "type": "uint256"
        },
        {
          "internalType": "string",
          "name": "_timestamp",
          "type": "string"
        },
        {
          "internalType": "uint256",
          "name": "_price",
          "type": "uint256"
        }
      ],
      "name": "transactionByDistributer",
      "outputs": [],
      "stateMutability": "nonpayable",
      "type": "function"
    }
  ],
  "bytecode": "0x60806040526000600955620000296200001d620000e760201b60201c565b620000ef60201b60201c565b620000496200003d620000e760201b60201c565b620001b360201b60201c565b620000696200005d620000e760201b60201c565b6200021460201b60201c565b620000896200007d620000e760201b60201c565b6200027560201b60201c565b62000099620000e760201b60201c565b600660006101000a81548173ffffffffffffffffffffffffffffffffffffffff021916908373ffffffffffffffffffffffffffffffffffffffff16021790555060016007819055506200041d565b600033905090565b60008060009054906101000a900473ffffffffffffffffffffffffffffffffffffffff169050816000806101000a81548173ffffffffffffffffffffffffffffffffffffffff021916908373ffffffffffffffffffffffffffffffffffffffff1602179055508173ffffffffffffffffffffffffffffffffffffffff168173ffffffffffffffffffffffffffffffffffffffff167f8be0079c531659141344cd1fd0a4f28419497f9722a3daafe3b4186f6b6457e060405160405180910390a35050565b620001ce816001620002d660201b62000bba1790919060201c565b8073ffffffffffffffffffffffffffffffffffffffff167f2e0ded4123377a3c2bc9a26f1717655a129e2f20752924d42e730ec89c83dbd060405160405180910390a250565b6200022f816002620002d660201b62000bba1790919060201c565b8073ffffffffffffffffffffffffffffffffffffffff167fddbf200aa634dc3fb81cfd68583dd1040d1c751d335e1d86b631bde3e977fea860405160405180910390a250565b62000290816003620002d660201b62000bba1790919060201c565b8073ffffffffffffffffffffffffffffffffffffffff167f71ae26cad02663e3d92efd6ec56031a80d74a20c0ab4183faa8bf262261c9baa60405160405180910390a250565b600073ffffffffffffffffffffffffffffffffffffffff168173ffffffffffffffffffffffffffffffffffffffff16036200031057600080fd5b6200032282826200038b60201b60201c565b156200032d57600080fd5b60018260000160008373ffffffffffffffffffffffffffffffffffffffff1673ffffffffffffffffffffffffffffffffffffffff16815260200190815260200160002060006101000a81548160ff0219169083151502179055505050565b60008073ffffffffffffffffffffffffffffffffffffffff168273ffffffffffffffffffffffffffffffffffffffff1603620003c657600080fd5b8260000160008373ffffffffffffffffffffffffffffffffffffffff1673ffffffffffffffffffffffffffffffffffffffff16815260200190815260200160002060009054906101000a900460ff16905092915050565b611e18806200042d6000396000f3fe608060405234801561001057600080fd5b50600436106101165760003560e01c806380c3f96d116100a25780638f32d59b116100715780638f32d59b14610269578063b942906914610287578063db0e6a2f146102b7578063e02e64ea146102c1578063f2fde38b146102df57610116565b806380c3f96d146101f757806380fc0ce4146102135780638ec4f5051461021d5780638f0c86fa1461023957610116565b8063644241db116100e9578063644241db1461018f57806364c7505a146101995780636cf2f191146101b5578063715018a6146101d15780637250e224146101db57610116565b8063117a4aa71461011b578063317a4c761461013757806341c0e1b5146101555780635da09b881461015f575b600080fd5b61013560048036038101906101309190611387565b6102fb565b005b61013f6106e3565b60405161014c91906114c4565b60405180910390f35b61015d6106e9565b005b6101796004803603810190610174919061153d565b61078f565b6040516101869190611585565b60405180910390f35b6101976107ac565b005b6101b360048036038101906101ae91906115a0565b6107be565b005b6101cf60048036038101906101ca91906116b2565b6108e7565b005b6101d9610a04565b005b6101f560048036038101906101f0919061153d565b610a18565b005b610211600480360381019061020c919061153d565b610a3d565b005b61021b610a62565b005b6102376004803603810190610232919061153d565b610a74565b005b610253600480360381019061024e919061153d565b610a99565b6040516102609190611585565b60405180910390f35b610271610ab6565b60405161027e91906117b7565b60405180910390f35b6102a1600480360381019061029c919061153d565b610adf565b6040516102ae9190611585565b60405180910390f35b6102bf610afc565b005b6102c9610b0e565b6040516102d691906117b7565b60405180910390f35b6102f960048036038101906102f4919061153d565b610b37565b005b61030b610306610c65565b610adf565b61031457600080fd5b60008061031f611110565b89816020018181525050610331610c65565b816040019073ffffffffffffffffffffffffffffffffffffffff16908173ffffffffffffffffffffffffffffffffffffffff1681525050610370610c65565b816060019073ffffffffffffffffffffffffffffffffffffffff16908173ffffffffffffffffffffffffffffffffffffffff1681525050848160800181905250868160a00181905250878160e00181905250838161014001818152505042816101200181815250506000816101600190600a8111156103f2576103f16117d2565b5b9081600a811115610406576104056117d2565b5b815250508281610180019073ffffffffffffffffffffffffffffffffffffffff16908173ffffffffffffffffffffffffffffffffffffffff168152505081816101a0019073ffffffffffffffffffffffffffffffffffffffff16908173ffffffffffffffffffffffffffffffffffffffff168152505080600860008c8152602001908152602001600020600082015181600001556020820151816001015560408201518160020160006101000a81548173ffffffffffffffffffffffffffffffffffffffff021916908373ffffffffffffffffffffffffffffffffffffffff16021790555060608201518160030160006101000a81548173ffffffffffffffffffffffffffffffffffffffff021916908373ffffffffffffffffffffffffffffffffffffffff16021790555060808201518160040190816105479190611a18565b5060a082015181600501908161055d9190611a18565b5060c0820151816006015560e082015181600701908161057d9190611a18565b506101008201518160080190816105949190611a18565b50610120820151816009015561014082015181600a015561016082015181600b0160006101000a81548160ff0219169083600a8111156105d7576105d66117d2565b5b021790555061018082015181600b0160016101000a81548173ffffffffffffffffffffffffffffffffffffffff021916908373ffffffffffffffffffffffffffffffffffffffff1602179055506101a082015181600c0160006101000a81548173ffffffffffffffffffffffffffffffffffffffff021916908373ffffffffffffffffffffffffffffffffffffffff1602179055506101c082015181600d0190816106829190611a18565b506101e082015181600e0190816106999190611a18565b5090505060007f36035b711719171c5d396e693e0eb1dc781a6cbfbbdff7f8e883383aaadfc4c18b6040516106ce91906114c4565b60405180910390a15050505050505050505050565b60095481565b600660009054906101000a900473ffffffffffffffffffffffffffffffffffffffff1673ffffffffffffffffffffffffffffffffffffffff1661072a610c65565b73ffffffffffffffffffffffffffffffffffffffff160361078d576000610772600660009054906101000a900473ffffffffffffffffffffffffffffffffffffffff16610c6d565b90508073ffffffffffffffffffffffffffffffffffffffff16ff5b565b60006107a5826003610c7790919063ffffffff16565b9050919050565b6107bc6107b7610c65565b610d08565b565b6040518060e00160405280600954815260200187815260200186815260200185815260200184815260200183815260200182815250600460006009548152602001908152602001600020600082015181600001556020820151816001015560408201518160020190816108319190611a18565b5060608201518160030190816108479190611a18565b50608082015181600401908161085d9190611a18565b5060a08201518160050190816108739190611a18565b5060c082015181600601559050507fdc7748e1a2bb6d1337419da0e36daa28a8971f039ffcaa86aafa5eda0833e1206009548787878787876040516108be9796959493929190611b5e565b60405180910390a1600960008154809291906108d990611c18565b919050555050505050505050565b6040518060e001604052806009548152602001878152602001868152602001858152602001848152602001838152602001828152506005600060095481526020019081526020016000206000820151816000015560208201518160010155604082015181600201908161095a9190611a18565b5060608201518160030190816109709190611a18565b506080820151816004015560a08201518160050190816109909190611a18565b5060c082015181600601559050507fae7fbf7bcf181545cc4caad12a9192df22ca9ce32dfad747678e27985e55d9616009548787878787876040516109db9796959493929190611c60565b60405180910390a1600960008154809291906109f690611c18565b919050555050505050505050565b610a0c610d62565b610a166000610de0565b565b610a28610a23610c65565b610a99565b610a3157600080fd5b610a3a81610ea4565b50565b610a4d610a48610c65565b610adf565b610a5657600080fd5b610a5f81610efe565b50565b610a72610a6d610c65565b610f58565b565b610a84610a7f610c65565b61078f565b610a8d57600080fd5b610a9681610fb2565b50565b6000610aaf826002610c7790919063ffffffff16565b9050919050565b60008060009054906101000a900473ffffffffffffffffffffffffffffffffffffffff16905090565b6000610af5826001610c7790919063ffffffff16565b9050919050565b610b0c610b07610c65565b61100c565b565b60008060009054906101000a900473ffffffffffffffffffffffffffffffffffffffff16905090565b610b3f610d62565b600073ffffffffffffffffffffffffffffffffffffffff168173ffffffffffffffffffffffffffffffffffffffff1603610bae576040517f08c379a0000000000000000000000000000000000000000000000000000000008152600401610ba590611d56565b60405180910390fd5b610bb781610de0565b50565b600073ffffffffffffffffffffffffffffffffffffffff168173ffffffffffffffffffffffffffffffffffffffff1603610bf357600080fd5b610bfd8282610c77565b15610c0757600080fd5b60018260000160008373ffffffffffffffffffffffffffffffffffffffff1673ffffffffffffffffffffffffffffffffffffffff16815260200190815260200160002060006101000a81548160ff0219169083151502179055505050565b600033905090565b6000819050919050565b60008073ffffffffffffffffffffffffffffffffffffffff168273ffffffffffffffffffffffffffffffffffffffff1603610cb157600080fd5b8260000160008373ffffffffffffffffffffffffffffffffffffffff1673ffffffffffffffffffffffffffffffffffffffff16815260200190815260200160002060009054906101000a900460ff16905092915050565b610d1c81600261106690919063ffffffff16565b8073ffffffffffffffffffffffffffffffffffffffff167f126174f6cf49c81cdb4a9214c6b8f037bef55b4ec31e4fc776cea2a1c8a88d5960405160405180910390a250565b610d6a610ab6565b73ffffffffffffffffffffffffffffffffffffffff16610d88610c65565b73ffffffffffffffffffffffffffffffffffffffff1614610dde576040517f08c379a0000000000000000000000000000000000000000000000000000000008152600401610dd590611dc2565b60405180910390fd5b565b60008060009054906101000a900473ffffffffffffffffffffffffffffffffffffffff169050816000806101000a81548173ffffffffffffffffffffffffffffffffffffffff021916908373ffffffffffffffffffffffffffffffffffffffff1602179055508173ffffffffffffffffffffffffffffffffffffffff168173ffffffffffffffffffffffffffffffffffffffff167f8be0079c531659141344cd1fd0a4f28419497f9722a3daafe3b4186f6b6457e060405160405180910390a35050565b610eb8816002610bba90919063ffffffff16565b8073ffffffffffffffffffffffffffffffffffffffff167fddbf200aa634dc3fb81cfd68583dd1040d1c751d335e1d86b631bde3e977fea860405160405180910390a250565b610f12816001610bba90919063ffffffff16565b8073ffffffffffffffffffffffffffffffffffffffff167f2e0ded4123377a3c2bc9a26f1717655a129e2f20752924d42e730ec89c83dbd060405160405180910390a250565b610f6c81600161106690919063ffffffff16565b8073ffffffffffffffffffffffffffffffffffffffff167fa5e0f060af304ab17dd418c7927e3da3ae7868189bf387aee09ab179ccc572f260405160405180910390a250565b610fc6816003610bba90919063ffffffff16565b8073ffffffffffffffffffffffffffffffffffffffff167f71ae26cad02663e3d92efd6ec56031a80d74a20c0ab4183faa8bf262261c9baa60405160405180910390a250565b61102081600361106690919063ffffffff16565b8073ffffffffffffffffffffffffffffffffffffffff167fdb7176e79cffef81cb01767dd0447a0b24bb72ca9778d4b245581086b2a7e6db60405160405180910390a250565b600073ffffffffffffffffffffffffffffffffffffffff168173ffffffffffffffffffffffffffffffffffffffff160361109f57600080fd5b6110a98282610c77565b6110b257600080fd5b60008260000160008373ffffffffffffffffffffffffffffffffffffffff1673ffffffffffffffffffffffffffffffffffffffff16815260200190815260200160002060006101000a81548160ff0219169083151502179055505050565b6040518061020001604052806000815260200160008152602001600073ffffffffffffffffffffffffffffffffffffffff168152602001600073ffffffffffffffffffffffffffffffffffffffff168152602001606081526020016060815260200160008152602001606081526020016060815260200160008152602001600081526020016000600a8111156111a9576111a86117d2565b5b8152602001600073ffffffffffffffffffffffffffffffffffffffff168152602001600073ffffffffffffffffffffffffffffffffffffffff16815260200160608152602001606081525090565b6000604051905090565b600080fd5b600080fd5b6000819050919050565b61121e8161120b565b811461122957600080fd5b50565b60008135905061123b81611215565b92915050565b600080fd5b600080fd5b6000601f19601f8301169050919050565b7f4e487b7100000000000000000000000000000000000000000000000000000000600052604160045260246000fd5b6112948261124b565b810181811067ffffffffffffffff821117156112b3576112b261125c565b5b80604052505050565b60006112c66111f7565b90506112d2828261128b565b919050565b600067ffffffffffffffff8211156112f2576112f161125c565b5b6112fb8261124b565b9050602081019050919050565b82818337600083830152505050565b600061132a611325846112d7565b6112bc565b90508281526020810184848401111561134657611345611246565b5b611351848285611308565b509392505050565b600082601f83011261136e5761136d611241565b5b813561137e848260208601611317565b91505092915050565b600080600080600080600060e0888a0312156113a6576113a5611201565b5b60006113b48a828b0161122c565b975050602088013567ffffffffffffffff8111156113d5576113d4611206565b5b6113e18a828b01611359565b965050604088013567ffffffffffffffff81111561140257611401611206565b5b61140e8a828b01611359565b955050606088013567ffffffffffffffff81111561142f5761142e611206565b5b61143b8a828b01611359565b945050608088013567ffffffffffffffff81111561145c5761145b611206565b5b6114688a828b01611359565b93505060a088013567ffffffffffffffff81111561148957611488611206565b5b6114958a828b01611359565b92505060c06114a68a828b0161122c565b91505092959891949750929550565b6114be8161120b565b82525050565b60006020820190506114d960008301846114b5565b92915050565b600073ffffffffffffffffffffffffffffffffffffffff82169050919050565b600061150a826114df565b9050919050565b61151a816114ff565b811461152557600080fd5b50565b60008135905061153781611511565b92915050565b60006020828403121561155357611552611201565b5b600061156184828501611528565b91505092915050565b60008115159050919050565b61157f8161156a565b82525050565b600060208201905061159a6000830184611576565b92915050565b600080600080600080600060e0888a0312156115bf576115be611201565b5b60006115cd8a828b0161122c565b97505060206115de8a828b0161122c565b965050604088013567ffffffffffffffff8111156115ff576115fe611206565b5b61160b8a828b01611359565b955050606088013567ffffffffffffffff81111561162c5761162b611206565b5b6116388a828b01611359565b945050608088013567ffffffffffffffff81111561165957611658611206565b5b6116658a828b01611359565b93505060a088013567ffffffffffffffff81111561168657611685611206565b5b6116928a828b01611359565b92505060c06116a38a828b0161122c565b91505092959891949750929550565b600080600080600080600060e0888a0312156116d1576116d0611201565b5b60006116df8a828b0161122c565b97505060206116f08a828b0161122c565b965050604088013567ffffffffffffffff81111561171157611710611206565b5b61171d8a828b01611359565b955050606088013567ffffffffffffffff81111561173e5761173d611206565b5b61174a8a828b01611359565b945050608061175b8a828b0161122c565b93505060a088013567ffffffffffffffff81111561177c5761177b611206565b5b6117888a828b01611359565b92505060c06117998a828b0161122c565b91505092959891949750929550565b6117b1816114ff565b82525050565b60006020820190506117cc60008301846117a8565b92915050565b7f4e487b7100000000000000000000000000000000000000000000000000000000600052602160045260246000fd5b600081519050919050565b7f4e487b7100000000000000000000000000000000000000000000000000000000600052602260045260246000fd5b6000600282049050600182168061185357607f821691505b6020821081036118665761186561180c565b5b50919050565b60008190508160005260206000209050919050565b60006020601f8301049050919050565b600082821b905092915050565b6000600883026118ce7fffffffffffffffffffffffffffffffffffffffffffffffffffffffffffffffff82611891565b6118d88683611891565b95508019841693508086168417925050509392505050565b6000819050919050565b600061191561191061190b8461120b565b6118f0565b61120b565b9050919050565b6000819050919050565b61192f836118fa565b61194361193b8261191c565b84845461189e565b825550505050565b600090565b61195861194b565b611963818484611926565b505050565b5b818110156119875761197c600082611950565b600181019050611969565b5050565b601f8211156119cc5761199d8161186c565b6119a684611881565b810160208510156119b5578190505b6119c96119c185611881565b830182611968565b50505b505050565b600082821c905092915050565b60006119ef600019846008026119d1565b1980831691505092915050565b6000611a0883836119de565b9150826002028217905092915050565b611a2182611801565b67ffffffffffffffff811115611a3a57611a3961125c565b5b611a44825461183b565b611a4f82828561198b565b600060209050601f831160018114611a825760008415611a70578287015190505b611a7a85826119fc565b865550611ae2565b601f198416611a908661186c565b60005b82811015611ab857848901518255600182019150602085019450602081019050611a93565b86831015611ad55784890151611ad1601f8916826119de565b8355505b6001600288020188555050505b505050505050565b600082825260208201905092915050565b60005b83811015611b19578082015181840152602081019050611afe565b60008484015250505050565b6000611b3082611801565b611b3a8185611aea565b9350611b4a818560208601611afb565b611b538161124b565b840191505092915050565b600060e082019050611b73600083018a6114b5565b611b8060208301896114b5565b8181036040830152611b928188611b25565b90508181036060830152611ba68187611b25565b90508181036080830152611bba8186611b25565b905081810360a0830152611bce8185611b25565b9050611bdd60c08301846114b5565b98975050505050505050565b7f4e487b7100000000000000000000000000000000000000000000000000000000600052601160045260246000fd5b6000611c238261120b565b91507fffffffffffffffffffffffffffffffffffffffffffffffffffffffffffffffff8203611c5557611c54611be9565b5b600182019050919050565b600060e082019050611c75600083018a6114b5565b611c8260208301896114b5565b8181036040830152611c948188611b25565b90508181036060830152611ca88187611b25565b9050611cb760808301866114b5565b81810360a0830152611cc98185611b25565b9050611cd860c08301846114b5565b98975050505050505050565b7f4f776e61626c653a206e6577206f776e657220697320746865207a65726f206160008201527f6464726573730000000000000000000000000000000000000000000000000000602082015250565b6000611d40602683611aea565b9150611d4b82611ce4565b604082019050919050565b60006020820190508181036000830152611d6f81611d33565b9050919050565b7f4f776e61626c653a2063616c6c6572206973206e6f7420746865206f776e6572600082015250565b6000611dac602083611aea565b9150611db782611d76565b602082019050919050565b60006020820190508181036000830152611ddb81611d9f565b905091905056fea26469706673582212209f2d78566263f22c155e2596b0a87e0ccc51a6effe07a2dda09aa0207bdc298664736f6c63430008110033",
  "immutableReferences": {},
  "source": "// SPDX-License-Identifier: GPL-3.0\r\nimport \"./Ownable.sol\";\r\nimport \"./FarmerRole.sol\";\r\nimport \"./DistributorRole.sol\";\r\nimport \"./RetailerRole.sol\";\r\nimport \"./Roles.sol\";\r\nimport \"./Context.sol\";\r\n\r\npragma solidity >= 0.5.0 < 0.9.0;\r\n\r\ncontract main is\r\n    Ownable,\r\n    FarmerRole,\r\n    DistributorRole,\r\n    RetailerRole\r\n{\r\n  struct Transbyfarmer{\r\n    uint256 id;\r\n    uint256 productCode;\r\n    string productName;\r\n    string distName;\r\n    string quantity;\r\n    string timestamp;\r\n    uint256 price;\r\n}\r\n    mapping(uint256 => Transbyfarmer) transbyfarmer;\r\n    mapping(uint256 => Transbydistributor) transbydistributor;\r\n\r\nstruct Transbydistributor{\r\n    uint256 id;\r\n    uint256 productCode;\r\n    string productName;\r\n    string retailName;\r\n    uint256 batches;\r\n    string timestamp;\r\n    uint256 price;\r\n}\r\n\r\n    event FarmerTransaction(uint256 id,uint256 productCode,string productName,string distName,string quantity,string timestamp,uint256 price);\r\n    event DistributorTransaction(uint256 id,uint256 productCode,string productName,string retailName,uint256 batches,string timestamp,uint256 price);\r\n    address owner;\r\n    // Define a variable called 'productCode' for Universal Product Code (productCode)\r\n    uint256 productCode;\r\n  \r\n    mapping(uint256 => Item) items;\r\n    \r\n\r\n    enum Modified {\r\n        CropRegistered,\r\n        ForSaleByFarmer,\r\n        PurchasedByDistributor,\r\n        ShippedByFarmer, // 3\r\n        ReceivedByDistributor, // 4\r\n        ProcessedByDistributor, // 6\r\n        ForSaleByDistributor, // 7\r\n        PurchasedByRetailer, // 8\r\n        ShippedByDistributor, // 9\r\n        ReceivedByRetailer, // 10\r\n        ForSaleByRetailer\r\n    }\r\n\r\n    Modified constant defaultState = Modified.CropRegistered;\r\n\r\n    uint256 public noteCount = 0;\r\n\r\n  \r\n    struct Item {\r\n        uint256 stockUnit; // Stock Keeping Unit (stockUnit)\r\n        uint256 productCode; // Universal Product Code (productCode), generated by the Farmer, goes on the package, can be verified by the Consumer\r\n        address ownerID; // Metamask-Ethereum address of the current owner as the product moves through 8 stages\r\n        address farmerID; // Metamask-Ethereum address of the Farmer // ADDED PAYABLE\r\n        string farmName; // Farmer Name\r\n        string productDescription; // product Description \r\n        uint256 productID; // Product ID potentially a combination of productCode + stockUnit\r\n        string productType; // Product types\r\n        string productName;\r\n        uint256 productDate; // Product Date NOTE: MIGHT NEED TO CHANGE type\r\n        uint256 productPrice; // Product Price\r\n        Modified itemState; // Product State as represented in the enum above\r\n        address distributorID; // Metamask-Ethereum address of the Distributor\r\n        address retailerID; // Metamask-Ethereum address of the Retailer\r\n        string distName;\r\n        string retailName;\r\n\r\n    }\r\n\r\n    // Block number stuct\r\n    // struct Txblocks {\r\n    //     uint256 FTD; // blockfarmerToDistributor\r\n    //     uint256 DTR; // blockDistributorToRetailer\r\n    // }\r\n\r\n    event CropRegistered(uint256 productCode); //1\r\n    // event ForSaleByFarmer(uint256 productCode); //2\r\n    // event PurchasedByDistributor(uint256 productCode); //3\r\n    // event ShippedByFarmer(uint256 productCode); //4\r\n    // event ReceivedByDistributor(uint256 productCode); //5\r\n    // event ProcessedByDistributor(uint256 productCode); //6\r\n    // event ForSaleByDistributor(uint256 productCode); //7\r\n    // event PurchasedByRetailer(uint256 productCode); //8\r\n    // event ShippedByDistributor(uint256 productCode); //9\r\n    // event ReceivedByRetailer(uint256 productCode); //10\r\n    // event ForSaleByRetailer(uint256 productCode); //11\r\n\r\n    // Define a modifer that checks to see if _msgSender() == owner of the contract\r\n    modifier only_Owner() {\r\n        require(_msgSender() == owner);\r\n        _;\r\n    }\r\n\r\n    // Define a modifer that verifies the Caller\r\n    modifier verifyCaller(address _address) {\r\n        require(_msgSender() == _address);\r\n        _;\r\n    }\r\n\r\n    // Define a modifier that checks if the paid amount is sufficient to cover the price\r\n    modifier paidEnough(uint256 _price) {\r\n        require(msg.value >= _price);\r\n        _;\r\n    }\r\n\r\n    // Define a modifier that checks the price and refunds the remaining balance\r\n    modifier checkValue(uint256 _productCode, address payable addressToFund) {\r\n        uint256 _price = items[_productCode].productPrice;\r\n        uint256 amountToReturn = msg.value - _price;\r\n        addressToFund.transfer(amountToReturn);\r\n        _;\r\n    }\r\n\r\n\r\n    //Item State Modifiers\r\n    modifier producedByFarmer(uint256 _productCode) {\r\n        require(items[_productCode].itemState == Modified.CropRegistered);\r\n        _;\r\n    }\r\n\r\n    modifier forSaleByFarmer(uint256 _productCode) {\r\n        require(items[_productCode].itemState == Modified.ForSaleByFarmer);\r\n        _;\r\n    }\r\n\r\n    modifier purchasedByDistributor(uint256 _productCode) {\r\n        require(items[_productCode].itemState == Modified.PurchasedByDistributor);\r\n        _;\r\n    }\r\n\r\n    modifier shippedByFarmer(uint256 _productCode) {\r\n        require(items[_productCode].itemState == Modified.ShippedByFarmer);\r\n        _;\r\n    }\r\n\r\n    modifier receivedByDistributor(uint256 _productCode) {\r\n        require(items[_productCode].itemState == Modified.ReceivedByDistributor);\r\n        _;\r\n    }\r\n\r\n      modifier processByDistributor(uint256 _productCode) {\r\n        require(items[_productCode].itemState == Modified.ProcessedByDistributor);\r\n        _;\r\n    }\r\n\r\n    modifier forSaleByDistributor(uint256 _productCode) {\r\n        require(items[_productCode].itemState == Modified.ForSaleByDistributor);\r\n        _;\r\n    }\r\n\r\n    modifier shippedByDistributor(uint256 _productCode) {\r\n        require(items[_productCode].itemState == Modified.ShippedByDistributor);\r\n        _;\r\n    }\r\n\r\n    modifier purchasedByRetailer(uint256 _productCode) {\r\n        require(items[_productCode].itemState == Modified.PurchasedByRetailer);\r\n        _;\r\n    }\r\n\r\n    modifier receivedByRetailer(uint256 _productCode) {\r\n        require(items[_productCode].itemState == Modified.ReceivedByRetailer);\r\n        _;\r\n    }\r\n\r\n    modifier forSaleByRetailer(uint256 _productCode) {\r\n        require(items[_productCode].itemState == Modified.ForSaleByRetailer);\r\n        _;\r\n    }\r\n\r\n    // constructor setup owner stockUnit productCode\r\n    constructor() public payable {\r\n        owner = _msgSender();\r\n        // stockUnit = 1;\r\n        productCode = 1;\r\n    }\r\n\r\n    // Define a function 'kill'\r\n    function kill() public {\r\n        if (_msgSender() == owner) {\r\n            address payable ownerAddressPayable = _make_payable(owner);\r\n            selfdestruct(ownerAddressPayable);\r\n        }\r\n    }\r\n\r\n    // allows you to convert an address into a payable address\r\n    function _make_payable(address x) internal pure returns (address payable) {\r\n        return payable(address(uint160(x)));\r\n    }\r\n\r\n\r\n/*\r\n 1st step in supplychain\r\n Allows farmer to create product\r\n*/\r\n    function cropRegisteredByFarmer(\r\n        uint256 _productCode,\r\n        string memory _productName,\r\n        string memory _productType, \r\n        string memory _productDescription,\r\n        string memory _productDate,\r\n        string memory _farmName,\r\n        uint256 _price)\r\n        public onlyFarmer \r\n    {\r\n        address distributorID; // Empty distributorID address\r\n        address retailerID; // Empty retailerID address\r\n       \r\n        Item memory newProduce; // Create a new struct Item in memory\r\n        // newProduce.stockUnit = stockUnit; // Stock Keeping Unit (stockUnit)\r\n        newProduce.productCode = _productCode; // Universal Product Code (productCode), generated by the Farmer, goes on the package, can be verified by the Consumer\r\n        newProduce.ownerID = _msgSender(); // Metamask-Ethereum address of the current owner as the product moves through 8 stages\r\n        newProduce.farmerID = _msgSender(); // Metamask-Ethereum address of the Farmer\r\n        newProduce.farmName = _farmName; // Farmer Name\r\n        newProduce.productDescription = _productDescription; // Product Decription Information\r\n       \r\n        // newProduce.productID = _productCode + stockUnit; // Product ID\r\n        newProduce.productType = _productType; // Product Type\r\n        newProduce.productPrice = _price; // Product Price\r\n        newProduce.productDate = block.timestamp;\r\n        \r\n        newProduce.itemState = defaultState; // Product State as represented in the enum above\r\n        newProduce.distributorID = distributorID; // Metamask-Ethereum address of the Distributor\r\n        newProduce.retailerID = retailerID; // Metamask-Ethereum address of the Retailer\r\n       \r\n        items[_productCode] = newProduce; // Add newProduce to items struct by productCode\r\n        uint256 placeholder; // Block number place holder\r\n        // Txblocks memory txBlock; // create new txBlock struct\r\n        // txBlock.FTD = placeholder; // assign placeholder values\r\n        // txBlock.DTR = placeholder;\r\n        \r\n        // itemsHistory[_productCode] = txBlock; // add txBlock to itemsHistory mapping by productCode\r\n\r\n        // Increment stockUnit\r\n        // stockUnit = stockUnit + 1;\r\n\r\n        // Emit the appropriate event\r\n        emit CropRegistered(_productCode);\r\n    }\r\n\r\n\r\n\r\nfunction transactionByFarmer(uint256 _id,uint256 _productCode, string memory _productName, string memory _distName, string memory _quantity,string memory _timestamp, uint256 _price) \r\npublic  {\r\n     transbyfarmer[noteCount] = Transbyfarmer(noteCount,_productCode,_productName,_distName,_quantity,_timestamp,_price);\r\n        emit FarmerTransaction(noteCount, _productCode,_productName,_distName,_quantity,_timestamp,_price);\r\n    noteCount++;\r\n}\r\n   function transactionByDistributer(uint256 _id,uint256 _productCode, string memory _productName, string memory _retailName, uint256 _batches,string memory _timestamp, uint256 _price) \r\npublic  {\r\n     transbydistributor[noteCount] = Transbydistributor(noteCount,_productCode,_productName,_retailName,_batches,_timestamp,_price);\r\n        emit DistributorTransaction(noteCount, _productCode, _productName, _retailName, _batches, _timestamp, _price);\r\n    noteCount++;\r\n}\r\n\r\n\r\n    // Farmer public farmer;\r\n    // Distributor public distributor;\r\n    // Retailer public retailer;\r\n    // Product public product;\r\n\r\n    // enum State{\r\n    //     allowed,\r\n    //     not_allowed,\r\n    //     wait\r\n    // }\r\n\r\n    // State public farmerState = State.allowed;\r\n    // State public DistributorState = State.not_allowed;\r\n    // State public RetailerState = State.not_allowed;\r\n\r\n    // string public product_name;\r\n    // string public product_type;\r\n    // string public description;\r\n    // string public dateofharvest;\r\n\r\n// ---------------------------------------Farmer Section-----------------------------------//\r\n\r\n    // function farmerDetails(\r\n    //     uint _fid, \r\n    //     string memory _fname, \r\n    //     string memory _femail,\r\n    //     string memory _flocation, \r\n    //     uint _fphone, \r\n    //     string memory _fpass\r\n    //     ) public {\r\n    //         farmer.f_id = _fid;\r\n    //         farmer.f_name = _fname;\r\n    //         farmer.f_email = _femail;\r\n    //         farmer.f_location = _flocation;\r\n    //         farmer.f_phone = _fphone;\r\n    //         farmer.f_password = _fpass;\r\n    // }\r\n\r\n\r\n    // function cropRegistration(\r\n    //     string memory productname,\r\n    //     string memory producttype, \r\n    //     string memory descript,\r\n    //     string memory doh\r\n    //     ) public returns(\r\n    //         string memory, \r\n    //         uint, \r\n    //         string memory,\r\n    //         string memory, \r\n    //         string memory,\r\n    //         string memory, \r\n    //         string memory\r\n    //         ){\r\n\r\n    //         string memory farmername = farmer.f_name;\r\n    //         uint farmerphone = farmer.f_phone;   \r\n    //         string memory farmerlocation = farmer.f_location;\r\n            \r\n    //         product_name = productname;\r\n    //         product_type = producttype;\r\n    //         description = descript; \r\n    //         dateofharvest = doh;\r\n             \r\n    //         return (farmername, farmerphone, dateofharvest, farmerlocation, product_name, product_type, description);        \r\n    // }\r\n\r\n    // function addFarmertoProduct() public returns(string memory){\r\n    //     if(farmerState == State.allowed){\r\n    //         product.productName = product_name;\r\n    //         product.productType = product_type;\r\n    //         product.desc = description;\r\n    //         product.farmer = farmer.f_name;\r\n    //         product.date_of_harvest = dateofharvest;\r\n    //         return(\"Farmer Details are Updated Successfully!!!\");\r\n    //     }\r\n    //     else{\r\n    //         revert(\"Something went wrong in Farmer's state\");\r\n    //     }\r\n    // }\r\n\r\n    // function soldtoDistrubutor() public returns(string memory){\r\n    //     if(farmerState == State.allowed){\r\n    //         product.distributor = distributor.d_name;\r\n    //         DistributorState = State.allowed;\r\n    //         return(\"Farmer Sold product to Distributor Successfully!!!!\"); \r\n    //     }\r\n    //     else{\r\n    //         revert(\"Transaction between farmer and distributor not happened\");\r\n    //     }\r\n    // }\r\n\r\n\r\n//-------------------------------Distributer Section------------------------//\r\n\r\n    // function distributorDetails(\r\n    //     uint did,\r\n    //     string memory dname, \r\n    //     string memory demail, \r\n    //     string memory dlocation, \r\n    //     uint dphone, \r\n    //     string memory dpassword\r\n    //     ) public{\r\n    //         uint d_id = did;\r\n    //         string memory d_name = dname;\r\n    //         string memory d_email = demail;\r\n    //         string memory d_location = dlocation;\r\n    //         uint d_phone = dphone;\r\n    //         string memory d_password = dpassword;\r\n\r\n    //         distributor.d_id = d_id;\r\n    //         distributor.d_name = d_name;\r\n    //         distributor.d_email = d_email;\r\n    //         distributor.d_location = d_location;\r\n    //         distributor.d_phone = d_phone;\r\n    //         distributor.d_password = d_password;\r\n\r\n    // }\r\n\r\n    // function distributorBatch(uint batchId) public returns(string memory){\r\n    //     if(DistributorState == State.allowed && farmerState == State.allowed ){\r\n    //         product.batch_id = batchId;\r\n    //         DistributorState = State.wait;\r\n    //         return(\"Batch Id is assigned to the product\");    \r\n    //     }\r\n    //     else{\r\n    //         revert(\"Not Assigned Batch ID\");\r\n    //     }\r\n    // }\r\n\r\n    // function selltoRetailer() public returns(string memory){\r\n    //     if(DistributorState == State.wait && farmerState == State.allowed){\r\n    //         product.retailer = retailer.r_name;\r\n    //         RetailerState = State.allowed;\r\n    //         return(\"Distributor sold product to retailer\");\r\n    //     }\r\n    //     else{\r\n    //         revert(\"Transaction between distributor and retailer not happened\");\r\n    //     }\r\n    // }\r\n    \r\n\r\n//---------------------------------------------------retailerDetails--------------------------------------//\r\n\r\n    // function retailerDetails(\r\n    //     uint rid, \r\n    //     string memory rname, \r\n    //     string memory remail, \r\n    //     string memory rlocation, \r\n    //     uint rphone, \r\n    //     string memory rpassword\r\n    //     ) public{\r\n    //         uint r_id = rid;\r\n    //         string memory r_name = rname;\r\n    //         string memory r_email = remail;\r\n    //         string memory r_location = rlocation;\r\n    //         uint r_phone = rphone;\r\n    //         string memory r_password = rpassword;\r\n\r\n    //         retailer.r_id = r_id;\r\n    //         retailer.r_name = r_name;\r\n    //         retailer.r_email = r_email;\r\n    //         retailer.r_location = r_location;\r\n    //         retailer.r_phone = r_phone;\r\n    //         retailer.r_password = r_password;\r\n\r\n    // }\r\n\r\n//-----------------------------------------------------Product-------------------------------------------------------//\r\n\r\n    // function productResult() public view returns(\r\n    //     uint, \r\n    //     string memory, \r\n    //     string memory, \r\n    //     string memory,\r\n    //     string memory, \r\n    //     string memory, \r\n    //     string memory, \r\n    //     string memory\r\n    //     ){  return(\r\n    //         product.batch_id,\r\n    //         product.productName,\r\n    //         product.desc,\r\n    //         product.productType,\r\n    //         product.date_of_harvest,\r\n    //         product.farmer,\r\n    //         product.distributor,\r\n    //         product.retailer\r\n    //     );\r\n    // }\r\n\r\n//--------------------------------------------sample-----------------\r\n\r\n    // address payable user = payable(0x5B38Da6a701c568545dCfcB03FcB875f56beddC4);\r\n    \r\n\r\n}",
  "sourcePath": "D:\\Code\\Blockchain\\Final-year-project\\contracts\\main.sol",
  "compiler": {
    "name": "solc",
    "version": "0.8.17+commit.8df45f5f.Emscripten.clang"
  },
  "schemaVersion": "3.4.10",
  "updatedAt": "2023-04-18T16:32:49.273Z",
  "devdoc": {
    "kind": "dev",
    "methods": {},
    "version": 1
  },
  "userdoc": {
    "kind": "user",
    "methods": {
      "ownerLookup()": {
        "notice": "Look up the address of the owner"
      },
      "renounceOwnership()": {
        "notice": "Define a function to renounce ownerhip"
      },
      "transferOwnership(address)": {
        "notice": "Define a public function to transfer ownership"
      }
    },
    "version": 1
  }
}