{
  "contractName": "main",
  "abi": [
    {
      "inputs": [],
      "stateMutability": "payable",
      "type": "constructor",
      "payable": true
    },
    {
      "anonymous": false,
      "inputs": [
        {
          "indexed": false,
          "internalType": "uint256",
          "name": "productCode",
          "type": "uint256"
        }
      ],
      "name": "CropRegistered",
      "type": "event"
    },
    {
      "anonymous": false,
      "inputs": [
        {
          "indexed": true,
          "internalType": "address",
          "name": "account",
          "type": "address"
        }
      ],
      "name": "DistributorAdded",
      "type": "event"
    },
    {
      "anonymous": false,
      "inputs": [
        {
          "indexed": true,
          "internalType": "address",
          "name": "account",
          "type": "address"
        }
      ],
      "name": "DistributorRemoved",
      "type": "event"
    },
    {
      "anonymous": false,
      "inputs": [
        {
          "indexed": false,
          "internalType": "uint256",
          "name": "id",
          "type": "uint256"
        },
        {
          "indexed": false,
          "internalType": "string",
          "name": "productName",
          "type": "string"
        },
        {
          "indexed": false,
          "internalType": "string",
          "name": "retailName",
          "type": "string"
        },
        {
          "indexed": false,
          "internalType": "string",
          "name": "batches",
          "type": "string"
        },
        {
          "indexed": false,
          "internalType": "string",
          "name": "timestamp",
          "type": "string"
        },
        {
          "indexed": false,
          "internalType": "uint256",
          "name": "price",
          "type": "uint256"
        }
      ],
      "name": "DistributorTransaction",
      "type": "event"
    },
    {
      "anonymous": false,
      "inputs": [
        {
          "indexed": true,
          "internalType": "address",
          "name": "account",
          "type": "address"
        }
      ],
      "name": "FarmerAdded",
      "type": "event"
    },
    {
      "anonymous": false,
      "inputs": [
        {
          "indexed": true,
          "internalType": "address",
          "name": "account",
          "type": "address"
        }
      ],
      "name": "FarmerRemoved",
      "type": "event"
    },
    {
      "anonymous": false,
      "inputs": [
        {
          "indexed": false,
          "internalType": "uint256",
          "name": "id",
          "type": "uint256"
        },
        {
          "indexed": false,
          "internalType": "uint256",
          "name": "productCode",
          "type": "uint256"
        },
        {
          "indexed": false,
          "internalType": "string",
          "name": "productName",
          "type": "string"
        },
        {
          "indexed": false,
          "internalType": "string",
          "name": "distName",
          "type": "string"
        },
        {
          "indexed": false,
          "internalType": "string",
          "name": "quantity",
          "type": "string"
        },
        {
          "indexed": false,
          "internalType": "string",
          "name": "timestamp",
          "type": "string"
        },
        {
          "indexed": false,
          "internalType": "uint256",
          "name": "price",
          "type": "uint256"
        }
      ],
      "name": "FarmerTransaction",
      "type": "event"
    },
    {
      "anonymous": false,
      "inputs": [
        {
          "indexed": true,
          "internalType": "address",
          "name": "account",
          "type": "address"
        }
      ],
      "name": "RetailerAdded",
      "type": "event"
    },
    {
      "anonymous": false,
      "inputs": [
        {
          "indexed": true,
          "internalType": "address",
          "name": "account",
          "type": "address"
        }
      ],
      "name": "RetailerRemoved",
      "type": "event"
    },
    {
      "inputs": [
        {
          "internalType": "address",
          "name": "account",
          "type": "address"
        }
      ],
      "name": "addDistributor",
      "outputs": [],
      "stateMutability": "nonpayable",
      "type": "function"
    },
    {
      "inputs": [
        {
          "internalType": "address",
          "name": "account",
          "type": "address"
        }
      ],
      "name": "addFarmer",
      "outputs": [],
      "stateMutability": "nonpayable",
      "type": "function"
    },
    {
      "inputs": [
        {
          "internalType": "address",
          "name": "account",
          "type": "address"
        }
      ],
      "name": "addRetailer",
      "outputs": [],
      "stateMutability": "nonpayable",
      "type": "function"
    },
    {
      "inputs": [
        {
          "internalType": "address",
          "name": "account",
          "type": "address"
        }
      ],
      "name": "isDistributor",
      "outputs": [
        {
          "internalType": "bool",
          "name": "",
          "type": "bool"
        }
      ],
      "stateMutability": "view",
      "type": "function",
      "constant": true
    },
    {
      "inputs": [
        {
          "internalType": "address",
          "name": "account",
          "type": "address"
        }
      ],
      "name": "isFarmer",
      "outputs": [
        {
          "internalType": "bool",
          "name": "",
          "type": "bool"
        }
      ],
      "stateMutability": "view",
      "type": "function",
      "constant": true
    },
    {
      "inputs": [
        {
          "internalType": "address",
          "name": "account",
          "type": "address"
        }
      ],
      "name": "isRetailer",
      "outputs": [
        {
          "internalType": "bool",
          "name": "",
          "type": "bool"
        }
      ],
      "stateMutability": "view",
      "type": "function",
      "constant": true
    },
    {
      "inputs": [],
      "name": "note1",
      "outputs": [
        {
          "internalType": "uint256",
          "name": "",
          "type": "uint256"
        }
      ],
      "stateMutability": "view",
      "type": "function",
      "constant": true
    },
    {
      "inputs": [],
      "name": "note2",
      "outputs": [
        {
          "internalType": "uint256",
          "name": "",
          "type": "uint256"
        }
      ],
      "stateMutability": "view",
      "type": "function",
      "constant": true
    },
    {
      "inputs": [],
      "name": "noteCount",
      "outputs": [
        {
          "internalType": "uint256",
          "name": "",
          "type": "uint256"
        }
      ],
      "stateMutability": "view",
      "type": "function",
      "constant": true
    },
    {
      "inputs": [],
      "name": "renounceDistributor",
      "outputs": [],
      "stateMutability": "nonpayable",
      "type": "function"
    },
    {
      "inputs": [],
      "name": "renounceFarmer",
      "outputs": [],
      "stateMutability": "nonpayable",
      "type": "function"
    },
    {
      "inputs": [],
      "name": "renounceRetailer",
      "outputs": [],
      "stateMutability": "nonpayable",
      "type": "function"
    },
    {
      "inputs": [],
      "name": "kill",
      "outputs": [],
      "stateMutability": "nonpayable",
      "type": "function"
    },
    {
      "inputs": [
        {
          "internalType": "uint256",
          "name": "_productCode",
          "type": "uint256"
        },
        {
          "internalType": "string",
          "name": "_productName",
          "type": "string"
        },
        {
          "internalType": "string",
          "name": "_productType",
          "type": "string"
        },
        {
          "internalType": "string",
          "name": "_productDescription",
          "type": "string"
        },
        {
          "internalType": "string",
          "name": "_productDate",
          "type": "string"
        },
        {
          "internalType": "string",
          "name": "_farmName",
          "type": "string"
        },
        {
          "internalType": "uint256",
          "name": "_price",
          "type": "uint256"
        }
      ],
      "name": "cropRegisteredByFarmer",
      "outputs": [],
      "stateMutability": "nonpayable",
      "type": "function"
    },
    {
      "inputs": [
        {
          "internalType": "uint256",
          "name": "_id",
          "type": "uint256"
        },
        {
          "internalType": "uint256",
          "name": "_productCode",
          "type": "uint256"
        },
        {
          "internalType": "string",
          "name": "_productName",
          "type": "string"
        },
        {
          "internalType": "string",
          "name": "_distName",
          "type": "string"
        },
        {
          "internalType": "string",
          "name": "_quantity",
          "type": "string"
        },
        {
          "internalType": "string",
          "name": "_timestamp",
          "type": "string"
        },
        {
          "internalType": "uint256",
          "name": "_price",
          "type": "uint256"
        }
      ],
      "name": "transactionByFarmer",
      "outputs": [],
      "stateMutability": "nonpayable",
      "type": "function"
    },
    {
      "inputs": [
        {
          "internalType": "uint256",
          "name": "_id",
          "type": "uint256"
        },
        {
          "internalType": "string",
          "name": "_productName",
          "type": "string"
        },
        {
          "internalType": "string",
          "name": "_retailName",
          "type": "string"
        },
        {
          "internalType": "string",
          "name": "_batches",
          "type": "string"
        },
        {
          "internalType": "string",
          "name": "_timestamp",
          "type": "string"
        },
        {
          "internalType": "uint256",
          "name": "_price",
          "type": "uint256"
        }
      ],
      "name": "transactionByDistributer",
      "outputs": [],
      "stateMutability": "nonpayable",
      "type": "function"
    }
  ],
  "bytecode": "0x6080604052600060085560006009556000600a556200003362000027620000d160201b60201c565b620000d960201b60201c565b6200005362000047620000d160201b60201c565b6200013a60201b60201c565b6200007362000067620000d160201b60201c565b6200019b60201b60201c565b62000083620000d160201b60201c565b600560006101000a81548173ffffffffffffffffffffffffffffffffffffffff021916908373ffffffffffffffffffffffffffffffffffffffff160217905550600160068190555062000343565b600033905090565b620000f4816000620001fc60201b62000a9a1790919060201c565b8073ffffffffffffffffffffffffffffffffffffffff167f2e0ded4123377a3c2bc9a26f1717655a129e2f20752924d42e730ec89c83dbd060405160405180910390a250565b62000155816001620001fc60201b62000a9a1790919060201c565b8073ffffffffffffffffffffffffffffffffffffffff167fddbf200aa634dc3fb81cfd68583dd1040d1c751d335e1d86b631bde3e977fea860405160405180910390a250565b620001b6816002620001fc60201b62000a9a1790919060201c565b8073ffffffffffffffffffffffffffffffffffffffff167f71ae26cad02663e3d92efd6ec56031a80d74a20c0ab4183faa8bf262261c9baa60405160405180910390a250565b600073ffffffffffffffffffffffffffffffffffffffff168173ffffffffffffffffffffffffffffffffffffffff16036200023657600080fd5b620002488282620002b160201b60201c565b156200025357600080fd5b60018260000160008373ffffffffffffffffffffffffffffffffffffffff1673ffffffffffffffffffffffffffffffffffffffff16815260200190815260200160002060006101000a81548160ff0219169083151502179055505050565b60008073ffffffffffffffffffffffffffffffffffffffff168273ffffffffffffffffffffffffffffffffffffffff1603620002ec57600080fd5b8260000160008373ffffffffffffffffffffffffffffffffffffffff1673ffffffffffffffffffffffffffffffffffffffff16815260200190815260200160002060009054906101000a900460ff16905092915050565b611a8d80620003536000396000f3fe608060405234801561001057600080fd5b50600436106101005760003560e01c8063674186c9116100975780638ec4f505116100665780638ec4f505146102395780638f0c86fa14610255578063b942906914610285578063db0e6a2f146102b557610100565b8063674186c9146101d95780637250e224146101f757806380c3f96d1461021357806380fc0ce41461022f57610100565b806351b4fbe6116100d357806351b4fbe6146101675780635da09b8814610183578063644241db146101b357806364c7505a146101bd57610100565b8063117a4aa714610105578063317a4c76146101215780633c742d561461013f57806341c0e1b51461015d575b600080fd5b61011f600480360381019061011a9190611124565b6102bf565b005b6101296106a7565b6040516101369190611261565b60405180910390f35b6101476106ad565b6040516101549190611261565b60405180910390f35b6101656106b3565b005b610181600480360381019061017c919061127c565b610759565b005b61019d600480360381019061019891906113d7565b61086f565b6040516101aa919061141f565b60405180910390f35b6101bb61088c565b005b6101d760048036038101906101d2919061143a565b61089e565b005b6101e16109c7565b6040516101ee9190611261565b60405180910390f35b610211600480360381019061020c91906113d7565b6109cd565b005b61022d600480360381019061022891906113d7565b6109f2565b005b610237610a17565b005b610253600480360381019061024e91906113d7565b610a29565b005b61026f600480360381019061026a91906113d7565b610a4e565b60405161027c919061141f565b60405180910390f35b61029f600480360381019061029a91906113d7565b610a6b565b6040516102ac919061141f565b60405180910390f35b6102bd610a88565b005b6102cf6102ca610b45565b610a6b565b6102d857600080fd5b6000806102e3610eae565b898160200181815250506102f5610b45565b816040019073ffffffffffffffffffffffffffffffffffffffff16908173ffffffffffffffffffffffffffffffffffffffff1681525050610334610b45565b816060019073ffffffffffffffffffffffffffffffffffffffff16908173ffffffffffffffffffffffffffffffffffffffff1681525050848160800181905250868160a00181905250878160e0018190525083816101400181815250504281610120018181525050600081610160019060008111156103b6576103b561154c565b5b908160008111156103ca576103c961154c565b5b815250508281610180019073ffffffffffffffffffffffffffffffffffffffff16908173ffffffffffffffffffffffffffffffffffffffff168152505081816101a0019073ffffffffffffffffffffffffffffffffffffffff16908173ffffffffffffffffffffffffffffffffffffffff168152505080600760008c8152602001908152602001600020600082015181600001556020820151816001015560408201518160020160006101000a81548173ffffffffffffffffffffffffffffffffffffffff021916908373ffffffffffffffffffffffffffffffffffffffff16021790555060608201518160030160006101000a81548173ffffffffffffffffffffffffffffffffffffffff021916908373ffffffffffffffffffffffffffffffffffffffff160217905550608082015181600401908161050b9190611792565b5060a08201518160050190816105219190611792565b5060c0820151816006015560e08201518160070190816105419190611792565b506101008201518160080190816105589190611792565b50610120820151816009015561014082015181600a015561016082015181600b0160006101000a81548160ff0219169083600081111561059b5761059a61154c565b5b021790555061018082015181600b0160016101000a81548173ffffffffffffffffffffffffffffffffffffffff021916908373ffffffffffffffffffffffffffffffffffffffff1602179055506101a082015181600c0160006101000a81548173ffffffffffffffffffffffffffffffffffffffff021916908373ffffffffffffffffffffffffffffffffffffffff1602179055506101c082015181600d0190816106469190611792565b506101e082015181600e01908161065d9190611792565b5090505060007f36035b711719171c5d396e693e0eb1dc781a6cbfbbdff7f8e883383aaadfc4c18b6040516106929190611261565b60405180910390a15050505050505050505050565b60085481565b60095481565b600560009054906101000a900473ffffffffffffffffffffffffffffffffffffffff1673ffffffffffffffffffffffffffffffffffffffff166106f4610b45565b73ffffffffffffffffffffffffffffffffffffffff160361075757600061073c600560009054906101000a900473ffffffffffffffffffffffffffffffffffffffff16610b4d565b90508073ffffffffffffffffffffffffffffffffffffffff16ff5b565b6040518060c001604052806009548152602001868152602001858152602001848152602001838152602001828152506004600060095481526020019081526020016000206000820151816000015560208201518160010190816107bc9190611792565b5060408201518160020190816107d29190611792565b5060608201518160030190816107e89190611792565b5060808201518160040190816107fe9190611792565b5060a082015181600501559050507f5215840293e89f1313f3f7cb360dd9aedba5a98906cc9ff60b7716dafbb5b1e06009548686868686604051610847969594939291906118d8565b60405180910390a16009600081548092919061086290611984565b9190505550505050505050565b6000610885826002610b5790919063ffffffff16565b9050919050565b61089c610897610b45565b610be8565b565b6040518060e00160405280600854815260200187815260200186815260200185815260200184815260200183815260200182815250600360006008548152602001908152602001600020600082015181600001556020820151816001015560408201518160020190816109119190611792565b5060608201518160030190816109279190611792565b50608082015181600401908161093d9190611792565b5060a08201518160050190816109539190611792565b5060c082015181600601559050507fdc7748e1a2bb6d1337419da0e36daa28a8971f039ffcaa86aafa5eda0833e12060085487878787878760405161099e97969594939291906119cc565b60405180910390a1600860008154809291906109b990611984565b919050555050505050505050565b600a5481565b6109dd6109d8610b45565b610a4e565b6109e657600080fd5b6109ef81610c42565b50565b610a026109fd610b45565b610a6b565b610a0b57600080fd5b610a1481610c9c565b50565b610a27610a22610b45565b610cf6565b565b610a39610a34610b45565b61086f565b610a4257600080fd5b610a4b81610d50565b50565b6000610a64826001610b5790919063ffffffff16565b9050919050565b6000610a81826000610b5790919063ffffffff16565b9050919050565b610a98610a93610b45565b610daa565b565b600073ffffffffffffffffffffffffffffffffffffffff168173ffffffffffffffffffffffffffffffffffffffff1603610ad357600080fd5b610add8282610b57565b15610ae757600080fd5b60018260000160008373ffffffffffffffffffffffffffffffffffffffff1673ffffffffffffffffffffffffffffffffffffffff16815260200190815260200160002060006101000a81548160ff0219169083151502179055505050565b600033905090565b6000819050919050565b60008073ffffffffffffffffffffffffffffffffffffffff168273ffffffffffffffffffffffffffffffffffffffff1603610b9157600080fd5b8260000160008373ffffffffffffffffffffffffffffffffffffffff1673ffffffffffffffffffffffffffffffffffffffff16815260200190815260200160002060009054906101000a900460ff16905092915050565b610bfc816001610e0490919063ffffffff16565b8073ffffffffffffffffffffffffffffffffffffffff167f126174f6cf49c81cdb4a9214c6b8f037bef55b4ec31e4fc776cea2a1c8a88d5960405160405180910390a250565b610c56816001610a9a90919063ffffffff16565b8073ffffffffffffffffffffffffffffffffffffffff167fddbf200aa634dc3fb81cfd68583dd1040d1c751d335e1d86b631bde3e977fea860405160405180910390a250565b610cb0816000610a9a90919063ffffffff16565b8073ffffffffffffffffffffffffffffffffffffffff167f2e0ded4123377a3c2bc9a26f1717655a129e2f20752924d42e730ec89c83dbd060405160405180910390a250565b610d0a816000610e0490919063ffffffff16565b8073ffffffffffffffffffffffffffffffffffffffff167fa5e0f060af304ab17dd418c7927e3da3ae7868189bf387aee09ab179ccc572f260405160405180910390a250565b610d64816002610a9a90919063ffffffff16565b8073ffffffffffffffffffffffffffffffffffffffff167f71ae26cad02663e3d92efd6ec56031a80d74a20c0ab4183faa8bf262261c9baa60405160405180910390a250565b610dbe816002610e0490919063ffffffff16565b8073ffffffffffffffffffffffffffffffffffffffff167fdb7176e79cffef81cb01767dd0447a0b24bb72ca9778d4b245581086b2a7e6db60405160405180910390a250565b600073ffffffffffffffffffffffffffffffffffffffff168173ffffffffffffffffffffffffffffffffffffffff1603610e3d57600080fd5b610e478282610b57565b610e5057600080fd5b60008260000160008373ffffffffffffffffffffffffffffffffffffffff1673ffffffffffffffffffffffffffffffffffffffff16815260200190815260200160002060006101000a81548160ff0219169083151502179055505050565b6040518061020001604052806000815260200160008152602001600073ffffffffffffffffffffffffffffffffffffffff168152602001600073ffffffffffffffffffffffffffffffffffffffff16815260200160608152602001606081526020016000815260200160608152602001606081526020016000815260200160008152602001600080811115610f4657610f4561154c565b5b8152602001600073ffffffffffffffffffffffffffffffffffffffff168152602001600073ffffffffffffffffffffffffffffffffffffffff16815260200160608152602001606081525090565b6000604051905090565b600080fd5b600080fd5b6000819050919050565b610fbb81610fa8565b8114610fc657600080fd5b50565b600081359050610fd881610fb2565b92915050565b600080fd5b600080fd5b6000601f19601f8301169050919050565b7f4e487b7100000000000000000000000000000000000000000000000000000000600052604160045260246000fd5b61103182610fe8565b810181811067ffffffffffffffff821117156110505761104f610ff9565b5b80604052505050565b6000611063610f94565b905061106f8282611028565b919050565b600067ffffffffffffffff82111561108f5761108e610ff9565b5b61109882610fe8565b9050602081019050919050565b82818337600083830152505050565b60006110c76110c284611074565b611059565b9050828152602081018484840111156110e3576110e2610fe3565b5b6110ee8482856110a5565b509392505050565b600082601f83011261110b5761110a610fde565b5b813561111b8482602086016110b4565b91505092915050565b600080600080600080600060e0888a03121561114357611142610f9e565b5b60006111518a828b01610fc9565b975050602088013567ffffffffffffffff81111561117257611171610fa3565b5b61117e8a828b016110f6565b965050604088013567ffffffffffffffff81111561119f5761119e610fa3565b5b6111ab8a828b016110f6565b955050606088013567ffffffffffffffff8111156111cc576111cb610fa3565b5b6111d88a828b016110f6565b945050608088013567ffffffffffffffff8111156111f9576111f8610fa3565b5b6112058a828b016110f6565b93505060a088013567ffffffffffffffff81111561122657611225610fa3565b5b6112328a828b016110f6565b92505060c06112438a828b01610fc9565b91505092959891949750929550565b61125b81610fa8565b82525050565b60006020820190506112766000830184611252565b92915050565b60008060008060008060c0878903121561129957611298610f9e565b5b60006112a789828a01610fc9565b965050602087013567ffffffffffffffff8111156112c8576112c7610fa3565b5b6112d489828a016110f6565b955050604087013567ffffffffffffffff8111156112f5576112f4610fa3565b5b61130189828a016110f6565b945050606087013567ffffffffffffffff81111561132257611321610fa3565b5b61132e89828a016110f6565b935050608087013567ffffffffffffffff81111561134f5761134e610fa3565b5b61135b89828a016110f6565b92505060a061136c89828a01610fc9565b9150509295509295509295565b600073ffffffffffffffffffffffffffffffffffffffff82169050919050565b60006113a482611379565b9050919050565b6113b481611399565b81146113bf57600080fd5b50565b6000813590506113d1816113ab565b92915050565b6000602082840312156113ed576113ec610f9e565b5b60006113fb848285016113c2565b91505092915050565b60008115159050919050565b61141981611404565b82525050565b60006020820190506114346000830184611410565b92915050565b600080600080600080600060e0888a03121561145957611458610f9e565b5b60006114678a828b01610fc9565b97505060206114788a828b01610fc9565b965050604088013567ffffffffffffffff81111561149957611498610fa3565b5b6114a58a828b016110f6565b955050606088013567ffffffffffffffff8111156114c6576114c5610fa3565b5b6114d28a828b016110f6565b945050608088013567ffffffffffffffff8111156114f3576114f2610fa3565b5b6114ff8a828b016110f6565b93505060a088013567ffffffffffffffff8111156115205761151f610fa3565b5b61152c8a828b016110f6565b92505060c061153d8a828b01610fc9565b91505092959891949750929550565b7f4e487b7100000000000000000000000000000000000000000000000000000000600052602160045260246000fd5b600081519050919050565b7f4e487b7100000000000000000000000000000000000000000000000000000000600052602260045260246000fd5b600060028204905060018216806115cd57607f821691505b6020821081036115e0576115df611586565b5b50919050565b60008190508160005260206000209050919050565b60006020601f8301049050919050565b600082821b905092915050565b6000600883026116487fffffffffffffffffffffffffffffffffffffffffffffffffffffffffffffffff8261160b565b611652868361160b565b95508019841693508086168417925050509392505050565b6000819050919050565b600061168f61168a61168584610fa8565b61166a565b610fa8565b9050919050565b6000819050919050565b6116a983611674565b6116bd6116b582611696565b848454611618565b825550505050565b600090565b6116d26116c5565b6116dd8184846116a0565b505050565b5b81811015611701576116f66000826116ca565b6001810190506116e3565b5050565b601f82111561174657611717816115e6565b611720846115fb565b8101602085101561172f578190505b61174361173b856115fb565b8301826116e2565b50505b505050565b600082821c905092915050565b60006117696000198460080261174b565b1980831691505092915050565b60006117828383611758565b9150826002028217905092915050565b61179b8261157b565b67ffffffffffffffff8111156117b4576117b3610ff9565b5b6117be82546115b5565b6117c9828285611705565b600060209050601f8311600181146117fc57600084156117ea578287015190505b6117f48582611776565b86555061185c565b601f19841661180a866115e6565b60005b828110156118325784890151825560018201915060208501945060208101905061180d565b8683101561184f578489015161184b601f891682611758565b8355505b6001600288020188555050505b505050505050565b600082825260208201905092915050565b60005b83811015611893578082015181840152602081019050611878565b60008484015250505050565b60006118aa8261157b565b6118b48185611864565b93506118c4818560208601611875565b6118cd81610fe8565b840191505092915050565b600060c0820190506118ed6000830189611252565b81810360208301526118ff818861189f565b90508181036040830152611913818761189f565b90508181036060830152611927818661189f565b9050818103608083015261193b818561189f565b905061194a60a0830184611252565b979650505050505050565b7f4e487b7100000000000000000000000000000000000000000000000000000000600052601160045260246000fd5b600061198f82610fa8565b91507fffffffffffffffffffffffffffffffffffffffffffffffffffffffffffffffff82036119c1576119c0611955565b5b600182019050919050565b600060e0820190506119e1600083018a611252565b6119ee6020830189611252565b8181036040830152611a00818861189f565b90508181036060830152611a14818761189f565b90508181036080830152611a28818661189f565b905081810360a0830152611a3c818561189f565b9050611a4b60c0830184611252565b9897505050505050505056fea26469706673582212203659fefc9d6c791c81ec9f7b8c5e18c18080092618c5fcfd959806a5dd560ff164736f6c63430008110033",
  "immutableReferences": {},
  "source": "// SPDX-License-Identifier: GPL-3.0\r\n\r\nimport \"./FarmerRole.sol\";\r\nimport \"./DistributorRole.sol\";\r\nimport \"./RetailerRole.sol\";\r\nimport \"./Roles.sol\";\r\nimport \"./Context.sol\";\r\n\r\npragma solidity >= 0.5.0 < 0.9.0;\r\n\r\ncontract main is\r\n\r\n    FarmerRole,\r\n    DistributorRole,\r\n    RetailerRole\r\n{\r\n  struct Transbyfarmer{\r\n    uint256 id;\r\n    uint256 productCode;\r\n    string productName;\r\n    string distName;\r\n    string quantity;\r\n    string timestamp;\r\n    uint256 price;\r\n}\r\n    mapping(uint256 => Transbyfarmer) transbyfarmer;\r\n     mapping(uint256 => Transbydistributor) transbydistributor;\r\n\r\nstruct Transbydistributor{\r\n    uint256 id;\r\n   \r\n    string productName;\r\n    string retailName;\r\n    string batches;\r\n    string timestamp;\r\n    uint256 price;\r\n}\r\n\r\n    struct Transbyretailer{\r\n        uint256 id;\r\n        string productName;\r\n        string CustomerName;\r\n        uint256 batches;\r\n        string timestamp;\r\n        uint256 price;\r\n}\r\n\r\n\r\n  event FarmerTransaction(uint256 id,uint256 productCode,string productName,string distName,string quantity,string timestamp,uint256 price);\r\n  event DistributorTransaction(uint256 id,string productName,string retailName,string batches,string timestamp,uint256 price);\r\n    address owner;\r\n\r\n    uint256 productCode;\r\n   \r\n    mapping(uint256 => Item) items;\r\n  \r\n\r\n    enum Modified {\r\n        CropRegistered\r\n        \r\n    }\r\n\r\n    Modified constant defaultState = Modified.CropRegistered;\r\n\r\n    uint256 public noteCount = 0;\r\n    uint256 public note1 = 0;\r\n    uint256 public note2 = 0;\r\n\r\n    struct Item {\r\n        uint256 stockUnit; // Stock Keeping Unit (stockUnit)\r\n        uint256 productCode; // Universal Product Code (productCode), generated by the Farmer, goes on the package, can be verified by the Consumer\r\n        address ownerID; // Metamask-Ethereum address of the current owner as the product moves through 8 stages\r\n        address farmerID; // Metamask-Ethereum address of the Farmer // ADDED PAYABLE\r\n        string farmName; // Farmer Name\r\n        string productDescription; // product Description \r\n        uint256 productID; // Product ID potentially a combination of productCode + stockUnit\r\n        string productType; // Product types\r\n        string productName;\r\n        uint256 productDate; // Product Date NOTE: MIGHT NEED TO CHANGE type\r\n        uint256 productPrice; // Product Price\r\n        Modified itemState; // Product State as represented in the enum above\r\n        address distributorID; // Metamask-Ethereum address of the Distributor\r\n        address retailerID; // Metamask-Ethereum address of the Retailer\r\n        string distName;\r\n        string retailName;\r\n\r\n    }\r\n\r\n    // Block number stuct\r\n    // struct Txblocks {\r\n    //     uint256 FTD; // blockfarmerToDistributor\r\n    //     uint256 DTR; // blockDistributorToRetailer\r\n    // }\r\n\r\n    event CropRegistered(uint256 productCode); //1\r\n    \r\n\r\n    // Define a modifer that checks to see if _msgSender() == owner of the contract\r\n    modifier only_Owner() {\r\n        require(_msgSender() == owner);\r\n        _;\r\n    }\r\n\r\n    // Define a modifer that verifies the Caller\r\n    modifier verifyCaller(address _address) {\r\n        require(_msgSender() == _address);\r\n        _;\r\n    }\r\n\r\n    // Define a modifier that checks if the paid amount is sufficient to cover the price\r\n    modifier paidEnough(uint256 _price) {\r\n        require(msg.value >= _price);\r\n        _;\r\n    }\r\n\r\n    // Define a modifier that checks the price and refunds the remaining balance\r\n    modifier checkValue(uint256 _productCode, address payable addressToFund) {\r\n        uint256 _price = items[_productCode].productPrice;\r\n        uint256 amountToReturn = msg.value - _price;\r\n        addressToFund.transfer(amountToReturn);\r\n        _;\r\n    }\r\n\r\n\r\n    //Item State Modifiers\r\n    modifier producedByFarmer(uint256 _productCode) {\r\n        require(items[_productCode].itemState == Modified.CropRegistered);\r\n        _;\r\n    }\r\n\r\n    // constructor setup owner stockUnit productCode\r\n    constructor() public payable {\r\n        owner = _msgSender();\r\n        // stockUnit = 1;\r\n        productCode = 1;\r\n    }\r\n\r\n    // Define a function 'kill'\r\n    function kill() public {\r\n        if (_msgSender() == owner) {\r\n            address payable ownerAddressPayable = _make_payable(owner);\r\n            selfdestruct(ownerAddressPayable);\r\n        }\r\n    }\r\n\r\n    // allows you to convert an address into a payable address\r\n    function _make_payable(address x) internal pure returns (address payable) {\r\n        return payable(address(uint160(x)));\r\n    }\r\n\r\n\r\n/*\r\n 1st step in supplychain\r\n Allows farmer to create product\r\n*/\r\n    function cropRegisteredByFarmer(\r\n        uint256 _productCode,\r\n        string memory _productName,\r\n        string memory _productType, \r\n        string memory _productDescription,\r\n        string memory _productDate,\r\n        string memory _farmName,\r\n        uint256 _price)\r\n        public onlyFarmer \r\n    {\r\n        address distributorID; // Empty distributorID address\r\n        address retailerID; // Empty retailerID address\r\n       \r\n        Item memory newProduce; // Create a new struct Item in memory\r\n        // newProduce.stockUnit = stockUnit; // Stock Keeping Unit (stockUnit)\r\n        newProduce.productCode = _productCode; // Universal Product Code (productCode), generated by the Farmer, goes on the package, can be verified by the Consumer\r\n        newProduce.ownerID = _msgSender(); // Metamask-Ethereum address of the current owner as the product moves through 8 stages\r\n        newProduce.farmerID = _msgSender(); // Metamask-Ethereum address of the Farmer\r\n        newProduce.farmName = _farmName; // Farmer Name\r\n        newProduce.productDescription = _productDescription; // Product Decription Information\r\n       \r\n        // newProduce.productID = _productCode + stockUnit; // Product ID\r\n        newProduce.productType = _productType; // Product Type\r\n        newProduce.productPrice = _price; // Product Price\r\n        newProduce.productDate = block.timestamp;\r\n        \r\n        newProduce.itemState = defaultState; // Product State as represented in the enum above\r\n        newProduce.distributorID = distributorID; // Metamask-Ethereum address of the Distributor\r\n        newProduce.retailerID = retailerID; // Metamask-Ethereum address of the Retailer\r\n       \r\n        items[_productCode] = newProduce; // Add newProduce to items struct by productCode\r\n        uint256 placeholder; // Block number place holder\r\n        // Txblocks memory txBlock; // create new txBlock struct\r\n        // txBlock.FTD = placeholder; // assign placeholder values\r\n        // txBlock.DTR = placeholder;\r\n        \r\n        // itemsHistory[_productCode] = txBlock; // add txBlock to itemsHistory mapping by productCode\r\n\r\n        // Increment stockUnit\r\n        // stockUnit = stockUnit + 1;\r\n\r\n        // Emit the appropriate event\r\n        emit CropRegistered(_productCode);\r\n    }\r\n\r\n\r\nfunction transactionByFarmer(uint256 _id,uint256 _productCode, string memory _productName, string memory _distName, string memory _quantity,string memory _timestamp, uint256 _price) \r\npublic  {\r\n     transbyfarmer[noteCount] = Transbyfarmer(noteCount,_productCode,_productName,_distName,_quantity,_timestamp,_price);\r\n        emit FarmerTransaction(noteCount, _productCode,_productName,_distName,_quantity,_timestamp,_price);\r\n    noteCount++;\r\n}\r\n\r\n\r\nfunction transactionByDistributer(uint256 _id,string memory _productName, string memory _retailName, string memory _batches,string memory _timestamp, uint256 _price) \r\npublic  {\r\n     transbydistributor[note1] = Transbydistributor(note1,_productName,_retailName,_batches,_timestamp,_price);\r\n    emit DistributorTransaction(note1,_productName, _retailName, _batches, _timestamp, _price);\r\n    note1++;\r\n}\r\n\r\n\r\n    // Farmer public farmer;\r\n    // Distributor public distributor;\r\n    // Retailer public retailer;\r\n    // Product public product;\r\n\r\n    // enum State{\r\n    //     allowed,\r\n    //     not_allowed,\r\n    //     wait\r\n    // }\r\n\r\n    // State public farmerState = State.allowed;\r\n    // State public DistributorState = State.not_allowed;\r\n    // State public RetailerState = State.not_allowed;\r\n\r\n    // string public product_name;\r\n    // string public product_type;\r\n    // string public description;\r\n    // string public dateofharvest;\r\n\r\n// ---------------------------------------Farmer Section-----------------------------------//\r\n\r\n    // function farmerDetails(\r\n    //     uint _fid, \r\n    //     string memory _fname, \r\n    //     string memory _femail,\r\n    //     string memory _flocation, \r\n    //     uint _fphone, \r\n    //     string memory _fpass\r\n    //     ) public {\r\n    //         farmer.f_id = _fid;\r\n    //         farmer.f_name = _fname;\r\n    //         farmer.f_email = _femail;\r\n    //         farmer.f_location = _flocation;\r\n    //         farmer.f_phone = _fphone;\r\n    //         farmer.f_password = _fpass;\r\n    // }\r\n\r\n\r\n    // function cropRegistration(\r\n    //     string memory productname,\r\n    //     string memory producttype, \r\n    //     string memory descript,\r\n    //     string memory doh\r\n    //     ) public returns(\r\n    //         string memory, \r\n    //         uint, \r\n    //         string memory,\r\n    //         string memory, \r\n    //         string memory,\r\n    //         string memory, \r\n    //         string memory\r\n    //         ){\r\n\r\n    //         string memory farmername = farmer.f_name;\r\n    //         uint farmerphone = farmer.f_phone;   \r\n    //         string memory farmerlocation = farmer.f_location;\r\n            \r\n    //         product_name = productname;\r\n    //         product_type = producttype;\r\n    //         description = descript; \r\n    //         dateofharvest = doh;\r\n             \r\n    //         return (farmername, farmerphone, dateofharvest, farmerlocation, product_name, product_type, description);        \r\n    // }\r\n\r\n    // function addFarmertoProduct() public returns(string memory){\r\n    //     if(farmerState == State.allowed){\r\n    //         product.productName = product_name;\r\n    //         product.productType = product_type;\r\n    //         product.desc = description;\r\n    //         product.farmer = farmer.f_name;\r\n    //         product.date_of_harvest = dateofharvest;\r\n    //         return(\"Farmer Details are Updated Successfully!!!\");\r\n    //     }\r\n    //     else{\r\n    //         revert(\"Something went wrong in Farmer's state\");\r\n    //     }\r\n    // }\r\n\r\n    // function soldtoDistrubutor() public returns(string memory){\r\n    //     if(farmerState == State.allowed){\r\n    //         product.distributor = distributor.d_name;\r\n    //         DistributorState = State.allowed;\r\n    //         return(\"Farmer Sold product to Distributor Successfully!!!!\"); \r\n    //     }\r\n    //     else{\r\n    //         revert(\"Transaction between farmer and distributor not happened\");\r\n    //     }\r\n    // }\r\n\r\n\r\n//-------------------------------Distributer Section------------------------//\r\n\r\n    // function distributorDetails(\r\n    //     uint did,\r\n    //     string memory dname, \r\n    //     string memory demail, \r\n    //     string memory dlocation, \r\n    //     uint dphone, \r\n    //     string memory dpassword\r\n    //     ) public{\r\n    //         uint d_id = did;\r\n    //         string memory d_name = dname;\r\n    //         string memory d_email = demail;\r\n    //         string memory d_location = dlocation;\r\n    //         uint d_phone = dphone;\r\n    //         string memory d_password = dpassword;\r\n\r\n    //         distributor.d_id = d_id;\r\n    //         distributor.d_name = d_name;\r\n    //         distributor.d_email = d_email;\r\n    //         distributor.d_location = d_location;\r\n    //         distributor.d_phone = d_phone;\r\n    //         distributor.d_password = d_password;\r\n\r\n    // }\r\n\r\n    // function distributorBatch(uint batchId) public returns(string memory){\r\n    //     if(DistributorState == State.allowed && farmerState == State.allowed ){\r\n    //         product.batch_id = batchId;\r\n    //         DistributorState = State.wait;\r\n    //         return(\"Batch Id is assigned to the product\");    \r\n    //     }\r\n    //     else{\r\n    //         revert(\"Not Assigned Batch ID\");\r\n    //     }\r\n    // }\r\n\r\n    // function selltoRetailer() public returns(string memory){\r\n    //     if(DistributorState == State.wait && farmerState == State.allowed){\r\n    //         product.retailer = retailer.r_name;\r\n    //         RetailerState = State.allowed;\r\n    //         return(\"Distributor sold product to retailer\");\r\n    //     }\r\n    //     else{\r\n    //         revert(\"Transaction between distributor and retailer not happened\");\r\n    //     }\r\n    // }\r\n    \r\n\r\n//---------------------------------------------------retailerDetails--------------------------------------//\r\n\r\n    // function retailerDetails(\r\n    //     uint rid, \r\n    //     string memory rname, \r\n    //     string memory remail, \r\n    //     string memory rlocation, \r\n    //     uint rphone, \r\n    //     string memory rpassword\r\n    //     ) public{\r\n    //         uint r_id = rid;\r\n    //         string memory r_name = rname;\r\n    //         string memory r_email = remail;\r\n    //         string memory r_location = rlocation;\r\n    //         uint r_phone = rphone;\r\n    //         string memory r_password = rpassword;\r\n\r\n    //         retailer.r_id = r_id;\r\n    //         retailer.r_name = r_name;\r\n    //         retailer.r_email = r_email;\r\n    //         retailer.r_location = r_location;\r\n    //         retailer.r_phone = r_phone;\r\n    //         retailer.r_password = r_password;\r\n\r\n    // }\r\n\r\n//-----------------------------------------------------Product-------------------------------------------------------//\r\n\r\n    // function productResult() public view returns(\r\n    //     uint, \r\n    //     string memory, \r\n    //     string memory, \r\n    //     string memory,\r\n    //     string memory, \r\n    //     string memory, \r\n    //     string memory, \r\n    //     string memory\r\n    //     ){  return(\r\n    //         product.batch_id,\r\n    //         product.productName,\r\n    //         product.desc,\r\n    //         product.productType,\r\n    //         product.date_of_harvest,\r\n    //         product.farmer,\r\n    //         product.distributor,\r\n    //         product.retailer\r\n    //     );\r\n    // }\r\n\r\n//--------------------------------------------sample-----------------\r\n\r\n    // address payable user = payable(0x5B38Da6a701c568545dCfcB03FcB875f56beddC4);\r\n    \r\n\r\n}",
  "sourcePath": "C:\\Users\\Mayuresh Prabhu\\OneDrive\\Desktop\\Grp21 - Designing Agricultural Supply Chain Tracking System by using BlockChain\\components\\trial-clone\\agro_chain1\\contracts\\main.sol",
  "compiler": {
    "name": "solc",
    "version": "0.8.17+commit.8df45f5f.Emscripten.clang"
  },
  "schemaVersion": "3.4.13",
  "updatedAt": "2023-05-03T15:35:14.824Z",
  "networkType": "ethereum",
  "devdoc": {
    "kind": "dev",
    "methods": {},
    "version": 1
  },
  "userdoc": {
    "kind": "user",
    "methods": {},
    "version": 1
  }
}