{
  "contractName": "main",
  "abi": [
    {
      "inputs": [],
      "stateMutability": "payable",
      "type": "constructor",
      "payable": true
    },
    {
      "anonymous": false,
      "inputs": [
        {
          "indexed": false,
          "internalType": "uint256",
          "name": "productCode",
          "type": "uint256"
        }
      ],
      "name": "CropRegistered",
      "type": "event"
    },
    {
      "anonymous": false,
      "inputs": [
        {
          "indexed": true,
          "internalType": "address",
          "name": "account",
          "type": "address"
        }
      ],
      "name": "DistributorAdded",
      "type": "event"
    },
    {
      "anonymous": false,
      "inputs": [
        {
          "indexed": true,
          "internalType": "address",
          "name": "account",
          "type": "address"
        }
      ],
      "name": "DistributorRemoved",
      "type": "event"
    },
    {
      "anonymous": false,
      "inputs": [
        {
          "indexed": true,
          "internalType": "address",
          "name": "account",
          "type": "address"
        }
      ],
      "name": "FarmerAdded",
      "type": "event"
    },
    {
      "anonymous": false,
      "inputs": [
        {
          "indexed": true,
          "internalType": "address",
          "name": "account",
          "type": "address"
        }
      ],
      "name": "FarmerRemoved",
      "type": "event"
    },
    {
      "anonymous": false,
      "inputs": [
        {
          "indexed": false,
          "internalType": "uint256",
          "name": "id",
          "type": "uint256"
        },
        {
          "indexed": false,
          "internalType": "uint256",
          "name": "productCode",
          "type": "uint256"
        },
        {
          "indexed": false,
          "internalType": "string",
          "name": "productName",
          "type": "string"
        },
        {
          "indexed": false,
          "internalType": "string",
          "name": "distName",
          "type": "string"
        },
        {
          "indexed": false,
          "internalType": "string",
          "name": "quantity",
          "type": "string"
        },
        {
          "indexed": false,
          "internalType": "string",
          "name": "timestamp",
          "type": "string"
        },
        {
          "indexed": false,
          "internalType": "uint256",
          "name": "price",
          "type": "uint256"
        }
      ],
      "name": "FarmerTransaction",
      "type": "event"
    },
    {
      "anonymous": false,
      "inputs": [
        {
          "indexed": false,
          "internalType": "uint256",
          "name": "productCode",
          "type": "uint256"
        }
      ],
      "name": "ForSaleByFarmer",
      "type": "event"
    },
    {
      "anonymous": false,
      "inputs": [
        {
          "indexed": true,
          "internalType": "address",
          "name": "previousOwner",
          "type": "address"
        },
        {
          "indexed": true,
          "internalType": "address",
          "name": "newOwner",
          "type": "address"
        }
      ],
      "name": "OwnershipTransferred",
      "type": "event"
    },
    {
      "anonymous": false,
      "inputs": [
        {
          "indexed": false,
          "internalType": "uint256",
          "name": "productCode",
          "type": "uint256"
        }
      ],
      "name": "PurchasedByDistributor",
      "type": "event"
    },
    {
      "anonymous": false,
      "inputs": [
        {
          "indexed": false,
          "internalType": "uint256",
          "name": "productCode",
          "type": "uint256"
        }
      ],
      "name": "ReceivedByDistributor",
      "type": "event"
    },
    {
      "anonymous": false,
      "inputs": [
        {
          "indexed": true,
          "internalType": "address",
          "name": "account",
          "type": "address"
        }
      ],
      "name": "RetailerAdded",
      "type": "event"
    },
    {
      "anonymous": false,
      "inputs": [
        {
          "indexed": true,
          "internalType": "address",
          "name": "account",
          "type": "address"
        }
      ],
      "name": "RetailerRemoved",
      "type": "event"
    },
    {
      "anonymous": false,
      "inputs": [
        {
          "indexed": false,
          "internalType": "uint256",
          "name": "productCode",
          "type": "uint256"
        }
      ],
      "name": "ShippedByFarmer",
      "type": "event"
    },
    {
      "inputs": [
        {
          "internalType": "address",
          "name": "account",
          "type": "address"
        }
      ],
      "name": "addDistributor",
      "outputs": [],
      "stateMutability": "nonpayable",
      "type": "function"
    },
    {
      "inputs": [
        {
          "internalType": "address",
          "name": "account",
          "type": "address"
        }
      ],
      "name": "addFarmer",
      "outputs": [],
      "stateMutability": "nonpayable",
      "type": "function"
    },
    {
      "inputs": [
        {
          "internalType": "address",
          "name": "account",
          "type": "address"
        }
      ],
      "name": "addRetailer",
      "outputs": [],
      "stateMutability": "nonpayable",
      "type": "function"
    },
    {
      "inputs": [
        {
          "internalType": "address",
          "name": "account",
          "type": "address"
        }
      ],
      "name": "isDistributor",
      "outputs": [
        {
          "internalType": "bool",
          "name": "",
          "type": "bool"
        }
      ],
      "stateMutability": "view",
      "type": "function",
      "constant": true
    },
    {
      "inputs": [
        {
          "internalType": "address",
          "name": "account",
          "type": "address"
        }
      ],
      "name": "isFarmer",
      "outputs": [
        {
          "internalType": "bool",
          "name": "",
          "type": "bool"
        }
      ],
      "stateMutability": "view",
      "type": "function",
      "constant": true
    },
    {
      "inputs": [],
      "name": "isOwner",
      "outputs": [
        {
          "internalType": "address",
          "name": "",
          "type": "address"
        }
      ],
      "stateMutability": "view",
      "type": "function",
      "constant": true
    },
    {
      "inputs": [
        {
          "internalType": "address",
          "name": "account",
          "type": "address"
        }
      ],
      "name": "isRetailer",
      "outputs": [
        {
          "internalType": "bool",
          "name": "",
          "type": "bool"
        }
      ],
      "stateMutability": "view",
      "type": "function",
      "constant": true
    },
    {
      "inputs": [],
      "name": "noteCount",
      "outputs": [
        {
          "internalType": "uint256",
          "name": "",
          "type": "uint256"
        }
      ],
      "stateMutability": "view",
      "type": "function",
      "constant": true
    },
    {
      "inputs": [],
      "name": "ownerLookup",
      "outputs": [
        {
          "internalType": "address",
          "name": "",
          "type": "address"
        }
      ],
      "stateMutability": "view",
      "type": "function",
      "constant": true
    },
    {
      "inputs": [],
      "name": "renounceDistributor",
      "outputs": [],
      "stateMutability": "nonpayable",
      "type": "function"
    },
    {
      "inputs": [],
      "name": "renounceFarmer",
      "outputs": [],
      "stateMutability": "nonpayable",
      "type": "function"
    },
    {
      "inputs": [],
      "name": "renounceOwnership",
      "outputs": [],
      "stateMutability": "nonpayable",
      "type": "function"
    },
    {
      "inputs": [],
      "name": "renounceRetailer",
      "outputs": [],
      "stateMutability": "nonpayable",
      "type": "function"
    },
    {
      "inputs": [
        {
          "internalType": "address",
          "name": "newOwner",
          "type": "address"
        }
      ],
      "name": "transferOwnership",
      "outputs": [],
      "stateMutability": "nonpayable",
      "type": "function"
    },
    {
      "inputs": [],
      "name": "kill",
      "outputs": [],
      "stateMutability": "nonpayable",
      "type": "function"
    },
    {
      "inputs": [
        {
          "internalType": "uint256",
          "name": "_productCode",
          "type": "uint256"
        },
        {
          "internalType": "string",
          "name": "_productName",
          "type": "string"
        },
        {
          "internalType": "string",
          "name": "_productType",
          "type": "string"
        },
        {
          "internalType": "string",
          "name": "_productDescription",
          "type": "string"
        },
        {
          "internalType": "string",
          "name": "_productDate",
          "type": "string"
        },
        {
          "internalType": "string",
          "name": "_farmName",
          "type": "string"
        },
        {
          "internalType": "uint256",
          "name": "_price",
          "type": "uint256"
        }
      ],
      "name": "cropRegisteredByFarmer",
      "outputs": [],
      "stateMutability": "nonpayable",
      "type": "function"
    },
    {
      "inputs": [
        {
          "internalType": "uint256",
          "name": "_productCode",
          "type": "uint256"
        }
      ],
      "name": "purchaseItemByDistributor",
      "outputs": [],
      "stateMutability": "payable",
      "type": "function",
      "payable": true
    },
    {
      "inputs": [
        {
          "internalType": "uint256",
          "name": "_id",
          "type": "uint256"
        },
        {
          "internalType": "uint256",
          "name": "_productCode",
          "type": "uint256"
        },
        {
          "internalType": "string",
          "name": "_productName",
          "type": "string"
        },
        {
          "internalType": "string",
          "name": "_distName",
          "type": "string"
        },
        {
          "internalType": "string",
          "name": "_quantity",
          "type": "string"
        },
        {
          "internalType": "string",
          "name": "_timestamp",
          "type": "string"
        },
        {
          "internalType": "uint256",
          "name": "_price",
          "type": "uint256"
        }
      ],
      "name": "transactionByFarmer",
      "outputs": [],
      "stateMutability": "nonpayable",
      "type": "function"
    }
  ],
  "bytecode": "0x60806040526000600855620000296200001d620000e760201b60201c565b620000ef60201b60201c565b620000496200003d620000e760201b60201c565b620001b360201b60201c565b620000696200005d620000e760201b60201c565b6200021460201b60201c565b620000896200007d620000e760201b60201c565b6200027560201b60201c565b62000099620000e760201b60201c565b600560006101000a81548173ffffffffffffffffffffffffffffffffffffffff021916908373ffffffffffffffffffffffffffffffffffffffff16021790555060016006819055506200041d565b600033905090565b60008060009054906101000a900473ffffffffffffffffffffffffffffffffffffffff169050816000806101000a81548173ffffffffffffffffffffffffffffffffffffffff021916908373ffffffffffffffffffffffffffffffffffffffff1602179055508173ffffffffffffffffffffffffffffffffffffffff168173ffffffffffffffffffffffffffffffffffffffff167f8be0079c531659141344cd1fd0a4f28419497f9722a3daafe3b4186f6b6457e060405160405180910390a35050565b620001ce816001620002d660201b62000e521790919060201c565b8073ffffffffffffffffffffffffffffffffffffffff167f2e0ded4123377a3c2bc9a26f1717655a129e2f20752924d42e730ec89c83dbd060405160405180910390a250565b6200022f816002620002d660201b62000e521790919060201c565b8073ffffffffffffffffffffffffffffffffffffffff167fddbf200aa634dc3fb81cfd68583dd1040d1c751d335e1d86b631bde3e977fea860405160405180910390a250565b62000290816003620002d660201b62000e521790919060201c565b8073ffffffffffffffffffffffffffffffffffffffff167f71ae26cad02663e3d92efd6ec56031a80d74a20c0ab4183faa8bf262261c9baa60405160405180910390a250565b600073ffffffffffffffffffffffffffffffffffffffff168173ffffffffffffffffffffffffffffffffffffffff16036200031057600080fd5b6200032282826200038b60201b60201c565b156200032d57600080fd5b60018260000160008373ffffffffffffffffffffffffffffffffffffffff1673ffffffffffffffffffffffffffffffffffffffff16815260200190815260200160002060006101000a81548160ff0219169083151502179055505050565b60008073ffffffffffffffffffffffffffffffffffffffff168273ffffffffffffffffffffffffffffffffffffffff1603620003c657600080fd5b8260000160008373ffffffffffffffffffffffffffffffffffffffff1673ffffffffffffffffffffffffffffffffffffffff16815260200190815260200160002060009054906101000a900460ff16905092915050565b611f97806200042d6000396000f3fe6080604052600436106101095760003560e01c806380fc0ce411610095578063b942906911610064578063b942906914610307578063db0e6a2f14610344578063e02e64ea1461035b578063f2fde38b14610386578063fdcdc06f146103af57610109565b806380fc0ce41461025f5780638ec4f505146102765780638f0c86fa1461029f5780638f32d59b146102dc57610109565b8063644241db116100dc578063644241db146101b657806364c7505a146101cd578063715018a6146101f65780637250e2241461020d57806380c3f96d1461023657610109565b8063117a4aa71461010e578063317a4c761461013757806341c0e1b5146101625780635da09b8814610179575b600080fd5b34801561011a57600080fd5b506101356004803603810190610130919061161f565b6103cb565b005b34801561014357600080fd5b5061014c6107b3565b604051610159919061175c565b60405180910390f35b34801561016e57600080fd5b506101776107b9565b005b34801561018557600080fd5b506101a0600480360381019061019b91906117d5565b61085f565b6040516101ad919061181d565b60405180910390f35b3480156101c257600080fd5b506101cb61087c565b005b3480156101d957600080fd5b506101f460048036038101906101ef9190611838565b61088e565b005b34801561020257600080fd5b5061020b6109b7565b005b34801561021957600080fd5b50610234600480360381019061022f91906117d5565b6109cb565b005b34801561024257600080fd5b5061025d600480360381019061025891906117d5565b6109f0565b005b34801561026b57600080fd5b50610274610a15565b005b34801561028257600080fd5b5061029d600480360381019061029891906117d5565b610a27565b005b3480156102ab57600080fd5b506102c660048036038101906102c191906117d5565b610a4c565b6040516102d3919061181d565b60405180910390f35b3480156102e857600080fd5b506102f1610a69565b6040516102fe9190611959565b60405180910390f35b34801561031357600080fd5b5061032e600480360381019061032991906117d5565b610a92565b60405161033b919061181d565b60405180910390f35b34801561035057600080fd5b50610359610aaf565b005b34801561036757600080fd5b50610370610ac1565b60405161037d9190611959565b60405180910390f35b34801561039257600080fd5b506103ad60048036038101906103a891906117d5565b610aea565b005b6103c960048036038101906103c49190611974565b610b6d565b005b6103db6103d6610efd565b610a92565b6103e457600080fd5b6000806103ef6113a8565b89816020018181525050610401610efd565b816040019073ffffffffffffffffffffffffffffffffffffffff16908173ffffffffffffffffffffffffffffffffffffffff1681525050610440610efd565b816060019073ffffffffffffffffffffffffffffffffffffffff16908173ffffffffffffffffffffffffffffffffffffffff1681525050848160800181905250868160a00181905250878160e00181905250838161014001818152505042816101200181815250506000816101600190600a8111156104c2576104c16119a1565b5b9081600a8111156104d6576104d56119a1565b5b815250508281610180019073ffffffffffffffffffffffffffffffffffffffff16908173ffffffffffffffffffffffffffffffffffffffff168152505081816101a0019073ffffffffffffffffffffffffffffffffffffffff16908173ffffffffffffffffffffffffffffffffffffffff168152505080600760008c8152602001908152602001600020600082015181600001556020820151816001015560408201518160020160006101000a81548173ffffffffffffffffffffffffffffffffffffffff021916908373ffffffffffffffffffffffffffffffffffffffff16021790555060608201518160030160006101000a81548173ffffffffffffffffffffffffffffffffffffffff021916908373ffffffffffffffffffffffffffffffffffffffff16021790555060808201518160040190816106179190611be7565b5060a082015181600501908161062d9190611be7565b5060c0820151816006015560e082015181600701908161064d9190611be7565b506101008201518160080190816106649190611be7565b50610120820151816009015561014082015181600a015561016082015181600b0160006101000a81548160ff0219169083600a8111156106a7576106a66119a1565b5b021790555061018082015181600b0160016101000a81548173ffffffffffffffffffffffffffffffffffffffff021916908373ffffffffffffffffffffffffffffffffffffffff1602179055506101a082015181600c0160006101000a81548173ffffffffffffffffffffffffffffffffffffffff021916908373ffffffffffffffffffffffffffffffffffffffff1602179055506101c082015181600d0190816107529190611be7565b506101e082015181600e0190816107699190611be7565b5090505060007f36035b711719171c5d396e693e0eb1dc781a6cbfbbdff7f8e883383aaadfc4c18b60405161079e919061175c565b60405180910390a15050505050505050505050565b60085481565b600560009054906101000a900473ffffffffffffffffffffffffffffffffffffffff1673ffffffffffffffffffffffffffffffffffffffff166107fa610efd565b73ffffffffffffffffffffffffffffffffffffffff160361085d576000610842600560009054906101000a900473ffffffffffffffffffffffffffffffffffffffff16610f05565b90508073ffffffffffffffffffffffffffffffffffffffff16ff5b565b6000610875826003610f0f90919063ffffffff16565b9050919050565b61088c610887610efd565b610fa0565b565b6040518060e00160405280600854815260200187815260200186815260200185815260200184815260200183815260200182815250600460006008548152602001908152602001600020600082015181600001556020820151816001015560408201518160020190816109019190611be7565b5060608201518160030190816109179190611be7565b50608082015181600401908161092d9190611be7565b5060a08201518160050190816109439190611be7565b5060c082015181600601559050507fdc7748e1a2bb6d1337419da0e36daa28a8971f039ffcaa86aafa5eda0833e12060085487878787878760405161098e9796959493929190611d2d565b60405180910390a1600860008154809291906109a990611de7565b919050555050505050505050565b6109bf610ffa565b6109c96000611078565b565b6109db6109d6610efd565b610a4c565b6109e457600080fd5b6109ed8161113c565b50565b610a006109fb610efd565b610a92565b610a0957600080fd5b610a1281611196565b50565b610a25610a20610efd565b6111f0565b565b610a37610a32610efd565b61085f565b610a4057600080fd5b610a498161124a565b50565b6000610a62826002610f0f90919063ffffffff16565b9050919050565b60008060009054906101000a900473ffffffffffffffffffffffffffffffffffffffff16905090565b6000610aa8826001610f0f90919063ffffffff16565b9050919050565b610abf610aba610efd565b6112a4565b565b60008060009054906101000a900473ffffffffffffffffffffffffffffffffffffffff16905090565b610af2610ffa565b600073ffffffffffffffffffffffffffffffffffffffff168173ffffffffffffffffffffffffffffffffffffffff1603610b61576040517f08c379a0000000000000000000000000000000000000000000000000000000008152600401610b5890611ea1565b60405180910390fd5b610b6a81611078565b50565b610b7d610b78610efd565b610a4c565b610b8657600080fd5b806001600a811115610b9b57610b9a6119a1565b5b60076000838152602001908152602001600020600b0160009054906101000a900460ff16600a811115610bd157610bd06119a1565b5b14610bdb57600080fd5b60076000838152602001908152602001600020600a015480341015610bff57600080fd5b82610c08610efd565b600060076000848152602001908152602001600020600a0154905060008134610c319190611ec1565b90508273ffffffffffffffffffffffffffffffffffffffff166108fc829081150290604051600060405180830381858888f19350505050158015610c79573d6000803e3d6000fd5b506000610cbb600760008a815260200190815260200160002060030160009054906101000a900473ffffffffffffffffffffffffffffffffffffffff16610f05565b90508073ffffffffffffffffffffffffffffffffffffffff166108fc600760008b8152602001908152602001600020600a01549081150290604051600060405180830381858888f19350505050158015610d19573d6000803e3d6000fd5b50610d22610efd565b600760008a815260200190815260200160002060020160006101000a81548173ffffffffffffffffffffffffffffffffffffffff021916908373ffffffffffffffffffffffffffffffffffffffff160217905550610d7e610efd565b600760008a8152602001908152602001600020600b0160016101000a81548173ffffffffffffffffffffffffffffffffffffffff021916908373ffffffffffffffffffffffffffffffffffffffff1602179055506002600760008a8152602001908152602001600020600b0160006101000a81548160ff0219169083600a811115610e0c57610e0b6119a1565b5b02179055507facd9402b9f9e8c15fa7c1819f8393ca56eb61316cc354fc6ac2150aed3ce793188604051610e40919061175c565b60405180910390a15050505050505050565b600073ffffffffffffffffffffffffffffffffffffffff168173ffffffffffffffffffffffffffffffffffffffff1603610e8b57600080fd5b610e958282610f0f565b15610e9f57600080fd5b60018260000160008373ffffffffffffffffffffffffffffffffffffffff1673ffffffffffffffffffffffffffffffffffffffff16815260200190815260200160002060006101000a81548160ff0219169083151502179055505050565b600033905090565b6000819050919050565b60008073ffffffffffffffffffffffffffffffffffffffff168273ffffffffffffffffffffffffffffffffffffffff1603610f4957600080fd5b8260000160008373ffffffffffffffffffffffffffffffffffffffff1673ffffffffffffffffffffffffffffffffffffffff16815260200190815260200160002060009054906101000a900460ff16905092915050565b610fb48160026112fe90919063ffffffff16565b8073ffffffffffffffffffffffffffffffffffffffff167f126174f6cf49c81cdb4a9214c6b8f037bef55b4ec31e4fc776cea2a1c8a88d5960405160405180910390a250565b611002610a69565b73ffffffffffffffffffffffffffffffffffffffff16611020610efd565b73ffffffffffffffffffffffffffffffffffffffff1614611076576040517f08c379a000000000000000000000000000000000000000000000000000000000815260040161106d90611f41565b60405180910390fd5b565b60008060009054906101000a900473ffffffffffffffffffffffffffffffffffffffff169050816000806101000a81548173ffffffffffffffffffffffffffffffffffffffff021916908373ffffffffffffffffffffffffffffffffffffffff1602179055508173ffffffffffffffffffffffffffffffffffffffff168173ffffffffffffffffffffffffffffffffffffffff167f8be0079c531659141344cd1fd0a4f28419497f9722a3daafe3b4186f6b6457e060405160405180910390a35050565b611150816002610e5290919063ffffffff16565b8073ffffffffffffffffffffffffffffffffffffffff167fddbf200aa634dc3fb81cfd68583dd1040d1c751d335e1d86b631bde3e977fea860405160405180910390a250565b6111aa816001610e5290919063ffffffff16565b8073ffffffffffffffffffffffffffffffffffffffff167f2e0ded4123377a3c2bc9a26f1717655a129e2f20752924d42e730ec89c83dbd060405160405180910390a250565b6112048160016112fe90919063ffffffff16565b8073ffffffffffffffffffffffffffffffffffffffff167fa5e0f060af304ab17dd418c7927e3da3ae7868189bf387aee09ab179ccc572f260405160405180910390a250565b61125e816003610e5290919063ffffffff16565b8073ffffffffffffffffffffffffffffffffffffffff167f71ae26cad02663e3d92efd6ec56031a80d74a20c0ab4183faa8bf262261c9baa60405160405180910390a250565b6112b88160036112fe90919063ffffffff16565b8073ffffffffffffffffffffffffffffffffffffffff167fdb7176e79cffef81cb01767dd0447a0b24bb72ca9778d4b245581086b2a7e6db60405160405180910390a250565b600073ffffffffffffffffffffffffffffffffffffffff168173ffffffffffffffffffffffffffffffffffffffff160361133757600080fd5b6113418282610f0f565b61134a57600080fd5b60008260000160008373ffffffffffffffffffffffffffffffffffffffff1673ffffffffffffffffffffffffffffffffffffffff16815260200190815260200160002060006101000a81548160ff0219169083151502179055505050565b6040518061020001604052806000815260200160008152602001600073ffffffffffffffffffffffffffffffffffffffff168152602001600073ffffffffffffffffffffffffffffffffffffffff168152602001606081526020016060815260200160008152602001606081526020016060815260200160008152602001600081526020016000600a811115611441576114406119a1565b5b8152602001600073ffffffffffffffffffffffffffffffffffffffff168152602001600073ffffffffffffffffffffffffffffffffffffffff16815260200160608152602001606081525090565b6000604051905090565b600080fd5b600080fd5b6000819050919050565b6114b6816114a3565b81146114c157600080fd5b50565b6000813590506114d3816114ad565b92915050565b600080fd5b600080fd5b6000601f19601f8301169050919050565b7f4e487b7100000000000000000000000000000000000000000000000000000000600052604160045260246000fd5b61152c826114e3565b810181811067ffffffffffffffff8211171561154b5761154a6114f4565b5b80604052505050565b600061155e61148f565b905061156a8282611523565b919050565b600067ffffffffffffffff82111561158a576115896114f4565b5b611593826114e3565b9050602081019050919050565b82818337600083830152505050565b60006115c26115bd8461156f565b611554565b9050828152602081018484840111156115de576115dd6114de565b5b6115e98482856115a0565b509392505050565b600082601f830112611606576116056114d9565b5b81356116168482602086016115af565b91505092915050565b600080600080600080600060e0888a03121561163e5761163d611499565b5b600061164c8a828b016114c4565b975050602088013567ffffffffffffffff81111561166d5761166c61149e565b5b6116798a828b016115f1565b965050604088013567ffffffffffffffff81111561169a5761169961149e565b5b6116a68a828b016115f1565b955050606088013567ffffffffffffffff8111156116c7576116c661149e565b5b6116d38a828b016115f1565b945050608088013567ffffffffffffffff8111156116f4576116f361149e565b5b6117008a828b016115f1565b93505060a088013567ffffffffffffffff8111156117215761172061149e565b5b61172d8a828b016115f1565b92505060c061173e8a828b016114c4565b91505092959891949750929550565b611756816114a3565b82525050565b6000602082019050611771600083018461174d565b92915050565b600073ffffffffffffffffffffffffffffffffffffffff82169050919050565b60006117a282611777565b9050919050565b6117b281611797565b81146117bd57600080fd5b50565b6000813590506117cf816117a9565b92915050565b6000602082840312156117eb576117ea611499565b5b60006117f9848285016117c0565b91505092915050565b60008115159050919050565b61181781611802565b82525050565b6000602082019050611832600083018461180e565b92915050565b600080600080600080600060e0888a03121561185757611856611499565b5b60006118658a828b016114c4565b97505060206118768a828b016114c4565b965050604088013567ffffffffffffffff8111156118975761189661149e565b5b6118a38a828b016115f1565b955050606088013567ffffffffffffffff8111156118c4576118c361149e565b5b6118d08a828b016115f1565b945050608088013567ffffffffffffffff8111156118f1576118f061149e565b5b6118fd8a828b016115f1565b93505060a088013567ffffffffffffffff81111561191e5761191d61149e565b5b61192a8a828b016115f1565b92505060c061193b8a828b016114c4565b91505092959891949750929550565b61195381611797565b82525050565b600060208201905061196e600083018461194a565b92915050565b60006020828403121561198a57611989611499565b5b6000611998848285016114c4565b91505092915050565b7f4e487b7100000000000000000000000000000000000000000000000000000000600052602160045260246000fd5b600081519050919050565b7f4e487b7100000000000000000000000000000000000000000000000000000000600052602260045260246000fd5b60006002820490506001821680611a2257607f821691505b602082108103611a3557611a346119db565b5b50919050565b60008190508160005260206000209050919050565b60006020601f8301049050919050565b600082821b905092915050565b600060088302611a9d7fffffffffffffffffffffffffffffffffffffffffffffffffffffffffffffffff82611a60565b611aa78683611a60565b95508019841693508086168417925050509392505050565b6000819050919050565b6000611ae4611adf611ada846114a3565b611abf565b6114a3565b9050919050565b6000819050919050565b611afe83611ac9565b611b12611b0a82611aeb565b848454611a6d565b825550505050565b600090565b611b27611b1a565b611b32818484611af5565b505050565b5b81811015611b5657611b4b600082611b1f565b600181019050611b38565b5050565b601f821115611b9b57611b6c81611a3b565b611b7584611a50565b81016020851015611b84578190505b611b98611b9085611a50565b830182611b37565b50505b505050565b600082821c905092915050565b6000611bbe60001984600802611ba0565b1980831691505092915050565b6000611bd78383611bad565b9150826002028217905092915050565b611bf0826119d0565b67ffffffffffffffff811115611c0957611c086114f4565b5b611c138254611a0a565b611c1e828285611b5a565b600060209050601f831160018114611c515760008415611c3f578287015190505b611c498582611bcb565b865550611cb1565b601f198416611c5f86611a3b565b60005b82811015611c8757848901518255600182019150602085019450602081019050611c62565b86831015611ca45784890151611ca0601f891682611bad565b8355505b6001600288020188555050505b505050505050565b600082825260208201905092915050565b60005b83811015611ce8578082015181840152602081019050611ccd565b60008484015250505050565b6000611cff826119d0565b611d098185611cb9565b9350611d19818560208601611cca565b611d22816114e3565b840191505092915050565b600060e082019050611d42600083018a61174d565b611d4f602083018961174d565b8181036040830152611d618188611cf4565b90508181036060830152611d758187611cf4565b90508181036080830152611d898186611cf4565b905081810360a0830152611d9d8185611cf4565b9050611dac60c083018461174d565b98975050505050505050565b7f4e487b7100000000000000000000000000000000000000000000000000000000600052601160045260246000fd5b6000611df2826114a3565b91507fffffffffffffffffffffffffffffffffffffffffffffffffffffffffffffffff8203611e2457611e23611db8565b5b600182019050919050565b7f4f776e61626c653a206e6577206f776e657220697320746865207a65726f206160008201527f6464726573730000000000000000000000000000000000000000000000000000602082015250565b6000611e8b602683611cb9565b9150611e9682611e2f565b604082019050919050565b60006020820190508181036000830152611eba81611e7e565b9050919050565b6000611ecc826114a3565b9150611ed7836114a3565b9250828203905081811115611eef57611eee611db8565b5b92915050565b7f4f776e61626c653a2063616c6c6572206973206e6f7420746865206f776e6572600082015250565b6000611f2b602083611cb9565b9150611f3682611ef5565b602082019050919050565b60006020820190508181036000830152611f5a81611f1e565b905091905056fea264697066735822122074c73fcfd783f1ba62f24024699f558be764af1c6d59669d287a7750b9125e2564736f6c63430008110033",
  "immutableReferences": {},
  "source": "// SPDX-License-Identifier: GPL-3.0\r\nimport \"./Ownable.sol\";\r\nimport \"./FarmerRole.sol\";\r\nimport \"./DistributorRole.sol\";\r\nimport \"./RetailerRole.sol\";\r\nimport \"./Roles.sol\";\r\nimport \"./Context.sol\";\r\n\r\npragma solidity >= 0.5.0 < 0.9.0;\r\n\r\ncontract main is\r\n    Ownable,\r\n    FarmerRole,\r\n    DistributorRole,\r\n    RetailerRole\r\n{\r\n  struct Transbyfarmer{\r\n    uint256 id;\r\n    uint256 productCode;\r\n    string productName;\r\n    string distName;\r\n    string quantity;\r\n    string timestamp;\r\n    uint256 price;\r\n}\r\n    mapping(uint256 => Transbyfarmer) transbyfarmer;\r\n\r\n\r\n    event FarmerTransaction(uint256 id,uint256 productCode,string productName,string distName,string quantity,string timestamp,uint256 price);\r\n\r\n    address owner;\r\n    // Define a variable called 'productCode' for Universal Product Code (productCode)\r\n    uint256 productCode;\r\n    // Define a variable called 'stockUnit' for Stock Keeping Unit (stockUnit)\r\n    // uint256 stockUnit;\r\n    // Define a public mapping 'items' that maps the productCode to an Item.\r\n    mapping(uint256 => Item) items;\r\n    // Define a public mapping 'itemsHistory' that maps the productCode to an array of TxHash,\r\n    // that track its journey through the supply chain -- to be sent from DApp.\r\n    // mapping(uint256 => Txblocks) itemsHistory;\r\n\r\n    enum Modified {\r\n        CropRegistered,\r\n        ForSaleByFarmer,\r\n        PurchasedByDistributor,\r\n        ShippedByFarmer, // 3\r\n        ReceivedByDistributor, // 4\r\n        ProcessedByDistributor, // 6\r\n        ForSaleByDistributor, // 7\r\n        PurchasedByRetailer, // 8\r\n        ShippedByDistributor, // 9\r\n        ReceivedByRetailer, // 10\r\n        ForSaleByRetailer\r\n    }\r\n\r\n    Modified constant defaultState = Modified.CropRegistered;\r\n\r\n    uint256 public noteCount = 0;\r\n\r\n  \r\n    struct Item {\r\n        uint256 stockUnit; // Stock Keeping Unit (stockUnit)\r\n        uint256 productCode; // Universal Product Code (productCode), generated by the Farmer, goes on the package, can be verified by the Consumer\r\n        address ownerID; // Metamask-Ethereum address of the current owner as the product moves through 8 stages\r\n        address farmerID; // Metamask-Ethereum address of the Farmer // ADDED PAYABLE\r\n        string farmName; // Farmer Name\r\n        string productDescription; // product Description \r\n        uint256 productID; // Product ID potentially a combination of productCode + stockUnit\r\n        string productType; // Product types\r\n        string productName;\r\n        uint256 productDate; // Product Date NOTE: MIGHT NEED TO CHANGE type\r\n        uint256 productPrice; // Product Price\r\n        Modified itemState; // Product State as represented in the enum above\r\n        address distributorID; // Metamask-Ethereum address of the Distributor\r\n        address retailerID; // Metamask-Ethereum address of the Retailer\r\n        string distName;\r\n        string retailName;\r\n\r\n    }\r\n\r\n    // Block number stuct\r\n    // struct Txblocks {\r\n    //     uint256 FTD; // blockfarmerToDistributor\r\n    //     uint256 DTR; // blockDistributorToRetailer\r\n    // }\r\n\r\n    event CropRegistered(uint256 productCode); //1\r\n    event ForSaleByFarmer(uint256 productCode); //2\r\n    event PurchasedByDistributor(uint256 productCode); //3\r\n    event ShippedByFarmer(uint256 productCode); //4\r\n    event ReceivedByDistributor(uint256 productCode); //5\r\n    // event ProcessedByDistributor(uint256 productCode); //6\r\n    // event ForSaleByDistributor(uint256 productCode); //7\r\n    // event PurchasedByRetailer(uint256 productCode); //8\r\n    // event ShippedByDistributor(uint256 productCode); //9\r\n    // event ReceivedByRetailer(uint256 productCode); //10\r\n    // event ForSaleByRetailer(uint256 productCode); //11\r\n\r\n    // Define a modifer that checks to see if _msgSender() == owner of the contract\r\n    modifier only_Owner() {\r\n        require(_msgSender() == owner);\r\n        _;\r\n    }\r\n\r\n    // Define a modifer that verifies the Caller\r\n    modifier verifyCaller(address _address) {\r\n        require(_msgSender() == _address);\r\n        _;\r\n    }\r\n\r\n    // Define a modifier that checks if the paid amount is sufficient to cover the price\r\n    modifier paidEnough(uint256 _price) {\r\n        require(msg.value >= _price);\r\n        _;\r\n    }\r\n\r\n    // Define a modifier that checks the price and refunds the remaining balance\r\n    modifier checkValue(uint256 _productCode, address payable addressToFund) {\r\n        uint256 _price = items[_productCode].productPrice;\r\n        uint256 amountToReturn = msg.value - _price;\r\n        addressToFund.transfer(amountToReturn);\r\n        _;\r\n    }\r\n\r\n\r\n    //Item State Modifiers\r\n    modifier producedByFarmer(uint256 _productCode) {\r\n        require(items[_productCode].itemState == Modified.CropRegistered);\r\n        _;\r\n    }\r\n\r\n    modifier forSaleByFarmer(uint256 _productCode) {\r\n        require(items[_productCode].itemState == Modified.ForSaleByFarmer);\r\n        _;\r\n    }\r\n\r\n    modifier purchasedByDistributor(uint256 _productCode) {\r\n        require(items[_productCode].itemState == Modified.PurchasedByDistributor);\r\n        _;\r\n    }\r\n\r\n    modifier shippedByFarmer(uint256 _productCode) {\r\n        require(items[_productCode].itemState == Modified.ShippedByFarmer);\r\n        _;\r\n    }\r\n\r\n    modifier receivedByDistributor(uint256 _productCode) {\r\n        require(items[_productCode].itemState == Modified.ReceivedByDistributor);\r\n        _;\r\n    }\r\n\r\n      modifier processByDistributor(uint256 _productCode) {\r\n        require(items[_productCode].itemState == Modified.ProcessedByDistributor);\r\n        _;\r\n    }\r\n\r\n    modifier forSaleByDistributor(uint256 _productCode) {\r\n        require(items[_productCode].itemState == Modified.ForSaleByDistributor);\r\n        _;\r\n    }\r\n\r\n    modifier shippedByDistributor(uint256 _productCode) {\r\n        require(items[_productCode].itemState == Modified.ShippedByDistributor);\r\n        _;\r\n    }\r\n\r\n    modifier purchasedByRetailer(uint256 _productCode) {\r\n        require(items[_productCode].itemState == Modified.PurchasedByRetailer);\r\n        _;\r\n    }\r\n\r\n    modifier receivedByRetailer(uint256 _productCode) {\r\n        require(items[_productCode].itemState == Modified.ReceivedByRetailer);\r\n        _;\r\n    }\r\n\r\n    modifier forSaleByRetailer(uint256 _productCode) {\r\n        require(items[_productCode].itemState == Modified.ForSaleByRetailer);\r\n        _;\r\n    }\r\n\r\n    // constructor setup owner stockUnit productCode\r\n    constructor() public payable {\r\n        owner = _msgSender();\r\n        // stockUnit = 1;\r\n        productCode = 1;\r\n    }\r\n\r\n    // Define a function 'kill'\r\n    function kill() public {\r\n        if (_msgSender() == owner) {\r\n            address payable ownerAddressPayable = _make_payable(owner);\r\n            selfdestruct(ownerAddressPayable);\r\n        }\r\n    }\r\n\r\n    // allows you to convert an address into a payable address\r\n    function _make_payable(address x) internal pure returns (address payable) {\r\n        return payable(address(uint160(x)));\r\n    }\r\n\r\n\r\n/*\r\n 1st step in supplychain\r\n Allows farmer to create product\r\n*/\r\n    function cropRegisteredByFarmer(\r\n        uint256 _productCode,\r\n        string memory _productName,\r\n        string memory _productType, \r\n        string memory _productDescription,\r\n        string memory _productDate,\r\n        string memory _farmName,\r\n        uint256 _price)\r\n        public onlyFarmer \r\n    {\r\n        address distributorID; // Empty distributorID address\r\n        address retailerID; // Empty retailerID address\r\n       \r\n        Item memory newProduce; // Create a new struct Item in memory\r\n        // newProduce.stockUnit = stockUnit; // Stock Keeping Unit (stockUnit)\r\n        newProduce.productCode = _productCode; // Universal Product Code (productCode), generated by the Farmer, goes on the package, can be verified by the Consumer\r\n        newProduce.ownerID = _msgSender(); // Metamask-Ethereum address of the current owner as the product moves through 8 stages\r\n        newProduce.farmerID = _msgSender(); // Metamask-Ethereum address of the Farmer\r\n        newProduce.farmName = _farmName; // Farmer Name\r\n        newProduce.productDescription = _productDescription; // Product Decription Information\r\n       \r\n        // newProduce.productID = _productCode + stockUnit; // Product ID\r\n        newProduce.productType = _productType; // Product Type\r\n        newProduce.productPrice = _price; // Product Price\r\n        newProduce.productDate = block.timestamp;\r\n        \r\n        newProduce.itemState = defaultState; // Product State as represented in the enum above\r\n        newProduce.distributorID = distributorID; // Metamask-Ethereum address of the Distributor\r\n        newProduce.retailerID = retailerID; // Metamask-Ethereum address of the Retailer\r\n       \r\n        items[_productCode] = newProduce; // Add newProduce to items struct by productCode\r\n        uint256 placeholder; // Block number place holder\r\n        // Txblocks memory txBlock; // create new txBlock struct\r\n        // txBlock.FTD = placeholder; // assign placeholder values\r\n        // txBlock.DTR = placeholder;\r\n        \r\n        // itemsHistory[_productCode] = txBlock; // add txBlock to itemsHistory mapping by productCode\r\n\r\n        // Increment stockUnit\r\n        // stockUnit = stockUnit + 1;\r\n\r\n        // Emit the appropriate event\r\n        emit CropRegistered(_productCode);\r\n    }\r\n\r\n/*\r\n2nd step in supplychain\r\nAllows farmer to sell product\r\n*/\r\n    function sellItemByFarmer(uint256 _productCode, uint256 _price)\r\n        internal\r\n        onlyFarmer // check _msgSender() belongs to farmerRole\r\n        producedByFarmer(_productCode) // check items state has been produced\r\n        verifyCaller(items[_productCode].ownerID) // check _msgSender() is owner\r\n    {\r\n        items[_productCode].itemState = Modified.ForSaleByFarmer;\r\n        items[_productCode].productPrice = _price;\r\n        emit ForSaleByFarmer(_productCode);\r\n    }\r\n\r\n/*\r\n3rd step in supplychain\r\nAllows distributor to purchase product\r\n*/\r\n    function purchaseItemByDistributor(uint256 _productCode)\r\n        public\r\n        payable\r\n        onlyDistributor // check _msgSender() belongs to distributorRole\r\n        forSaleByFarmer(_productCode) // check items state is for ForSaleByFarmer\r\n        paidEnough(items[_productCode].productPrice) // check if distributor sent enough Ether for product\r\n        checkValue(_productCode, payable(_msgSender())) // check if overpayed return remaing funds back to _msgSender()\r\n    {\r\n        address payable ownerAddressPayable = _make_payable(\r\n            items[_productCode].farmerID\r\n        ); // make originFarmID payable\r\n        ownerAddressPayable.transfer(items[_productCode].productPrice); // transfer funds from distributor to farmer\r\n        items[_productCode].ownerID = _msgSender(); // update owner\r\n        items[_productCode].distributorID = _msgSender(); // update distributor\r\n        items[_productCode].itemState = Modified.PurchasedByDistributor; // update state\r\n        // itemsHistory[_productCode].FTD = block.number; // add block number\r\n        emit PurchasedByDistributor(_productCode);\r\n    }\r\n\r\n /*\r\n  4th step in supplychain\r\n  Allows farmer to ship product purchased by distributor\r\n  */\r\n    // function shippedItemByFarmer(uint256 _productCode)\r\n    //     public\r\n    //     payable\r\n    //     onlyFarmer // check _msgSender() belongs to FarmerRole\r\n    //     purchasedByDistributor(_productCode)\r\n    //     verifyCaller(items[_productCode].farmerID) // check _msgSender() is originFarmID\r\n    // {\r\n    //     items[_productCode].itemState = Modified.ShippedByFarmer; // update state\r\n    //     emit ShippedByFarmer(_productCode);\r\n    // }\r\n\r\n    /*\r\n  5th step in supplychain\r\n  Allows distributor to receive product\r\n  */\r\n    function receivedItemByDistributor(uint256 _productCode)\r\n        internal\r\n        onlyDistributor // check _msgSender() belongs to DistributorRole\r\n        shippedByFarmer(_productCode)\r\n        verifyCaller(items[_productCode].ownerID) // check _msgSender() is owner\r\n    {\r\n        items[_productCode].itemState = Modified.ReceivedByDistributor; // update state\r\n        emit ReceivedByDistributor(_productCode);\r\n    }\r\n\r\n  /*\r\n  6th step in supplychain\r\n  Allows distributor to process product\r\n  */\r\n    // function processedItemByDistributor(uint256 _productCode)\r\n    //     internal\r\n    //     onlyDistributor // check _msgSender() belongs to DistributorRole\r\n    //     receivedByDistributor(_productCode)\r\n    //     verifyCaller(items[_productCode].ownerID) // check _msgSender() is owner\r\n    // {\r\n    //     items[_productCode].itemState = Modified.ProcessedByDistributor; // update state\r\n        \r\n    //     emit ProcessedByDistributor(_productCode);\r\n    // }\r\n\r\n/*\r\n  8th step in supplychain\r\n  Allows distributor to sell product\r\n  */\r\n    // function sellItemByDistributor(uint256 _productCode, uint256 _price)\r\n    //     public\r\n    //     onlyDistributor // check _msgSender() belongs to DistributorRole\r\n    //     processByDistributor(_productCode)\r\n    //     verifyCaller(items[_productCode].ownerID) // check _msgSender() is owner\r\n    // {\r\n    //     items[_productCode].itemState = Modified.ForSaleByDistributor;\r\n    //     items[_productCode].productPrice = _price;\r\n    //     emit ForSaleByDistributor(_productCode);\r\n    // }\r\n\r\n    /*\r\n  9th step in supplychain\r\n  Allows retailer to purchase product\r\n  */\r\n//     function purchaseItemByRetailer(uint256 _productCode)\r\n//         public\r\n//         payable\r\n//         onlyRetailer // check _msgSender() belongs to RetailerRole\r\n//         forSaleByDistributor(_productCode)\r\n//         paidEnough(items[_productCode].productPrice)\r\n//         checkValue(_productCode, payable(_msgSender()))\r\n//     {\r\n//         address payable ownerAddressPayable = _make_payable(\r\n//             items[_productCode].distributorID\r\n//         );\r\n//         ownerAddressPayable.transfer(items[_productCode].productPrice);\r\n//         items[_productCode].ownerID = _msgSender();\r\n//         items[_productCode].retailerID = _msgSender();\r\n//         items[_productCode].itemState = Modified.PurchasedByRetailer;\r\n//         itemsHistory[_productCode].DTR = block.number;\r\n//         emit PurchasedByRetailer(_productCode);\r\n//     }\r\n\r\n//     /*\r\n//   10th step in supplychain\r\n//   Allows Distributor to\r\n//   */\r\n//     function shippedItemByDistributor(uint256 _productCode)\r\n//         public\r\n//         onlyDistributor // check _msgSender() belongs to DistributorRole\r\n//         purchasedByRetailer(_productCode)\r\n//         verifyCaller(items[_productCode].distributorID) // check _msgSender() is distributorID\r\n//     {\r\n//         items[_productCode].itemState = Modified.ShippedByDistributor;\r\n//         emit ShippedByDistributor(_productCode);\r\n//     }\r\n\r\n//     /*\r\n//   11th step in supplychain\r\n//   */\r\n//     function receivedItemByRetailer(uint256 _productCode)\r\n//         public\r\n//         onlyRetailer // check _msgSender() belongs to RetailerRole\r\n//         shippedByDistributor(_productCode)\r\n//         verifyCaller(items[_productCode].ownerID) // check _msgSender() is ownerID\r\n//     {\r\n//         items[_productCode].itemState = Modified.ReceivedByRetailer;\r\n//         emit ReceivedByRetailer(_productCode);\r\n//     }\r\n\r\n  /*\r\n  12th step in supplychain\r\n  */\r\n    // function sellItemByRetailer(uint256 _productCode, uint256 _price)\r\n    //     public\r\n    //     onlyRetailer // check _msgSender() belongs to RetailerRole\r\n    //     receivedByRetailer(_productCode)\r\n    //     verifyCaller(items[_productCode].ownerID) // check _msgSender() is ownerID\r\n    // {\r\n    //     items[_productCode].itemState = Modified.ForSaleByRetailer;\r\n    //     items[_productCode].productPrice = _price;\r\n    //     emit ForSaleByRetailer(_productCode);\r\n    // }\r\n\r\n    // Define a function 'fetchItemBufferOne' that fetches the data\r\n    // function fetchItemBufferOne(uint256 _productCode)\r\n    //     public\r\n    //     view\r\n    //     returns (\r\n    //         uint256 itemstockUnit,\r\n    //         uint256 itemproductCode,\r\n    //         address ownerID,\r\n    //         address farmerID,\r\n    //         string memory farmName,\r\n    //         string memory productDescription,\r\n    //         uint256 productDate\r\n    //     )\r\n    //  {\r\n    //     // Assign values to the 8 parameters\r\n    //     Item memory item = items[_productCode];\r\n\r\n    //     return (\r\n    //         item.stockUnit,\r\n    //         item.productCode,\r\n    //         item.ownerID,\r\n    //         item.farmerID,\r\n    //         item.farmName,\r\n    //         item.productDescription,\r\n    //         item.productDate\r\n    //     );\r\n    // }\r\n\r\n    // Define a function 'fetchItemBufferTwo' that fetches the data\r\n    // function fetchItemBufferTwo(uint256 _productCode)\r\n    //     public\r\n    //     view\r\n    //     returns (\r\n    //         uint256 itemstockUnit,\r\n    //         uint256 itemproductCode,\r\n    //         uint256 productID,\r\n    //         string memory productType,\r\n    //         uint256 productPrice,\r\n    //         uint256 productDate,\r\n    //         Modified itemState,\r\n    //         address distributorID,\r\n    //         address retailerID\r\n    //     )\r\n    // {\r\n    //     // Assign values to the 9 parameters\r\n    //     Item memory item = items[_productCode];\r\n\r\n    //     return (\r\n    //         item.stockUnit,\r\n    //         item.productCode,\r\n    //         item.productID,\r\n    //         item.productType,\r\n    //         item.productPrice,\r\n    //         item.productDate,\r\n    //         item.itemState,\r\n    //         item.distributorID,\r\n    //         item.retailerID\r\n    //     );\r\n    // }\r\n\r\n\r\n    // Define a function 'fetchItemHistory' that fetaches the data\r\n    // function fetchitemHistory(uint256 _productCode)\r\n    //     public\r\n    //     view\r\n    //     returns (\r\n    //         uint256 blockfarmerToDistributor,\r\n    //         uint256 blockDistributorToRetailer\r\n    //     )\r\n    // {\r\n    //     // Assign value to the parameters\r\n    //     Txblocks memory txblock = itemsHistory[_productCode];\r\n    //     return (txblock.FTD, txblock.DTR);\r\n    // }\r\n\r\nfunction transactionByFarmer(uint256 _id,uint256 _productCode, string memory _productName, string memory _distName, string memory _quantity,string memory _timestamp, uint256 _price) \r\npublic  {\r\n     transbyfarmer[noteCount] = Transbyfarmer(noteCount,_productCode,_productName,_distName,_quantity,_timestamp,_price);\r\n        emit FarmerTransaction(noteCount, _productCode,_productName,_distName,_quantity,_timestamp,_price);\r\n    noteCount++;\r\n}\r\n   \r\n\r\n\r\n    // Farmer public farmer;\r\n    // Distributor public distributor;\r\n    // Retailer public retailer;\r\n    // Product public product;\r\n\r\n    // enum State{\r\n    //     allowed,\r\n    //     not_allowed,\r\n    //     wait\r\n    // }\r\n\r\n    // State public farmerState = State.allowed;\r\n    // State public DistributorState = State.not_allowed;\r\n    // State public RetailerState = State.not_allowed;\r\n\r\n    // string public product_name;\r\n    // string public product_type;\r\n    // string public description;\r\n    // string public dateofharvest;\r\n\r\n// ---------------------------------------Farmer Section-----------------------------------//\r\n\r\n    // function farmerDetails(\r\n    //     uint _fid, \r\n    //     string memory _fname, \r\n    //     string memory _femail,\r\n    //     string memory _flocation, \r\n    //     uint _fphone, \r\n    //     string memory _fpass\r\n    //     ) public {\r\n    //         farmer.f_id = _fid;\r\n    //         farmer.f_name = _fname;\r\n    //         farmer.f_email = _femail;\r\n    //         farmer.f_location = _flocation;\r\n    //         farmer.f_phone = _fphone;\r\n    //         farmer.f_password = _fpass;\r\n    // }\r\n\r\n\r\n    // function cropRegistration(\r\n    //     string memory productname,\r\n    //     string memory producttype, \r\n    //     string memory descript,\r\n    //     string memory doh\r\n    //     ) public returns(\r\n    //         string memory, \r\n    //         uint, \r\n    //         string memory,\r\n    //         string memory, \r\n    //         string memory,\r\n    //         string memory, \r\n    //         string memory\r\n    //         ){\r\n\r\n    //         string memory farmername = farmer.f_name;\r\n    //         uint farmerphone = farmer.f_phone;   \r\n    //         string memory farmerlocation = farmer.f_location;\r\n            \r\n    //         product_name = productname;\r\n    //         product_type = producttype;\r\n    //         description = descript; \r\n    //         dateofharvest = doh;\r\n             \r\n    //         return (farmername, farmerphone, dateofharvest, farmerlocation, product_name, product_type, description);        \r\n    // }\r\n\r\n    // function addFarmertoProduct() public returns(string memory){\r\n    //     if(farmerState == State.allowed){\r\n    //         product.productName = product_name;\r\n    //         product.productType = product_type;\r\n    //         product.desc = description;\r\n    //         product.farmer = farmer.f_name;\r\n    //         product.date_of_harvest = dateofharvest;\r\n    //         return(\"Farmer Details are Updated Successfully!!!\");\r\n    //     }\r\n    //     else{\r\n    //         revert(\"Something went wrong in Farmer's state\");\r\n    //     }\r\n    // }\r\n\r\n    // function soldtoDistrubutor() public returns(string memory){\r\n    //     if(farmerState == State.allowed){\r\n    //         product.distributor = distributor.d_name;\r\n    //         DistributorState = State.allowed;\r\n    //         return(\"Farmer Sold product to Distributor Successfully!!!!\"); \r\n    //     }\r\n    //     else{\r\n    //         revert(\"Transaction between farmer and distributor not happened\");\r\n    //     }\r\n    // }\r\n\r\n\r\n//-------------------------------Distributer Section------------------------//\r\n\r\n    // function distributorDetails(\r\n    //     uint did,\r\n    //     string memory dname, \r\n    //     string memory demail, \r\n    //     string memory dlocation, \r\n    //     uint dphone, \r\n    //     string memory dpassword\r\n    //     ) public{\r\n    //         uint d_id = did;\r\n    //         string memory d_name = dname;\r\n    //         string memory d_email = demail;\r\n    //         string memory d_location = dlocation;\r\n    //         uint d_phone = dphone;\r\n    //         string memory d_password = dpassword;\r\n\r\n    //         distributor.d_id = d_id;\r\n    //         distributor.d_name = d_name;\r\n    //         distributor.d_email = d_email;\r\n    //         distributor.d_location = d_location;\r\n    //         distributor.d_phone = d_phone;\r\n    //         distributor.d_password = d_password;\r\n\r\n    // }\r\n\r\n    // function distributorBatch(uint batchId) public returns(string memory){\r\n    //     if(DistributorState == State.allowed && farmerState == State.allowed ){\r\n    //         product.batch_id = batchId;\r\n    //         DistributorState = State.wait;\r\n    //         return(\"Batch Id is assigned to the product\");    \r\n    //     }\r\n    //     else{\r\n    //         revert(\"Not Assigned Batch ID\");\r\n    //     }\r\n    // }\r\n\r\n    // function selltoRetailer() public returns(string memory){\r\n    //     if(DistributorState == State.wait && farmerState == State.allowed){\r\n    //         product.retailer = retailer.r_name;\r\n    //         RetailerState = State.allowed;\r\n    //         return(\"Distributor sold product to retailer\");\r\n    //     }\r\n    //     else{\r\n    //         revert(\"Transaction between distributor and retailer not happened\");\r\n    //     }\r\n    // }\r\n    \r\n\r\n//---------------------------------------------------retailerDetails--------------------------------------//\r\n\r\n    // function retailerDetails(\r\n    //     uint rid, \r\n    //     string memory rname, \r\n    //     string memory remail, \r\n    //     string memory rlocation, \r\n    //     uint rphone, \r\n    //     string memory rpassword\r\n    //     ) public{\r\n    //         uint r_id = rid;\r\n    //         string memory r_name = rname;\r\n    //         string memory r_email = remail;\r\n    //         string memory r_location = rlocation;\r\n    //         uint r_phone = rphone;\r\n    //         string memory r_password = rpassword;\r\n\r\n    //         retailer.r_id = r_id;\r\n    //         retailer.r_name = r_name;\r\n    //         retailer.r_email = r_email;\r\n    //         retailer.r_location = r_location;\r\n    //         retailer.r_phone = r_phone;\r\n    //         retailer.r_password = r_password;\r\n\r\n    // }\r\n\r\n//-----------------------------------------------------Product-------------------------------------------------------//\r\n\r\n    // function productResult() public view returns(\r\n    //     uint, \r\n    //     string memory, \r\n    //     string memory, \r\n    //     string memory,\r\n    //     string memory, \r\n    //     string memory, \r\n    //     string memory, \r\n    //     string memory\r\n    //     ){  return(\r\n    //         product.batch_id,\r\n    //         product.productName,\r\n    //         product.desc,\r\n    //         product.productType,\r\n    //         product.date_of_harvest,\r\n    //         product.farmer,\r\n    //         product.distributor,\r\n    //         product.retailer\r\n    //     );\r\n    // }\r\n\r\n//--------------------------------------------sample-----------------\r\n\r\n    // address payable user = payable(0x5B38Da6a701c568545dCfcB03FcB875f56beddC4);\r\n    \r\n\r\n}",
  "sourcePath": "D:\\Code\\Blockchain\\Final-year-project\\contracts\\main.sol",
  "compiler": {
    "name": "solc",
    "version": "0.8.17+commit.8df45f5f.Emscripten.clang"
  },
  "schemaVersion": "3.4.10",
  "updatedAt": "2023-04-15T08:32:27.594Z",
  "networkType": "ethereum",
  "devdoc": {
    "kind": "dev",
    "methods": {},
    "version": 1
  },
  "userdoc": {
    "kind": "user",
    "methods": {
      "ownerLookup()": {
        "notice": "Look up the address of the owner"
      },
      "renounceOwnership()": {
        "notice": "Define a function to renounce ownerhip"
      },
      "transferOwnership(address)": {
        "notice": "Define a public function to transfer ownership"
      }
    },
    "version": 1
  }
}