{
  "contractName": "main",
  "abi": [
    {
      "inputs": [],
      "stateMutability": "payable",
      "type": "constructor",
      "payable": true
    },
    {
      "anonymous": false,
      "inputs": [
        {
          "indexed": false,
          "internalType": "uint256",
          "name": "productCode",
          "type": "uint256"
        }
      ],
      "name": "CropRegistered",
      "type": "event"
    },
    {
      "anonymous": false,
      "inputs": [
        {
          "indexed": true,
          "internalType": "address",
          "name": "account",
          "type": "address"
        }
      ],
      "name": "DistributorAdded",
      "type": "event"
    },
    {
      "anonymous": false,
      "inputs": [
        {
          "indexed": true,
          "internalType": "address",
          "name": "account",
          "type": "address"
        }
      ],
      "name": "DistributorRemoved",
      "type": "event"
    },
    {
      "anonymous": false,
      "inputs": [
        {
          "indexed": false,
          "internalType": "uint256",
          "name": "id",
          "type": "uint256"
        },
        {
          "indexed": false,
          "internalType": "string",
          "name": "productName",
          "type": "string"
        },
        {
          "indexed": false,
          "internalType": "string",
          "name": "retailName",
          "type": "string"
        },
        {
          "indexed": false,
          "internalType": "uint256",
          "name": "batches",
          "type": "uint256"
        },
        {
          "indexed": false,
          "internalType": "string",
          "name": "timestamp",
          "type": "string"
        },
        {
          "indexed": false,
          "internalType": "uint256",
          "name": "price",
          "type": "uint256"
        }
      ],
      "name": "DistributorTransaction",
      "type": "event"
    },
    {
      "anonymous": false,
      "inputs": [
        {
          "indexed": true,
          "internalType": "address",
          "name": "account",
          "type": "address"
        }
      ],
      "name": "FarmerAdded",
      "type": "event"
    },
    {
      "anonymous": false,
      "inputs": [
        {
          "indexed": true,
          "internalType": "address",
          "name": "account",
          "type": "address"
        }
      ],
      "name": "FarmerRemoved",
      "type": "event"
    },
    {
      "anonymous": false,
      "inputs": [
        {
          "indexed": false,
          "internalType": "uint256",
          "name": "id",
          "type": "uint256"
        },
        {
          "indexed": false,
          "internalType": "uint256",
          "name": "productCode",
          "type": "uint256"
        },
        {
          "indexed": false,
          "internalType": "string",
          "name": "productName",
          "type": "string"
        },
        {
          "indexed": false,
          "internalType": "string",
          "name": "distName",
          "type": "string"
        },
        {
          "indexed": false,
          "internalType": "string",
          "name": "quantity",
          "type": "string"
        },
        {
          "indexed": false,
          "internalType": "string",
          "name": "timestamp",
          "type": "string"
        },
        {
          "indexed": false,
          "internalType": "uint256",
          "name": "price",
          "type": "uint256"
        }
      ],
      "name": "FarmerTransaction",
      "type": "event"
    },
    {
      "anonymous": false,
      "inputs": [
        {
          "indexed": true,
          "internalType": "address",
          "name": "previousOwner",
          "type": "address"
        },
        {
          "indexed": true,
          "internalType": "address",
          "name": "newOwner",
          "type": "address"
        }
      ],
      "name": "OwnershipTransferred",
      "type": "event"
    },
    {
      "anonymous": false,
      "inputs": [
        {
          "indexed": true,
          "internalType": "address",
          "name": "account",
          "type": "address"
        }
      ],
      "name": "RetailerAdded",
      "type": "event"
    },
    {
      "anonymous": false,
      "inputs": [
        {
          "indexed": true,
          "internalType": "address",
          "name": "account",
          "type": "address"
        }
      ],
      "name": "RetailerRemoved",
      "type": "event"
    },
    {
      "inputs": [
        {
          "internalType": "address",
          "name": "account",
          "type": "address"
        }
      ],
      "name": "addDistributor",
      "outputs": [],
      "stateMutability": "nonpayable",
      "type": "function"
    },
    {
      "inputs": [
        {
          "internalType": "address",
          "name": "account",
          "type": "address"
        }
      ],
      "name": "addFarmer",
      "outputs": [],
      "stateMutability": "nonpayable",
      "type": "function"
    },
    {
      "inputs": [
        {
          "internalType": "address",
          "name": "account",
          "type": "address"
        }
      ],
      "name": "addRetailer",
      "outputs": [],
      "stateMutability": "nonpayable",
      "type": "function"
    },
    {
      "inputs": [
        {
          "internalType": "address",
          "name": "account",
          "type": "address"
        }
      ],
      "name": "isDistributor",
      "outputs": [
        {
          "internalType": "bool",
          "name": "",
          "type": "bool"
        }
      ],
      "stateMutability": "view",
      "type": "function",
      "constant": true
    },
    {
      "inputs": [
        {
          "internalType": "address",
          "name": "account",
          "type": "address"
        }
      ],
      "name": "isFarmer",
      "outputs": [
        {
          "internalType": "bool",
          "name": "",
          "type": "bool"
        }
      ],
      "stateMutability": "view",
      "type": "function",
      "constant": true
    },
    {
      "inputs": [],
      "name": "isOwner",
      "outputs": [
        {
          "internalType": "address",
          "name": "",
          "type": "address"
        }
      ],
      "stateMutability": "view",
      "type": "function",
      "constant": true
    },
    {
      "inputs": [
        {
          "internalType": "address",
          "name": "account",
          "type": "address"
        }
      ],
      "name": "isRetailer",
      "outputs": [
        {
          "internalType": "bool",
          "name": "",
          "type": "bool"
        }
      ],
      "stateMutability": "view",
      "type": "function",
      "constant": true
    },
    {
      "inputs": [],
      "name": "note1",
      "outputs": [
        {
          "internalType": "uint256",
          "name": "",
          "type": "uint256"
        }
      ],
      "stateMutability": "view",
      "type": "function",
      "constant": true
    },
    {
      "inputs": [],
      "name": "note2",
      "outputs": [
        {
          "internalType": "uint256",
          "name": "",
          "type": "uint256"
        }
      ],
      "stateMutability": "view",
      "type": "function",
      "constant": true
    },
    {
      "inputs": [],
      "name": "noteCount",
      "outputs": [
        {
          "internalType": "uint256",
          "name": "",
          "type": "uint256"
        }
      ],
      "stateMutability": "view",
      "type": "function",
      "constant": true
    },
    {
      "inputs": [],
      "name": "ownerLookup",
      "outputs": [
        {
          "internalType": "address",
          "name": "",
          "type": "address"
        }
      ],
      "stateMutability": "view",
      "type": "function",
      "constant": true
    },
    {
      "inputs": [],
      "name": "renounceDistributor",
      "outputs": [],
      "stateMutability": "nonpayable",
      "type": "function"
    },
    {
      "inputs": [],
      "name": "renounceFarmer",
      "outputs": [],
      "stateMutability": "nonpayable",
      "type": "function"
    },
    {
      "inputs": [],
      "name": "renounceOwnership",
      "outputs": [],
      "stateMutability": "nonpayable",
      "type": "function"
    },
    {
      "inputs": [],
      "name": "renounceRetailer",
      "outputs": [],
      "stateMutability": "nonpayable",
      "type": "function"
    },
    {
      "inputs": [
        {
          "internalType": "address",
          "name": "newOwner",
          "type": "address"
        }
      ],
      "name": "transferOwnership",
      "outputs": [],
      "stateMutability": "nonpayable",
      "type": "function"
    },
    {
      "inputs": [],
      "name": "kill",
      "outputs": [],
      "stateMutability": "nonpayable",
      "type": "function"
    },
    {
      "inputs": [
        {
          "internalType": "uint256",
          "name": "_productCode",
          "type": "uint256"
        },
        {
          "internalType": "string",
          "name": "_productName",
          "type": "string"
        },
        {
          "internalType": "string",
          "name": "_productType",
          "type": "string"
        },
        {
          "internalType": "string",
          "name": "_productDescription",
          "type": "string"
        },
        {
          "internalType": "string",
          "name": "_productDate",
          "type": "string"
        },
        {
          "internalType": "string",
          "name": "_farmName",
          "type": "string"
        },
        {
          "internalType": "uint256",
          "name": "_price",
          "type": "uint256"
        }
      ],
      "name": "cropRegisteredByFarmer",
      "outputs": [],
      "stateMutability": "nonpayable",
      "type": "function"
    },
    {
      "inputs": [
        {
          "internalType": "uint256",
          "name": "_id",
          "type": "uint256"
        },
        {
          "internalType": "uint256",
          "name": "_productCode",
          "type": "uint256"
        },
        {
          "internalType": "string",
          "name": "_productName",
          "type": "string"
        },
        {
          "internalType": "string",
          "name": "_distName",
          "type": "string"
        },
        {
          "internalType": "string",
          "name": "_quantity",
          "type": "string"
        },
        {
          "internalType": "string",
          "name": "_timestamp",
          "type": "string"
        },
        {
          "internalType": "uint256",
          "name": "_price",
          "type": "uint256"
        }
      ],
      "name": "transactionByFarmer",
      "outputs": [],
      "stateMutability": "nonpayable",
      "type": "function"
    },
    {
      "inputs": [
        {
          "internalType": "uint256",
          "name": "_id",
          "type": "uint256"
        },
        {
          "internalType": "string",
          "name": "_productName",
          "type": "string"
        },
        {
          "internalType": "string",
          "name": "_retailName",
          "type": "string"
        },
        {
          "internalType": "uint256",
          "name": "_batches",
          "type": "uint256"
        },
        {
          "internalType": "string",
          "name": "_timestamp",
          "type": "string"
        },
        {
          "internalType": "uint256",
          "name": "_price",
          "type": "uint256"
        }
      ],
      "name": "transactionByDistributer",
      "outputs": [],
      "stateMutability": "nonpayable",
      "type": "function"
    }
  ],
  "bytecode": "0x608060405260006009556000600a556000600b556200003362000027620000f160201b60201c565b620000f960201b60201c565b6200005362000047620000f160201b60201c565b620001bd60201b60201c565b6200007362000067620000f160201b60201c565b6200021e60201b60201c565b6200009362000087620000f160201b60201c565b6200027f60201b60201c565b620000a3620000f160201b60201c565b600660006101000a81548173ffffffffffffffffffffffffffffffffffffffff021916908373ffffffffffffffffffffffffffffffffffffffff160217905550600160078190555062000427565b600033905090565b60008060009054906101000a900473ffffffffffffffffffffffffffffffffffffffff169050816000806101000a81548173ffffffffffffffffffffffffffffffffffffffff021916908373ffffffffffffffffffffffffffffffffffffffff1602179055508173ffffffffffffffffffffffffffffffffffffffff168173ffffffffffffffffffffffffffffffffffffffff167f8be0079c531659141344cd1fd0a4f28419497f9722a3daafe3b4186f6b6457e060405160405180910390a35050565b620001d8816001620002e060201b62000c051790919060201c565b8073ffffffffffffffffffffffffffffffffffffffff167f2e0ded4123377a3c2bc9a26f1717655a129e2f20752924d42e730ec89c83dbd060405160405180910390a250565b62000239816002620002e060201b62000c051790919060201c565b8073ffffffffffffffffffffffffffffffffffffffff167fddbf200aa634dc3fb81cfd68583dd1040d1c751d335e1d86b631bde3e977fea860405160405180910390a250565b6200029a816003620002e060201b62000c051790919060201c565b8073ffffffffffffffffffffffffffffffffffffffff167f71ae26cad02663e3d92efd6ec56031a80d74a20c0ab4183faa8bf262261c9baa60405160405180910390a250565b600073ffffffffffffffffffffffffffffffffffffffff168173ffffffffffffffffffffffffffffffffffffffff16036200031a57600080fd5b6200032c82826200039560201b60201c565b156200033757600080fd5b60018260000160008373ffffffffffffffffffffffffffffffffffffffff1673ffffffffffffffffffffffffffffffffffffffff16815260200190815260200160002060006101000a81548160ff0219169083151502179055505050565b60008073ffffffffffffffffffffffffffffffffffffffff168273ffffffffffffffffffffffffffffffffffffffff1603620003d057600080fd5b8260000160008373ffffffffffffffffffffffffffffffffffffffff1673ffffffffffffffffffffffffffffffffffffffff16815260200190815260200160002060009054906101000a900460ff16905092915050565b611e3f80620004376000396000f3fe608060405234801561001057600080fd5b506004361061012c5760003560e01c806380c3f96d116100ad578063a5c7ad2511610071578063a5c7ad25146102bd578063b9429069146102d9578063db0e6a2f14610309578063e02e64ea14610313578063f2fde38b146103315761012c565b806380c3f96d1461022d57806380fc0ce4146102495780638ec4f505146102535780638f0c86fa1461026f5780638f32d59b1461029f5761012c565b8063644241db116100f4578063644241db146101c357806364c7505a146101cd578063674186c9146101e9578063715018a6146102075780637250e224146102115761012c565b8063117a4aa714610131578063317a4c761461014d5780633c742d561461016b57806341c0e1b5146101895780635da09b8814610193575b600080fd5b61014b600480360381019061014691906113d1565b61034d565b005b610155610735565b604051610162919061150e565b60405180910390f35b61017361073b565b604051610180919061150e565b60405180910390f35b610191610741565b005b6101ad60048036038101906101a89190611587565b6107e7565b6040516101ba91906115cf565b60405180910390f35b6101cb610804565b005b6101e760048036038101906101e291906115ea565b610816565b005b6101f161093f565b6040516101fe919061150e565b60405180910390f35b61020f610945565b005b61022b60048036038101906102269190611587565b610959565b005b61024760048036038101906102429190611587565b61097e565b005b6102516109a3565b005b61026d60048036038101906102689190611587565b6109b5565b005b61028960048036038101906102849190611587565b6109da565b60405161029691906115cf565b60405180910390f35b6102a76109f7565b6040516102b4919061170b565b60405180910390f35b6102d760048036038101906102d29190611726565b610a20565b005b6102f360048036038101906102ee9190611587565b610b2a565b60405161030091906115cf565b60405180910390f35b610311610b47565b005b61031b610b59565b604051610328919061170b565b60405180910390f35b61034b60048036038101906103469190611587565b610b82565b005b61035d610358610cb0565b610b2a565b61036657600080fd5b60008061037161115b565b89816020018181525050610383610cb0565b816040019073ffffffffffffffffffffffffffffffffffffffff16908173ffffffffffffffffffffffffffffffffffffffff16815250506103c2610cb0565b816060019073ffffffffffffffffffffffffffffffffffffffff16908173ffffffffffffffffffffffffffffffffffffffff1681525050848160800181905250868160a00181905250878160e00181905250838161014001818152505042816101200181815250506000816101600190600081111561044457610443611807565b5b9081600081111561045857610457611807565b5b815250508281610180019073ffffffffffffffffffffffffffffffffffffffff16908173ffffffffffffffffffffffffffffffffffffffff168152505081816101a0019073ffffffffffffffffffffffffffffffffffffffff16908173ffffffffffffffffffffffffffffffffffffffff168152505080600860008c8152602001908152602001600020600082015181600001556020820151816001015560408201518160020160006101000a81548173ffffffffffffffffffffffffffffffffffffffff021916908373ffffffffffffffffffffffffffffffffffffffff16021790555060608201518160030160006101000a81548173ffffffffffffffffffffffffffffffffffffffff021916908373ffffffffffffffffffffffffffffffffffffffff16021790555060808201518160040190816105999190611a4d565b5060a08201518160050190816105af9190611a4d565b5060c0820151816006015560e08201518160070190816105cf9190611a4d565b506101008201518160080190816105e69190611a4d565b50610120820151816009015561014082015181600a015561016082015181600b0160006101000a81548160ff0219169083600081111561062957610628611807565b5b021790555061018082015181600b0160016101000a81548173ffffffffffffffffffffffffffffffffffffffff021916908373ffffffffffffffffffffffffffffffffffffffff1602179055506101a082015181600c0160006101000a81548173ffffffffffffffffffffffffffffffffffffffff021916908373ffffffffffffffffffffffffffffffffffffffff1602179055506101c082015181600d0190816106d49190611a4d565b506101e082015181600e0190816106eb9190611a4d565b5090505060007f36035b711719171c5d396e693e0eb1dc781a6cbfbbdff7f8e883383aaadfc4c18b604051610720919061150e565b60405180910390a15050505050505050505050565b60095481565b600a5481565b600660009054906101000a900473ffffffffffffffffffffffffffffffffffffffff1673ffffffffffffffffffffffffffffffffffffffff16610782610cb0565b73ffffffffffffffffffffffffffffffffffffffff16036107e55760006107ca600660009054906101000a900473ffffffffffffffffffffffffffffffffffffffff16610cb8565b90508073ffffffffffffffffffffffffffffffffffffffff16ff5b565b60006107fd826003610cc290919063ffffffff16565b9050919050565b61081461080f610cb0565b610d53565b565b6040518060e00160405280600954815260200187815260200186815260200185815260200184815260200183815260200182815250600460006009548152602001908152602001600020600082015181600001556020820151816001015560408201518160020190816108899190611a4d565b50606082015181600301908161089f9190611a4d565b5060808201518160040190816108b59190611a4d565b5060a08201518160050190816108cb9190611a4d565b5060c082015181600601559050507fdc7748e1a2bb6d1337419da0e36daa28a8971f039ffcaa86aafa5eda0833e1206009548787878787876040516109169796959493929190611b93565b60405180910390a16009600081548092919061093190611c4d565b919050555050505050505050565b600b5481565b61094d610dad565b6109576000610e2b565b565b610969610964610cb0565b6109da565b61097257600080fd5b61097b81610eef565b50565b61098e610989610cb0565b610b2a565b61099757600080fd5b6109a081610f49565b50565b6109b36109ae610cb0565b610fa3565b565b6109c56109c0610cb0565b6107e7565b6109ce57600080fd5b6109d781610ffd565b50565b60006109f0826002610cc290919063ffffffff16565b9050919050565b60008060009054906101000a900473ffffffffffffffffffffffffffffffffffffffff16905090565b6040518060c00160405280600a5481526020018681526020018581526020018481526020018381526020018281525060056000600a548152602001908152602001600020600082015181600001556020820151816001019081610a839190611a4d565b506040820151816002019081610a999190611a4d565b50606082015181600301556080820151816004019081610ab99190611a4d565b5060a082015181600501559050507fef58ea2398cf6ed8d6d28daf5f0936e6d5770438bded47ab0f693a396a614876600a548686868686604051610b0296959493929190611c95565b60405180910390a1600a6000815480929190610b1d90611c4d565b9190505550505050505050565b6000610b40826001610cc290919063ffffffff16565b9050919050565b610b57610b52610cb0565b611057565b565b60008060009054906101000a900473ffffffffffffffffffffffffffffffffffffffff16905090565b610b8a610dad565b600073ffffffffffffffffffffffffffffffffffffffff168173ffffffffffffffffffffffffffffffffffffffff1603610bf9576040517f08c379a0000000000000000000000000000000000000000000000000000000008152600401610bf090611d7d565b60405180910390fd5b610c0281610e2b565b50565b600073ffffffffffffffffffffffffffffffffffffffff168173ffffffffffffffffffffffffffffffffffffffff1603610c3e57600080fd5b610c488282610cc2565b15610c5257600080fd5b60018260000160008373ffffffffffffffffffffffffffffffffffffffff1673ffffffffffffffffffffffffffffffffffffffff16815260200190815260200160002060006101000a81548160ff0219169083151502179055505050565b600033905090565b6000819050919050565b60008073ffffffffffffffffffffffffffffffffffffffff168273ffffffffffffffffffffffffffffffffffffffff1603610cfc57600080fd5b8260000160008373ffffffffffffffffffffffffffffffffffffffff1673ffffffffffffffffffffffffffffffffffffffff16815260200190815260200160002060009054906101000a900460ff16905092915050565b610d678160026110b190919063ffffffff16565b8073ffffffffffffffffffffffffffffffffffffffff167f126174f6cf49c81cdb4a9214c6b8f037bef55b4ec31e4fc776cea2a1c8a88d5960405160405180910390a250565b610db56109f7565b73ffffffffffffffffffffffffffffffffffffffff16610dd3610cb0565b73ffffffffffffffffffffffffffffffffffffffff1614610e29576040517f08c379a0000000000000000000000000000000000000000000000000000000008152600401610e2090611de9565b60405180910390fd5b565b60008060009054906101000a900473ffffffffffffffffffffffffffffffffffffffff169050816000806101000a81548173ffffffffffffffffffffffffffffffffffffffff021916908373ffffffffffffffffffffffffffffffffffffffff1602179055508173ffffffffffffffffffffffffffffffffffffffff168173ffffffffffffffffffffffffffffffffffffffff167f8be0079c531659141344cd1fd0a4f28419497f9722a3daafe3b4186f6b6457e060405160405180910390a35050565b610f03816002610c0590919063ffffffff16565b8073ffffffffffffffffffffffffffffffffffffffff167fddbf200aa634dc3fb81cfd68583dd1040d1c751d335e1d86b631bde3e977fea860405160405180910390a250565b610f5d816001610c0590919063ffffffff16565b8073ffffffffffffffffffffffffffffffffffffffff167f2e0ded4123377a3c2bc9a26f1717655a129e2f20752924d42e730ec89c83dbd060405160405180910390a250565b610fb78160016110b190919063ffffffff16565b8073ffffffffffffffffffffffffffffffffffffffff167fa5e0f060af304ab17dd418c7927e3da3ae7868189bf387aee09ab179ccc572f260405160405180910390a250565b611011816003610c0590919063ffffffff16565b8073ffffffffffffffffffffffffffffffffffffffff167f71ae26cad02663e3d92efd6ec56031a80d74a20c0ab4183faa8bf262261c9baa60405160405180910390a250565b61106b8160036110b190919063ffffffff16565b8073ffffffffffffffffffffffffffffffffffffffff167fdb7176e79cffef81cb01767dd0447a0b24bb72ca9778d4b245581086b2a7e6db60405160405180910390a250565b600073ffffffffffffffffffffffffffffffffffffffff168173ffffffffffffffffffffffffffffffffffffffff16036110ea57600080fd5b6110f48282610cc2565b6110fd57600080fd5b60008260000160008373ffffffffffffffffffffffffffffffffffffffff1673ffffffffffffffffffffffffffffffffffffffff16815260200190815260200160002060006101000a81548160ff0219169083151502179055505050565b6040518061020001604052806000815260200160008152602001600073ffffffffffffffffffffffffffffffffffffffff168152602001600073ffffffffffffffffffffffffffffffffffffffff168152602001606081526020016060815260200160008152602001606081526020016060815260200160008152602001600081526020016000808111156111f3576111f2611807565b5b8152602001600073ffffffffffffffffffffffffffffffffffffffff168152602001600073ffffffffffffffffffffffffffffffffffffffff16815260200160608152602001606081525090565b6000604051905090565b600080fd5b600080fd5b6000819050919050565b61126881611255565b811461127357600080fd5b50565b6000813590506112858161125f565b92915050565b600080fd5b600080fd5b6000601f19601f8301169050919050565b7f4e487b7100000000000000000000000000000000000000000000000000000000600052604160045260246000fd5b6112de82611295565b810181811067ffffffffffffffff821117156112fd576112fc6112a6565b5b80604052505050565b6000611310611241565b905061131c82826112d5565b919050565b600067ffffffffffffffff82111561133c5761133b6112a6565b5b61134582611295565b9050602081019050919050565b82818337600083830152505050565b600061137461136f84611321565b611306565b9050828152602081018484840111156113905761138f611290565b5b61139b848285611352565b509392505050565b600082601f8301126113b8576113b761128b565b5b81356113c8848260208601611361565b91505092915050565b600080600080600080600060e0888a0312156113f0576113ef61124b565b5b60006113fe8a828b01611276565b975050602088013567ffffffffffffffff81111561141f5761141e611250565b5b61142b8a828b016113a3565b965050604088013567ffffffffffffffff81111561144c5761144b611250565b5b6114588a828b016113a3565b955050606088013567ffffffffffffffff81111561147957611478611250565b5b6114858a828b016113a3565b945050608088013567ffffffffffffffff8111156114a6576114a5611250565b5b6114b28a828b016113a3565b93505060a088013567ffffffffffffffff8111156114d3576114d2611250565b5b6114df8a828b016113a3565b92505060c06114f08a828b01611276565b91505092959891949750929550565b61150881611255565b82525050565b600060208201905061152360008301846114ff565b92915050565b600073ffffffffffffffffffffffffffffffffffffffff82169050919050565b600061155482611529565b9050919050565b61156481611549565b811461156f57600080fd5b50565b6000813590506115818161155b565b92915050565b60006020828403121561159d5761159c61124b565b5b60006115ab84828501611572565b91505092915050565b60008115159050919050565b6115c9816115b4565b82525050565b60006020820190506115e460008301846115c0565b92915050565b600080600080600080600060e0888a0312156116095761160861124b565b5b60006116178a828b01611276565b97505060206116288a828b01611276565b965050604088013567ffffffffffffffff81111561164957611648611250565b5b6116558a828b016113a3565b955050606088013567ffffffffffffffff81111561167657611675611250565b5b6116828a828b016113a3565b945050608088013567ffffffffffffffff8111156116a3576116a2611250565b5b6116af8a828b016113a3565b93505060a088013567ffffffffffffffff8111156116d0576116cf611250565b5b6116dc8a828b016113a3565b92505060c06116ed8a828b01611276565b91505092959891949750929550565b61170581611549565b82525050565b600060208201905061172060008301846116fc565b92915050565b60008060008060008060c087890312156117435761174261124b565b5b600061175189828a01611276565b965050602087013567ffffffffffffffff81111561177257611771611250565b5b61177e89828a016113a3565b955050604087013567ffffffffffffffff81111561179f5761179e611250565b5b6117ab89828a016113a3565b94505060606117bc89828a01611276565b935050608087013567ffffffffffffffff8111156117dd576117dc611250565b5b6117e989828a016113a3565b92505060a06117fa89828a01611276565b9150509295509295509295565b7f4e487b7100000000000000000000000000000000000000000000000000000000600052602160045260246000fd5b600081519050919050565b7f4e487b7100000000000000000000000000000000000000000000000000000000600052602260045260246000fd5b6000600282049050600182168061188857607f821691505b60208210810361189b5761189a611841565b5b50919050565b60008190508160005260206000209050919050565b60006020601f8301049050919050565b600082821b905092915050565b6000600883026119037fffffffffffffffffffffffffffffffffffffffffffffffffffffffffffffffff826118c6565b61190d86836118c6565b95508019841693508086168417925050509392505050565b6000819050919050565b600061194a61194561194084611255565b611925565b611255565b9050919050565b6000819050919050565b6119648361192f565b61197861197082611951565b8484546118d3565b825550505050565b600090565b61198d611980565b61199881848461195b565b505050565b5b818110156119bc576119b1600082611985565b60018101905061199e565b5050565b601f821115611a01576119d2816118a1565b6119db846118b6565b810160208510156119ea578190505b6119fe6119f6856118b6565b83018261199d565b50505b505050565b600082821c905092915050565b6000611a2460001984600802611a06565b1980831691505092915050565b6000611a3d8383611a13565b9150826002028217905092915050565b611a5682611836565b67ffffffffffffffff811115611a6f57611a6e6112a6565b5b611a798254611870565b611a848282856119c0565b600060209050601f831160018114611ab75760008415611aa5578287015190505b611aaf8582611a31565b865550611b17565b601f198416611ac5866118a1565b60005b82811015611aed57848901518255600182019150602085019450602081019050611ac8565b86831015611b0a5784890151611b06601f891682611a13565b8355505b6001600288020188555050505b505050505050565b600082825260208201905092915050565b60005b83811015611b4e578082015181840152602081019050611b33565b60008484015250505050565b6000611b6582611836565b611b6f8185611b1f565b9350611b7f818560208601611b30565b611b8881611295565b840191505092915050565b600060e082019050611ba8600083018a6114ff565b611bb560208301896114ff565b8181036040830152611bc78188611b5a565b90508181036060830152611bdb8187611b5a565b90508181036080830152611bef8186611b5a565b905081810360a0830152611c038185611b5a565b9050611c1260c08301846114ff565b98975050505050505050565b7f4e487b7100000000000000000000000000000000000000000000000000000000600052601160045260246000fd5b6000611c5882611255565b91507fffffffffffffffffffffffffffffffffffffffffffffffffffffffffffffffff8203611c8a57611c89611c1e565b5b600182019050919050565b600060c082019050611caa60008301896114ff565b8181036020830152611cbc8188611b5a565b90508181036040830152611cd08187611b5a565b9050611cdf60608301866114ff565b8181036080830152611cf18185611b5a565b9050611d0060a08301846114ff565b979650505050505050565b7f4f776e61626c653a206e6577206f776e657220697320746865207a65726f206160008201527f6464726573730000000000000000000000000000000000000000000000000000602082015250565b6000611d67602683611b1f565b9150611d7282611d0b565b604082019050919050565b60006020820190508181036000830152611d9681611d5a565b9050919050565b7f4f776e61626c653a2063616c6c6572206973206e6f7420746865206f776e6572600082015250565b6000611dd3602083611b1f565b9150611dde82611d9d565b602082019050919050565b60006020820190508181036000830152611e0281611dc6565b905091905056fea264697066735822122014e3f92d35049ac970e08d6125ecf62d71f62c25c72e17ea6af66b5f698df6c264736f6c63430008110033",
  "immutableReferences": {},
  "source": "// SPDX-License-Identifier: GPL-3.0\r\nimport \"./Ownable.sol\";\r\nimport \"./FarmerRole.sol\";\r\nimport \"./DistributorRole.sol\";\r\nimport \"./RetailerRole.sol\";\r\nimport \"./Roles.sol\";\r\nimport \"./Context.sol\";\r\n\r\npragma solidity >= 0.5.0 < 0.9.0;\r\n\r\ncontract main is\r\n    Ownable,\r\n    FarmerRole,\r\n    DistributorRole,\r\n    RetailerRole\r\n{\r\n  struct Transbyfarmer{\r\n    uint256 id;\r\n    uint256 productCode;\r\n    string productName;\r\n    string distName;\r\n    string quantity;\r\n    string timestamp;\r\n    uint256 price;\r\n}\r\n    mapping(uint256 => Transbyfarmer) transbyfarmer;\r\n     mapping(uint256 => Transbydistributor) transbydistributor;\r\n\r\nstruct Transbydistributor{\r\n    uint256 id;\r\n    string productName;\r\n    string retailName;\r\n    uint256 batches;\r\n    string timestamp;\r\n    uint256 price;\r\n}\r\n\r\n    struct Transbyretailer{\r\n        uint256 id;\r\n        string productName;\r\n        string CustomerName;\r\n        uint256 batches;\r\n        string timestamp;\r\n        uint256 price;\r\n}\r\n\r\n\r\n  event FarmerTransaction(uint256 id,uint256 productCode,string productName,string distName,string quantity,string timestamp,uint256 price);\r\n  event DistributorTransaction(uint256 id,string productName,string retailName,uint256 batches,string timestamp,uint256 price);\r\n    address owner;\r\n\r\n    uint256 productCode;\r\n   \r\n    mapping(uint256 => Item) items;\r\n  \r\n\r\n    enum Modified {\r\n        CropRegistered\r\n        \r\n    }\r\n\r\n    Modified constant defaultState = Modified.CropRegistered;\r\n\r\n    uint256 public noteCount = 0;\r\n    uint256 public note1 = 0;\r\n    uint256 public note2 = 0;\r\n\r\n    struct Item {\r\n        uint256 stockUnit; // Stock Keeping Unit (stockUnit)\r\n        uint256 productCode; // Universal Product Code (productCode), generated by the Farmer, goes on the package, can be verified by the Consumer\r\n        address ownerID; // Metamask-Ethereum address of the current owner as the product moves through 8 stages\r\n        address farmerID; // Metamask-Ethereum address of the Farmer // ADDED PAYABLE\r\n        string farmName; // Farmer Name\r\n        string productDescription; // product Description \r\n        uint256 productID; // Product ID potentially a combination of productCode + stockUnit\r\n        string productType; // Product types\r\n        string productName;\r\n        uint256 productDate; // Product Date NOTE: MIGHT NEED TO CHANGE type\r\n        uint256 productPrice; // Product Price\r\n        Modified itemState; // Product State as represented in the enum above\r\n        address distributorID; // Metamask-Ethereum address of the Distributor\r\n        address retailerID; // Metamask-Ethereum address of the Retailer\r\n        string distName;\r\n        string retailName;\r\n\r\n    }\r\n\r\n    // Block number stuct\r\n    // struct Txblocks {\r\n    //     uint256 FTD; // blockfarmerToDistributor\r\n    //     uint256 DTR; // blockDistributorToRetailer\r\n    // }\r\n\r\n    event CropRegistered(uint256 productCode); //1\r\n    \r\n\r\n    // Define a modifer that checks to see if _msgSender() == owner of the contract\r\n    modifier only_Owner() {\r\n        require(_msgSender() == owner);\r\n        _;\r\n    }\r\n\r\n    // Define a modifer that verifies the Caller\r\n    modifier verifyCaller(address _address) {\r\n        require(_msgSender() == _address);\r\n        _;\r\n    }\r\n\r\n    // Define a modifier that checks if the paid amount is sufficient to cover the price\r\n    modifier paidEnough(uint256 _price) {\r\n        require(msg.value >= _price);\r\n        _;\r\n    }\r\n\r\n    // Define a modifier that checks the price and refunds the remaining balance\r\n    modifier checkValue(uint256 _productCode, address payable addressToFund) {\r\n        uint256 _price = items[_productCode].productPrice;\r\n        uint256 amountToReturn = msg.value - _price;\r\n        addressToFund.transfer(amountToReturn);\r\n        _;\r\n    }\r\n\r\n\r\n    //Item State Modifiers\r\n    modifier producedByFarmer(uint256 _productCode) {\r\n        require(items[_productCode].itemState == Modified.CropRegistered);\r\n        _;\r\n    }\r\n\r\n    // constructor setup owner stockUnit productCode\r\n    constructor() public payable {\r\n        owner = _msgSender();\r\n        // stockUnit = 1;\r\n        productCode = 1;\r\n    }\r\n\r\n    // Define a function 'kill'\r\n    function kill() public {\r\n        if (_msgSender() == owner) {\r\n            address payable ownerAddressPayable = _make_payable(owner);\r\n            selfdestruct(ownerAddressPayable);\r\n        }\r\n    }\r\n\r\n    // allows you to convert an address into a payable address\r\n    function _make_payable(address x) internal pure returns (address payable) {\r\n        return payable(address(uint160(x)));\r\n    }\r\n\r\n\r\n/*\r\n 1st step in supplychain\r\n Allows farmer to create product\r\n*/\r\n    function cropRegisteredByFarmer(\r\n        uint256 _productCode,\r\n        string memory _productName,\r\n        string memory _productType, \r\n        string memory _productDescription,\r\n        string memory _productDate,\r\n        string memory _farmName,\r\n        uint256 _price)\r\n        public onlyFarmer \r\n    {\r\n        address distributorID; // Empty distributorID address\r\n        address retailerID; // Empty retailerID address\r\n       \r\n        Item memory newProduce; // Create a new struct Item in memory\r\n        // newProduce.stockUnit = stockUnit; // Stock Keeping Unit (stockUnit)\r\n        newProduce.productCode = _productCode; // Universal Product Code (productCode), generated by the Farmer, goes on the package, can be verified by the Consumer\r\n        newProduce.ownerID = _msgSender(); // Metamask-Ethereum address of the current owner as the product moves through 8 stages\r\n        newProduce.farmerID = _msgSender(); // Metamask-Ethereum address of the Farmer\r\n        newProduce.farmName = _farmName; // Farmer Name\r\n        newProduce.productDescription = _productDescription; // Product Decription Information\r\n       \r\n        // newProduce.productID = _productCode + stockUnit; // Product ID\r\n        newProduce.productType = _productType; // Product Type\r\n        newProduce.productPrice = _price; // Product Price\r\n        newProduce.productDate = block.timestamp;\r\n        \r\n        newProduce.itemState = defaultState; // Product State as represented in the enum above\r\n        newProduce.distributorID = distributorID; // Metamask-Ethereum address of the Distributor\r\n        newProduce.retailerID = retailerID; // Metamask-Ethereum address of the Retailer\r\n       \r\n        items[_productCode] = newProduce; // Add newProduce to items struct by productCode\r\n        uint256 placeholder; // Block number place holder\r\n        // Txblocks memory txBlock; // create new txBlock struct\r\n        // txBlock.FTD = placeholder; // assign placeholder values\r\n        // txBlock.DTR = placeholder;\r\n        \r\n        // itemsHistory[_productCode] = txBlock; // add txBlock to itemsHistory mapping by productCode\r\n\r\n        // Increment stockUnit\r\n        // stockUnit = stockUnit + 1;\r\n\r\n        // Emit the appropriate event\r\n        emit CropRegistered(_productCode);\r\n    }\r\n\r\n\r\nfunction transactionByFarmer(uint256 _id,uint256 _productCode, string memory _productName, string memory _distName, string memory _quantity,string memory _timestamp, uint256 _price) \r\npublic  {\r\n     transbyfarmer[noteCount] = Transbyfarmer(noteCount,_productCode,_productName,_distName,_quantity,_timestamp,_price);\r\n        emit FarmerTransaction(noteCount, _productCode,_productName,_distName,_quantity,_timestamp,_price);\r\n    noteCount++;\r\n}\r\n\r\n\r\nfunction transactionByDistributer( uint256 _id,string memory _productName, string memory _retailName, uint256 _batches,string memory _timestamp, uint256 _price) \r\npublic  {\r\n     transbydistributor[note1] = Transbydistributor(note1,_productName,_retailName,_batches,_timestamp,_price);\r\n        emit DistributorTransaction(note1, _productName, _retailName, _batches, _timestamp, _price);\r\n    note1++;\r\n}\r\n\r\n\r\n    // Farmer public farmer;\r\n    // Distributor public distributor;\r\n    // Retailer public retailer;\r\n    // Product public product;\r\n\r\n    // enum State{\r\n    //     allowed,\r\n    //     not_allowed,\r\n    //     wait\r\n    // }\r\n\r\n    // State public farmerState = State.allowed;\r\n    // State public DistributorState = State.not_allowed;\r\n    // State public RetailerState = State.not_allowed;\r\n\r\n    // string public product_name;\r\n    // string public product_type;\r\n    // string public description;\r\n    // string public dateofharvest;\r\n\r\n// ---------------------------------------Farmer Section-----------------------------------//\r\n\r\n    // function farmerDetails(\r\n    //     uint _fid, \r\n    //     string memory _fname, \r\n    //     string memory _femail,\r\n    //     string memory _flocation, \r\n    //     uint _fphone, \r\n    //     string memory _fpass\r\n    //     ) public {\r\n    //         farmer.f_id = _fid;\r\n    //         farmer.f_name = _fname;\r\n    //         farmer.f_email = _femail;\r\n    //         farmer.f_location = _flocation;\r\n    //         farmer.f_phone = _fphone;\r\n    //         farmer.f_password = _fpass;\r\n    // }\r\n\r\n\r\n    // function cropRegistration(\r\n    //     string memory productname,\r\n    //     string memory producttype, \r\n    //     string memory descript,\r\n    //     string memory doh\r\n    //     ) public returns(\r\n    //         string memory, \r\n    //         uint, \r\n    //         string memory,\r\n    //         string memory, \r\n    //         string memory,\r\n    //         string memory, \r\n    //         string memory\r\n    //         ){\r\n\r\n    //         string memory farmername = farmer.f_name;\r\n    //         uint farmerphone = farmer.f_phone;   \r\n    //         string memory farmerlocation = farmer.f_location;\r\n            \r\n    //         product_name = productname;\r\n    //         product_type = producttype;\r\n    //         description = descript; \r\n    //         dateofharvest = doh;\r\n             \r\n    //         return (farmername, farmerphone, dateofharvest, farmerlocation, product_name, product_type, description);        \r\n    // }\r\n\r\n    // function addFarmertoProduct() public returns(string memory){\r\n    //     if(farmerState == State.allowed){\r\n    //         product.productName = product_name;\r\n    //         product.productType = product_type;\r\n    //         product.desc = description;\r\n    //         product.farmer = farmer.f_name;\r\n    //         product.date_of_harvest = dateofharvest;\r\n    //         return(\"Farmer Details are Updated Successfully!!!\");\r\n    //     }\r\n    //     else{\r\n    //         revert(\"Something went wrong in Farmer's state\");\r\n    //     }\r\n    // }\r\n\r\n    // function soldtoDistrubutor() public returns(string memory){\r\n    //     if(farmerState == State.allowed){\r\n    //         product.distributor = distributor.d_name;\r\n    //         DistributorState = State.allowed;\r\n    //         return(\"Farmer Sold product to Distributor Successfully!!!!\"); \r\n    //     }\r\n    //     else{\r\n    //         revert(\"Transaction between farmer and distributor not happened\");\r\n    //     }\r\n    // }\r\n\r\n\r\n//-------------------------------Distributer Section------------------------//\r\n\r\n    // function distributorDetails(\r\n    //     uint did,\r\n    //     string memory dname, \r\n    //     string memory demail, \r\n    //     string memory dlocation, \r\n    //     uint dphone, \r\n    //     string memory dpassword\r\n    //     ) public{\r\n    //         uint d_id = did;\r\n    //         string memory d_name = dname;\r\n    //         string memory d_email = demail;\r\n    //         string memory d_location = dlocation;\r\n    //         uint d_phone = dphone;\r\n    //         string memory d_password = dpassword;\r\n\r\n    //         distributor.d_id = d_id;\r\n    //         distributor.d_name = d_name;\r\n    //         distributor.d_email = d_email;\r\n    //         distributor.d_location = d_location;\r\n    //         distributor.d_phone = d_phone;\r\n    //         distributor.d_password = d_password;\r\n\r\n    // }\r\n\r\n    // function distributorBatch(uint batchId) public returns(string memory){\r\n    //     if(DistributorState == State.allowed && farmerState == State.allowed ){\r\n    //         product.batch_id = batchId;\r\n    //         DistributorState = State.wait;\r\n    //         return(\"Batch Id is assigned to the product\");    \r\n    //     }\r\n    //     else{\r\n    //         revert(\"Not Assigned Batch ID\");\r\n    //     }\r\n    // }\r\n\r\n    // function selltoRetailer() public returns(string memory){\r\n    //     if(DistributorState == State.wait && farmerState == State.allowed){\r\n    //         product.retailer = retailer.r_name;\r\n    //         RetailerState = State.allowed;\r\n    //         return(\"Distributor sold product to retailer\");\r\n    //     }\r\n    //     else{\r\n    //         revert(\"Transaction between distributor and retailer not happened\");\r\n    //     }\r\n    // }\r\n    \r\n\r\n//---------------------------------------------------retailerDetails--------------------------------------//\r\n\r\n    // function retailerDetails(\r\n    //     uint rid, \r\n    //     string memory rname, \r\n    //     string memory remail, \r\n    //     string memory rlocation, \r\n    //     uint rphone, \r\n    //     string memory rpassword\r\n    //     ) public{\r\n    //         uint r_id = rid;\r\n    //         string memory r_name = rname;\r\n    //         string memory r_email = remail;\r\n    //         string memory r_location = rlocation;\r\n    //         uint r_phone = rphone;\r\n    //         string memory r_password = rpassword;\r\n\r\n    //         retailer.r_id = r_id;\r\n    //         retailer.r_name = r_name;\r\n    //         retailer.r_email = r_email;\r\n    //         retailer.r_location = r_location;\r\n    //         retailer.r_phone = r_phone;\r\n    //         retailer.r_password = r_password;\r\n\r\n    // }\r\n\r\n//-----------------------------------------------------Product-------------------------------------------------------//\r\n\r\n    // function productResult() public view returns(\r\n    //     uint, \r\n    //     string memory, \r\n    //     string memory, \r\n    //     string memory,\r\n    //     string memory, \r\n    //     string memory, \r\n    //     string memory, \r\n    //     string memory\r\n    //     ){  return(\r\n    //         product.batch_id,\r\n    //         product.productName,\r\n    //         product.desc,\r\n    //         product.productType,\r\n    //         product.date_of_harvest,\r\n    //         product.farmer,\r\n    //         product.distributor,\r\n    //         product.retailer\r\n    //     );\r\n    // }\r\n\r\n//--------------------------------------------sample-----------------\r\n\r\n    // address payable user = payable(0x5B38Da6a701c568545dCfcB03FcB875f56beddC4);\r\n    \r\n\r\n}",
  "sourcePath": "C:\\Users\\Mayuresh Prabhu\\OneDrive\\Desktop\\Grp21 - Designing Agricultural Supply Chain Tracking System by using BlockChain\\components\\trial-clone\\agro_chain1\\contracts\\main.sol",
  "compiler": {
    "name": "solc",
    "version": "0.8.17+commit.8df45f5f.Emscripten.clang"
  },
  "schemaVersion": "3.4.13",
  "updatedAt": "2023-05-01T08:57:43.421Z",
  "networkType": "ethereum",
  "devdoc": {
    "kind": "dev",
    "methods": {},
    "version": 1
  },
  "userdoc": {
    "kind": "user",
    "methods": {
      "ownerLookup()": {
        "notice": "Look up the address of the owner"
      },
      "renounceOwnership()": {
        "notice": "Define a function to renounce ownerhip"
      },
      "transferOwnership(address)": {
        "notice": "Define a public function to transfer ownership"
      }
    },
    "version": 1
  }
}