{
  "contractName": "Ownable",
  "abi": [
    {
      "inputs": [],
      "stateMutability": "nonpayable",
      "type": "constructor"
    },
    {
      "anonymous": false,
      "inputs": [
        {
          "indexed": true,
          "internalType": "address",
          "name": "previousOwner",
          "type": "address"
        },
        {
          "indexed": true,
          "internalType": "address",
          "name": "newOwner",
          "type": "address"
        }
      ],
      "name": "OwnershipTransferred",
      "type": "event"
    },
    {
      "inputs": [],
      "name": "ownerLookup",
      "outputs": [
        {
          "internalType": "address",
          "name": "",
          "type": "address"
        }
      ],
      "stateMutability": "view",
      "type": "function"
    },
    {
      "inputs": [],
      "name": "isOwner",
      "outputs": [
        {
          "internalType": "address",
          "name": "",
          "type": "address"
        }
      ],
      "stateMutability": "view",
      "type": "function"
    },
    {
      "inputs": [],
      "name": "renounceOwnership",
      "outputs": [],
      "stateMutability": "nonpayable",
      "type": "function"
    },
    {
      "inputs": [
        {
          "internalType": "address",
          "name": "newOwner",
          "type": "address"
        }
      ],
      "name": "transferOwnership",
      "outputs": [],
      "stateMutability": "nonpayable",
      "type": "function"
    }
  ],
  "bytecode": "0x608060405234801561001057600080fd5b5061002d61002261003260201b60201c565b61003a60201b60201c565b6100fe565b600033905090565b60008060009054906101000a900473ffffffffffffffffffffffffffffffffffffffff169050816000806101000a81548173ffffffffffffffffffffffffffffffffffffffff021916908373ffffffffffffffffffffffffffffffffffffffff1602179055508173ffffffffffffffffffffffffffffffffffffffff168173ffffffffffffffffffffffffffffffffffffffff167f8be0079c531659141344cd1fd0a4f28419497f9722a3daafe3b4186f6b6457e060405160405180910390a35050565b6104e58061010d6000396000f3fe608060405234801561001057600080fd5b506004361061004c5760003560e01c8063715018a6146100515780638f32d59b1461005b578063e02e64ea14610079578063f2fde38b14610097575b600080fd5b6100596100b3565b005b6100636100c7565b6040516100709190610327565b60405180910390f35b6100816100f0565b60405161008e9190610327565b60405180910390f35b6100b160048036038101906100ac9190610373565b610119565b005b6100bb61019c565b6100c5600061021a565b565b60008060009054906101000a900473ffffffffffffffffffffffffffffffffffffffff16905090565b60008060009054906101000a900473ffffffffffffffffffffffffffffffffffffffff16905090565b61012161019c565b600073ffffffffffffffffffffffffffffffffffffffff168173ffffffffffffffffffffffffffffffffffffffff1603610190576040517f08c379a000000000000000000000000000000000000000000000000000000000815260040161018790610423565b60405180910390fd5b6101998161021a565b50565b6101a46100c7565b73ffffffffffffffffffffffffffffffffffffffff166101c26102de565b73ffffffffffffffffffffffffffffffffffffffff1614610218576040517f08c379a000000000000000000000000000000000000000000000000000000000815260040161020f9061048f565b60405180910390fd5b565b60008060009054906101000a900473ffffffffffffffffffffffffffffffffffffffff169050816000806101000a81548173ffffffffffffffffffffffffffffffffffffffff021916908373ffffffffffffffffffffffffffffffffffffffff1602179055508173ffffffffffffffffffffffffffffffffffffffff168173ffffffffffffffffffffffffffffffffffffffff167f8be0079c531659141344cd1fd0a4f28419497f9722a3daafe3b4186f6b6457e060405160405180910390a35050565b600033905090565b600073ffffffffffffffffffffffffffffffffffffffff82169050919050565b6000610311826102e6565b9050919050565b61032181610306565b82525050565b600060208201905061033c6000830184610318565b92915050565b600080fd5b61035081610306565b811461035b57600080fd5b50565b60008135905061036d81610347565b92915050565b60006020828403121561038957610388610342565b5b60006103978482850161035e565b91505092915050565b600082825260208201905092915050565b7f4f776e61626c653a206e6577206f776e657220697320746865207a65726f206160008201527f6464726573730000000000000000000000000000000000000000000000000000602082015250565b600061040d6026836103a0565b9150610418826103b1565b604082019050919050565b6000602082019050818103600083015261043c81610400565b9050919050565b7f4f776e61626c653a2063616c6c6572206973206e6f7420746865206f776e6572600082015250565b60006104796020836103a0565b915061048482610443565b602082019050919050565b600060208201905081810360008301526104a88161046c565b905091905056fea2646970667358221220cef53a50bdf2d591495168cff1d821daedf7280e88d7f49e9c03c486d94adc0464736f6c63430008110033",
  "immutableReferences": {},
  "source": "// SPDX-License-Identifier: MIT\r\npragma solidity ^0.8.0;\r\nimport \"./Context.sol\";\r\n\r\n// By default, the owner account will be the one that deploys the contract.\r\n// This * can later be changed with {transferOwnership}.\r\n\r\ncontract Ownable is Context {\r\n    address private _owner;\r\n\r\n    // Define an Event\r\n    event OwnershipTransferred(\r\n        address indexed previousOwner,\r\n        address indexed newOwner\r\n    );\r\n\r\n    /// Assign the contract to an owner\r\n    constructor() {\r\n        _transferOwnership(_msgSender());\r\n    }\r\n\r\n    /// Look up the address of the owner\r\n    function ownerLookup() public view returns (address) {\r\n        return _owner;\r\n    }\r\n\r\n    /// Define a function modifier 'onlyOwner'\r\n    modifier onlyOwner() {\r\n        _checkOwner();\r\n        _;\r\n    }\r\n\r\n    //   Returns the address of the current owner.\r\n    function isOwner() public view virtual returns (address) {\r\n        return _owner;\r\n    }\r\n\r\n    /// Check if the calling address is the owner of the contract\r\n    function _checkOwner() internal view virtual {\r\n        require(_msgSender() == isOwner(), \"Ownable: caller is not the owner\");\r\n    }\r\n\r\n    /// Define a function to renounce ownerhip\r\n    function renounceOwnership() public virtual onlyOwner {\r\n        _transferOwnership(address(0));\r\n    }\r\n\r\n    /// Define a public function to transfer ownership\r\n    function transferOwnership(address newOwner) public virtual onlyOwner {\r\n        require(\r\n            newOwner != address(0),\r\n            \"Ownable: new owner is the zero address\"\r\n        );\r\n        _transferOwnership(newOwner);\r\n    }\r\n\r\n    /// Define an internal function to transfer ownership\r\n    function _transferOwnership(address newOwner) internal virtual {\r\n        address oldOwner = _owner;\r\n        _owner = newOwner;\r\n        emit OwnershipTransferred(oldOwner, newOwner);\r\n    }\r\n}",
  "sourcePath": "D:\\Code\\Blockchain\\Final-year-project\\contracts\\Ownable.sol",
  "compiler": {
    "name": "solc",
    "version": "0.8.17+commit.8df45f5f.Emscripten.clang"
  },
  "schemaVersion": "3.4.10",
  "updatedAt": "2023-04-01T05:51:49.283Z",
  "devdoc": {
    "kind": "dev",
    "methods": {},
    "version": 1
  },
  "userdoc": {
    "kind": "user",
    "methods": {
      "constructor": {
        "notice": "Assign the contract to an owner"
      },
      "ownerLookup()": {
        "notice": "Look up the address of the owner"
      },
      "renounceOwnership()": {
        "notice": "Define a function to renounce ownerhip"
      },
      "transferOwnership(address)": {
        "notice": "Define a public function to transfer ownership"
      }
    },
    "version": 1
  }
}