{
  "contractName": "SupplyChain",
  "abi": [
    {
      "inputs": [],
      "stateMutability": "payable",
      "type": "constructor"
    },
    {
      "anonymous": false,
      "inputs": [
        {
          "indexed": true,
          "internalType": "address",
          "name": "account",
          "type": "address"
        }
      ],
      "name": "DistributorAdded",
      "type": "event"
    },
    {
      "anonymous": false,
      "inputs": [
        {
          "indexed": true,
          "internalType": "address",
          "name": "account",
          "type": "address"
        }
      ],
      "name": "DistributorRemoved",
      "type": "event"
    },
    {
      "anonymous": false,
      "inputs": [
        {
          "indexed": true,
          "internalType": "address",
          "name": "account",
          "type": "address"
        }
      ],
      "name": "FarmerAdded",
      "type": "event"
    },
    {
      "anonymous": false,
      "inputs": [
        {
          "indexed": true,
          "internalType": "address",
          "name": "account",
          "type": "address"
        }
      ],
      "name": "FarmerRemoved",
      "type": "event"
    },
    {
      "anonymous": false,
      "inputs": [
        {
          "indexed": false,
          "internalType": "uint256",
          "name": "productCode",
          "type": "uint256"
        }
      ],
      "name": "ForSaleByDistributor",
      "type": "event"
    },
    {
      "anonymous": false,
      "inputs": [
        {
          "indexed": false,
          "internalType": "uint256",
          "name": "productCode",
          "type": "uint256"
        }
      ],
      "name": "ForSaleByFarmer",
      "type": "event"
    },
    {
      "anonymous": false,
      "inputs": [
        {
          "indexed": false,
          "internalType": "uint256",
          "name": "productCode",
          "type": "uint256"
        }
      ],
      "name": "ForSaleByRetailer",
      "type": "event"
    },
    {
      "anonymous": false,
      "inputs": [
        {
          "indexed": true,
          "internalType": "address",
          "name": "previousOwner",
          "type": "address"
        },
        {
          "indexed": true,
          "internalType": "address",
          "name": "newOwner",
          "type": "address"
        }
      ],
      "name": "OwnershipTransferred",
      "type": "event"
    },
    {
      "anonymous": false,
      "inputs": [
        {
          "indexed": false,
          "internalType": "uint256",
          "name": "productCode",
          "type": "uint256"
        }
      ],
      "name": "PackagedByDistributor",
      "type": "event"
    },
    {
      "anonymous": false,
      "inputs": [
        {
          "indexed": false,
          "internalType": "uint256",
          "name": "productCode",
          "type": "uint256"
        }
      ],
      "name": "ProcessedByDistributor",
      "type": "event"
    },
    {
      "anonymous": false,
      "inputs": [
        {
          "indexed": false,
          "internalType": "uint256",
          "name": "productCode",
          "type": "uint256"
        }
      ],
      "name": "ProduceByFarmer",
      "type": "event"
    },
    {
      "anonymous": false,
      "inputs": [
        {
          "indexed": false,
          "internalType": "uint256",
          "name": "productCode",
          "type": "uint256"
        }
      ],
      "name": "PurchasedByConsumer",
      "type": "event"
    },
    {
      "anonymous": false,
      "inputs": [
        {
          "indexed": false,
          "internalType": "uint256",
          "name": "productCode",
          "type": "uint256"
        }
      ],
      "name": "PurchasedByDistributor",
      "type": "event"
    },
    {
      "anonymous": false,
      "inputs": [
        {
          "indexed": false,
          "internalType": "uint256",
          "name": "productCode",
          "type": "uint256"
        }
      ],
      "name": "PurchasedByRetailer",
      "type": "event"
    },
    {
      "anonymous": false,
      "inputs": [
        {
          "indexed": false,
          "internalType": "uint256",
          "name": "productCode",
          "type": "uint256"
        }
      ],
      "name": "ReceivedByDistributor",
      "type": "event"
    },
    {
      "anonymous": false,
      "inputs": [
        {
          "indexed": false,
          "internalType": "uint256",
          "name": "productCode",
          "type": "uint256"
        }
      ],
      "name": "ReceivedByRetailer",
      "type": "event"
    },
    {
      "anonymous": false,
      "inputs": [
        {
          "indexed": true,
          "internalType": "address",
          "name": "account",
          "type": "address"
        }
      ],
      "name": "RetailerAdded",
      "type": "event"
    },
    {
      "anonymous": false,
      "inputs": [
        {
          "indexed": true,
          "internalType": "address",
          "name": "account",
          "type": "address"
        }
      ],
      "name": "RetailerRemoved",
      "type": "event"
    },
    {
      "anonymous": false,
      "inputs": [
        {
          "indexed": false,
          "internalType": "uint256",
          "name": "productCode",
          "type": "uint256"
        }
      ],
      "name": "ShippedByDistributor",
      "type": "event"
    },
    {
      "anonymous": false,
      "inputs": [
        {
          "indexed": false,
          "internalType": "uint256",
          "name": "productCode",
          "type": "uint256"
        }
      ],
      "name": "ShippedByFarmer",
      "type": "event"
    },
    {
      "inputs": [
        {
          "internalType": "address",
          "name": "account",
          "type": "address"
        }
      ],
      "name": "addDistributor",
      "outputs": [],
      "stateMutability": "nonpayable",
      "type": "function"
    },
    {
      "inputs": [
        {
          "internalType": "address",
          "name": "account",
          "type": "address"
        }
      ],
      "name": "addFarmer",
      "outputs": [],
      "stateMutability": "nonpayable",
      "type": "function"
    },
    {
      "inputs": [
        {
          "internalType": "address",
          "name": "account",
          "type": "address"
        }
      ],
      "name": "addRetailer",
      "outputs": [],
      "stateMutability": "nonpayable",
      "type": "function"
    },
    {
      "inputs": [
        {
          "internalType": "address",
          "name": "account",
          "type": "address"
        }
      ],
      "name": "isDistributor",
      "outputs": [
        {
          "internalType": "bool",
          "name": "",
          "type": "bool"
        }
      ],
      "stateMutability": "view",
      "type": "function"
    },
    {
      "inputs": [
        {
          "internalType": "address",
          "name": "account",
          "type": "address"
        }
      ],
      "name": "isFarmer",
      "outputs": [
        {
          "internalType": "bool",
          "name": "",
          "type": "bool"
        }
      ],
      "stateMutability": "view",
      "type": "function"
    },
    {
      "inputs": [],
      "name": "isOwner",
      "outputs": [
        {
          "internalType": "address",
          "name": "",
          "type": "address"
        }
      ],
      "stateMutability": "view",
      "type": "function"
    },
    {
      "inputs": [
        {
          "internalType": "address",
          "name": "account",
          "type": "address"
        }
      ],
      "name": "isRetailer",
      "outputs": [
        {
          "internalType": "bool",
          "name": "",
          "type": "bool"
        }
      ],
      "stateMutability": "view",
      "type": "function"
    },
    {
      "inputs": [],
      "name": "ownerLookup",
      "outputs": [
        {
          "internalType": "address",
          "name": "",
          "type": "address"
        }
      ],
      "stateMutability": "view",
      "type": "function"
    },
    {
      "inputs": [],
      "name": "renounceDistributor",
      "outputs": [],
      "stateMutability": "nonpayable",
      "type": "function"
    },
    {
      "inputs": [],
      "name": "renounceFarmer",
      "outputs": [],
      "stateMutability": "nonpayable",
      "type": "function"
    },
    {
      "inputs": [],
      "name": "renounceOwnership",
      "outputs": [],
      "stateMutability": "nonpayable",
      "type": "function"
    },
    {
      "inputs": [],
      "name": "renounceRetailer",
      "outputs": [],
      "stateMutability": "nonpayable",
      "type": "function"
    },
    {
      "inputs": [
        {
          "internalType": "address",
          "name": "newOwner",
          "type": "address"
        }
      ],
      "name": "transferOwnership",
      "outputs": [],
      "stateMutability": "nonpayable",
      "type": "function"
    },
    {
      "inputs": [],
      "name": "kill",
      "outputs": [],
      "stateMutability": "nonpayable",
      "type": "function"
    },
    {
      "inputs": [
        {
          "internalType": "uint256",
          "name": "_productCode",
          "type": "uint256"
        },
        {
          "internalType": "string",
          "name": "_farmName",
          "type": "string"
        },
        {
          "internalType": "string",
          "name": "_farmInformation",
          "type": "string"
        },
        {
          "internalType": "string",
          "name": "_farmLatitude",
          "type": "string"
        },
        {
          "internalType": "string",
          "name": "_farmLongitude",
          "type": "string"
        },
        {
          "internalType": "string",
          "name": "_productNotes",
          "type": "string"
        },
        {
          "internalType": "uint256",
          "name": "_price",
          "type": "uint256"
        }
      ],
      "name": "produceItemByFarmer",
      "outputs": [],
      "stateMutability": "nonpayable",
      "type": "function"
    },
    {
      "inputs": [
        {
          "internalType": "uint256",
          "name": "_productCode",
          "type": "uint256"
        },
        {
          "internalType": "uint256",
          "name": "_price",
          "type": "uint256"
        }
      ],
      "name": "sellItemByFarmer",
      "outputs": [],
      "stateMutability": "nonpayable",
      "type": "function"
    },
    {
      "inputs": [
        {
          "internalType": "uint256",
          "name": "_productCode",
          "type": "uint256"
        }
      ],
      "name": "purchaseItemByDistributor",
      "outputs": [],
      "stateMutability": "payable",
      "type": "function"
    },
    {
      "inputs": [
        {
          "internalType": "uint256",
          "name": "_productCode",
          "type": "uint256"
        }
      ],
      "name": "shippedItemByFarmer",
      "outputs": [],
      "stateMutability": "payable",
      "type": "function"
    },
    {
      "inputs": [
        {
          "internalType": "uint256",
          "name": "_productCode",
          "type": "uint256"
        }
      ],
      "name": "receivedItemByDistributor",
      "outputs": [],
      "stateMutability": "nonpayable",
      "type": "function"
    },
    {
      "inputs": [
        {
          "internalType": "uint256",
          "name": "_productCode",
          "type": "uint256"
        },
        {
          "internalType": "uint256",
          "name": "slices",
          "type": "uint256"
        }
      ],
      "name": "processedItemByDistributor",
      "outputs": [],
      "stateMutability": "nonpayable",
      "type": "function"
    },
    {
      "inputs": [
        {
          "internalType": "uint256",
          "name": "_productCode",
          "type": "uint256"
        }
      ],
      "name": "packageItemByDistributor",
      "outputs": [],
      "stateMutability": "nonpayable",
      "type": "function"
    },
    {
      "inputs": [
        {
          "internalType": "uint256",
          "name": "_productCode",
          "type": "uint256"
        },
        {
          "internalType": "uint256",
          "name": "_price",
          "type": "uint256"
        }
      ],
      "name": "sellItemByDistributor",
      "outputs": [],
      "stateMutability": "nonpayable",
      "type": "function"
    },
    {
      "inputs": [
        {
          "internalType": "uint256",
          "name": "_productCode",
          "type": "uint256"
        }
      ],
      "name": "purchaseItemByRetailer",
      "outputs": [],
      "stateMutability": "payable",
      "type": "function"
    },
    {
      "inputs": [
        {
          "internalType": "uint256",
          "name": "_productCode",
          "type": "uint256"
        }
      ],
      "name": "shippedItemByDistributor",
      "outputs": [],
      "stateMutability": "nonpayable",
      "type": "function"
    },
    {
      "inputs": [
        {
          "internalType": "uint256",
          "name": "_productCode",
          "type": "uint256"
        }
      ],
      "name": "receivedItemByRetailer",
      "outputs": [],
      "stateMutability": "nonpayable",
      "type": "function"
    },
    {
      "inputs": [
        {
          "internalType": "uint256",
          "name": "_productCode",
          "type": "uint256"
        },
        {
          "internalType": "uint256",
          "name": "_price",
          "type": "uint256"
        }
      ],
      "name": "sellItemByRetailer",
      "outputs": [],
      "stateMutability": "nonpayable",
      "type": "function"
    },
    {
      "inputs": [
        {
          "internalType": "uint256",
          "name": "_productCode",
          "type": "uint256"
        }
      ],
      "name": "fetchItemBufferOne",
      "outputs": [
        {
          "internalType": "uint256",
          "name": "itemstockUnit",
          "type": "uint256"
        },
        {
          "internalType": "uint256",
          "name": "itemproductCode",
          "type": "uint256"
        },
        {
          "internalType": "address",
          "name": "ownerID",
          "type": "address"
        },
        {
          "internalType": "address",
          "name": "farmerID",
          "type": "address"
        },
        {
          "internalType": "string",
          "name": "farmName",
          "type": "string"
        },
        {
          "internalType": "string",
          "name": "farmInformation",
          "type": "string"
        },
        {
          "internalType": "string",
          "name": "farmLatitude",
          "type": "string"
        },
        {
          "internalType": "string",
          "name": "farmLongitude",
          "type": "string"
        },
        {
          "internalType": "uint256",
          "name": "productDate",
          "type": "uint256"
        },
        {
          "internalType": "uint256",
          "name": "productSliced",
          "type": "uint256"
        }
      ],
      "stateMutability": "view",
      "type": "function"
    },
    {
      "inputs": [
        {
          "internalType": "uint256",
          "name": "_productCode",
          "type": "uint256"
        }
      ],
      "name": "fetchItemBufferTwo",
      "outputs": [
        {
          "internalType": "uint256",
          "name": "itemstockUnit",
          "type": "uint256"
        },
        {
          "internalType": "uint256",
          "name": "itemproductCode",
          "type": "uint256"
        },
        {
          "internalType": "uint256",
          "name": "productID",
          "type": "uint256"
        },
        {
          "internalType": "string",
          "name": "productNotes",
          "type": "string"
        },
        {
          "internalType": "uint256",
          "name": "productPrice",
          "type": "uint256"
        },
        {
          "internalType": "uint256",
          "name": "productDate",
          "type": "uint256"
        },
        {
          "internalType": "enum SupplyChain.State",
          "name": "itemState",
          "type": "uint8"
        },
        {
          "internalType": "address",
          "name": "distributorID",
          "type": "address"
        },
        {
          "internalType": "address",
          "name": "retailerID",
          "type": "address"
        },
        {
          "internalType": "address",
          "name": "consumerID",
          "type": "address"
        }
      ],
      "stateMutability": "view",
      "type": "function"
    },
    {
      "inputs": [
        {
          "internalType": "uint256",
          "name": "_productCode",
          "type": "uint256"
        }
      ],
      "name": "fetchitemHistory",
      "outputs": [
        {
          "internalType": "uint256",
          "name": "blockfarmerToDistributor",
          "type": "uint256"
        },
        {
          "internalType": "uint256",
          "name": "blockDistributorToRetailer",
          "type": "uint256"
        },
        {
          "internalType": "uint256",
          "name": "blockRetailerToConsumer",
          "type": "uint256"
        }
      ],
      "stateMutability": "view",
      "type": "function"
    }
  ],
  "bytecode": "0x60806040526200002462000018620000ea60201b60201c565b620000f260201b60201c565b6200004462000038620000ea60201b60201c565b620001b660201b60201c565b6200006462000058620000ea60201b60201c565b6200021760201b60201c565b6200008462000078620000ea60201b60201c565b6200027860201b60201c565b62000094620000ea60201b60201c565b600460006101000a81548173ffffffffffffffffffffffffffffffffffffffff021916908373ffffffffffffffffffffffffffffffffffffffff1602179055506001600681905550600160058190555062000420565b600033905090565b60008060009054906101000a900473ffffffffffffffffffffffffffffffffffffffff169050816000806101000a81548173ffffffffffffffffffffffffffffffffffffffff021916908373ffffffffffffffffffffffffffffffffffffffff1602179055508173ffffffffffffffffffffffffffffffffffffffff168173ffffffffffffffffffffffffffffffffffffffff167f8be0079c531659141344cd1fd0a4f28419497f9722a3daafe3b4186f6b6457e060405160405180910390a35050565b620001d1816001620002d960201b62002c581790919060201c565b8073ffffffffffffffffffffffffffffffffffffffff167f2e0ded4123377a3c2bc9a26f1717655a129e2f20752924d42e730ec89c83dbd060405160405180910390a250565b62000232816002620002d960201b62002c581790919060201c565b8073ffffffffffffffffffffffffffffffffffffffff167fddbf200aa634dc3fb81cfd68583dd1040d1c751d335e1d86b631bde3e977fea860405160405180910390a250565b62000293816003620002d960201b62002c581790919060201c565b8073ffffffffffffffffffffffffffffffffffffffff167f71ae26cad02663e3d92efd6ec56031a80d74a20c0ab4183faa8bf262261c9baa60405160405180910390a250565b600073ffffffffffffffffffffffffffffffffffffffff168173ffffffffffffffffffffffffffffffffffffffff16036200031357600080fd5b6200032582826200038e60201b60201c565b156200033057600080fd5b60018260000160008373ffffffffffffffffffffffffffffffffffffffff1673ffffffffffffffffffffffffffffffffffffffff16815260200190815260200160002060006101000a81548160ff0219169083151502179055505050565b60008073ffffffffffffffffffffffffffffffffffffffff168273ffffffffffffffffffffffffffffffffffffffff1603620003c957600080fd5b8260000160008373ffffffffffffffffffffffffffffffffffffffff1673ffffffffffffffffffffffffffffffffffffffff16815260200190815260200160002060009054906101000a900460ff16905092915050565b613e4480620004306000396000f3fe6080604052600436106101c25760003560e01c806380fc0ce4116100f7578063b942906911610095578063e618f00011610064578063e618f000146105e4578063eab7d6e81461060d578063f2fde38b14610636578063fdcdc06f1461065f576101c2565b8063b94290691461053c578063db0e6a2f14610579578063e02e64ea14610590578063e2bb26e9146105bb576101c2565b80638ec4f505116100d15780638ec4f505146104825780638f0c86fa146104ab5780638f32d59b146104e85780639154135514610513576101c2565b806380fc0ce41461041957806382e831ec146104305780638adff8ba14610459576101c2565b8063644241db1161016457806371f3ff901161013e57806371f3ff90146103655780637250e2241461038157806377c45913146103aa57806380c3f96d146103f0576101c2565b8063644241db146102f157806366225ff914610308578063715018a61461034e576101c2565b806337b2f92c116101a057806337b2f92c1461024b57806341c0e1b514610274578063546eb5861461028b5780635da09b88146102b4576101c2565b80631154501c146101c757806324cb16691461020657806326d529b41461022f575b600080fd5b3480156101d357600080fd5b506101ee60048036038101906101e9919061331d565b61067b565b6040516101fd93929190613359565b60405180910390f35b34801561021257600080fd5b5061022d6004803603810190610228919061331d565b6106dc565b005b6102496004803603810190610244919061331d565b61083b565b005b34801561025757600080fd5b50610272600480360381019061026d919061331d565b610b3b565b005b34801561028057600080fd5b50610289610c9a565b005b34801561029757600080fd5b506102b260048036038101906102ad9190613390565b610d40565b005b3480156102c057600080fd5b506102db60048036038101906102d6919061342e565b610ebb565b6040516102e89190613476565b60405180910390f35b3480156102fd57600080fd5b50610306610ed8565b005b34801561031457600080fd5b5061032f600480360381019061032a919061331d565b610eea565b6040516103459a999897969594939291906135a7565b60405180910390f35b34801561035a57600080fd5b50610363611478565b005b61037f600480360381019061037a919061331d565b61148c565b005b34801561038d57600080fd5b506103a860048036038101906103a3919061342e565b6115eb565b005b3480156103b657600080fd5b506103d160048036038101906103cc919061331d565b611610565b6040516103e79a9998979695949392919061364a565b60405180910390f35b3480156103fc57600080fd5b506104176004803603810190610412919061342e565b611b97565b005b34801561042557600080fd5b5061042e611bbc565b005b34801561043c57600080fd5b506104576004803603810190610452919061331d565b611bce565b005b34801561046557600080fd5b50610480600480360381019061047b9190613390565b611d2d565b005b34801561048e57600080fd5b506104a960048036038101906104a4919061342e565b611ea9565b005b3480156104b757600080fd5b506104d260048036038101906104cd919061342e565b611ece565b6040516104df9190613476565b60405180910390f35b3480156104f457600080fd5b506104fd611eeb565b60405161050a9190613702565b60405180910390f35b34801561051f57600080fd5b5061053a6004803603810190610535919061331d565b611f14565b005b34801561054857600080fd5b50610563600480360381019061055e919061342e565b612073565b6040516105709190613476565b60405180910390f35b34801561058557600080fd5b5061058e612090565b005b34801561059c57600080fd5b506105a56120a2565b6040516105b29190613702565b60405180910390f35b3480156105c757600080fd5b506105e260048036038101906105dd9190613852565b6120cb565b005b3480156105f057600080fd5b5061060b60048036038101906106069190613390565b6125df565b005b34801561061957600080fd5b50610634600480360381019061062f9190613390565b61275a565b005b34801561064257600080fd5b5061065d6004803603810190610658919061342e565b6128d5565b005b6106796004803603810190610674919061331d565b612958565b005b6000806000806008600086815260200190815260200160002060405180606001604052908160008201548152602001600182015481526020016002820154815250509050806000015181602001518260400151935093509350509193909250565b6106ec6106e7612d03565b611ece565b6106f557600080fd5b806003600b81111561070a57610709613521565b5b60076000838152602001908152602001600020600d0160009054906101000a900460ff16600b8111156107405761073f613521565b5b1461074a57600080fd5b6007600083815260200190815260200160002060020160009054906101000a900473ffffffffffffffffffffffffffffffffffffffff168073ffffffffffffffffffffffffffffffffffffffff166107a0612d03565b73ffffffffffffffffffffffffffffffffffffffff16146107c057600080fd5b600460076000858152602001908152602001600020600d0160006101000a81548160ff0219169083600b8111156107fa576107f9613521565b5b02179055507fc8ca2150e6e1849a10ef5aa4932060fa353bcacdffeb150c9e1890c6ab9403cc8360405161082e9190613980565b60405180910390a1505050565b61084b610846612d03565b610ebb565b61085457600080fd5b806007600b81111561086957610868613521565b5b60076000838152602001908152602001600020600d0160009054906101000a900460ff16600b81111561089f5761089e613521565b5b146108a957600080fd5b60076000838152602001908152602001600020600b0154803410156108cd57600080fd5b826108d6612d03565b600060076000848152602001908152602001600020600b01549050600081346108ff91906139ca565b90508273ffffffffffffffffffffffffffffffffffffffff166108fc829081150290604051600060405180830381858888f19350505050158015610947573d6000803e3d6000fd5b506000610989600760008a8152602001908152602001600020600d0160019054906101000a900473ffffffffffffffffffffffffffffffffffffffff16612d0b565b90508073ffffffffffffffffffffffffffffffffffffffff166108fc600760008b8152602001908152602001600020600b01549081150290604051600060405180830381858888f193505050501580156109e7573d6000803e3d6000fd5b506109f0612d03565b600760008a815260200190815260200160002060020160006101000a81548173ffffffffffffffffffffffffffffffffffffffff021916908373ffffffffffffffffffffffffffffffffffffffff160217905550610a4c612d03565b600760008a8152602001908152602001600020600e0160006101000a81548173ffffffffffffffffffffffffffffffffffffffff021916908373ffffffffffffffffffffffffffffffffffffffff1602179055506008600760008a8152602001908152602001600020600d0160006101000a81548160ff0219169083600b811115610ada57610ad9613521565b5b021790555043600860008a8152602001908152602001600020600101819055507faa7352d10146444c3afd9bd7fb0ae56b0a85e81139536bbec3f1f660fddd7be188604051610b299190613980565b60405180910390a15050505050505050565b610b4b610b46612d03565b610ebb565b610b5457600080fd5b806009600b811115610b6957610b68613521565b5b60076000838152602001908152602001600020600d0160009054906101000a900460ff16600b811115610b9f57610b9e613521565b5b14610ba957600080fd5b6007600083815260200190815260200160002060020160009054906101000a900473ffffffffffffffffffffffffffffffffffffffff168073ffffffffffffffffffffffffffffffffffffffff16610bff612d03565b73ffffffffffffffffffffffffffffffffffffffff1614610c1f57600080fd5b600a60076000858152602001908152602001600020600d0160006101000a81548160ff0219169083600b811115610c5957610c58613521565b5b02179055507f322f34e90f2269750b3e28178631d975cc678db36f21098fe548b7f755ce0bd083604051610c8d9190613980565b60405180910390a1505050565b600460009054906101000a900473ffffffffffffffffffffffffffffffffffffffff1673ffffffffffffffffffffffffffffffffffffffff16610cdb612d03565b73ffffffffffffffffffffffffffffffffffffffff1603610d3e576000610d23600460009054906101000a900473ffffffffffffffffffffffffffffffffffffffff16612d0b565b90508073ffffffffffffffffffffffffffffffffffffffff16ff5b565b610d50610d4b612d03565b610ebb565b610d5957600080fd5b81600a600b811115610d6e57610d6d613521565b5b60076000838152602001908152602001600020600d0160009054906101000a900460ff16600b811115610da457610da3613521565b5b14610dae57600080fd5b6007600084815260200190815260200160002060020160009054906101000a900473ffffffffffffffffffffffffffffffffffffffff168073ffffffffffffffffffffffffffffffffffffffff16610e04612d03565b73ffffffffffffffffffffffffffffffffffffffff1614610e2457600080fd5b600b60076000868152602001908152602001600020600d0160006101000a81548160ff0219169083600b811115610e5e57610e5d613521565b5b02179055508260076000868152602001908152602001600020600b01819055507f59e7ad085805e2b02ad4b0f8033bd75e7ee4c8cd43f996267463585e3589625284604051610ead9190613980565b60405180910390a150505050565b6000610ed1826003612d1590919063ffffffff16565b9050919050565b610ee8610ee3612d03565b612da6565b565b600080600060606000806000806000806000600760008d81526020019081526020016000206040518061022001604052908160008201548152602001600182015481526020016002820160009054906101000a900473ffffffffffffffffffffffffffffffffffffffff1673ffffffffffffffffffffffffffffffffffffffff1673ffffffffffffffffffffffffffffffffffffffff1681526020016003820160009054906101000a900473ffffffffffffffffffffffffffffffffffffffff1673ffffffffffffffffffffffffffffffffffffffff1673ffffffffffffffffffffffffffffffffffffffff168152602001600482018054610feb90613a2d565b80601f016020809104026020016040519081016040528092919081815260200182805461101790613a2d565b80156110645780601f1061103957610100808354040283529160200191611064565b820191906000526020600020905b81548152906001019060200180831161104757829003601f168201915b5050505050815260200160058201805461107d90613a2d565b80601f01602080910402602001604051908101604052809291908181526020018280546110a990613a2d565b80156110f65780601f106110cb576101008083540402835291602001916110f6565b820191906000526020600020905b8154815290600101906020018083116110d957829003601f168201915b5050505050815260200160068201805461110f90613a2d565b80601f016020809104026020016040519081016040528092919081815260200182805461113b90613a2d565b80156111885780601f1061115d57610100808354040283529160200191611188565b820191906000526020600020905b81548152906001019060200180831161116b57829003601f168201915b505050505081526020016007820180546111a190613a2d565b80601f01602080910402602001604051908101604052809291908181526020018280546111cd90613a2d565b801561121a5780601f106111ef5761010080835404028352916020019161121a565b820191906000526020600020905b8154815290600101906020018083116111fd57829003601f168201915b505050505081526020016008820154815260200160098201805461123d90613a2d565b80601f016020809104026020016040519081016040528092919081815260200182805461126990613a2d565b80156112b65780601f1061128b576101008083540402835291602001916112b6565b820191906000526020600020905b81548152906001019060200180831161129957829003601f168201915b50505050508152602001600a8201548152602001600b8201548152602001600c8201548152602001600d820160009054906101000a900460ff16600b81111561130257611301613521565b5b600b81111561131457611313613521565b5b8152602001600d820160019054906101000a900473ffffffffffffffffffffffffffffffffffffffff1673ffffffffffffffffffffffffffffffffffffffff1673ffffffffffffffffffffffffffffffffffffffff168152602001600e820160009054906101000a900473ffffffffffffffffffffffffffffffffffffffff1673ffffffffffffffffffffffffffffffffffffffff1673ffffffffffffffffffffffffffffffffffffffff168152602001600f820160009054906101000a900473ffffffffffffffffffffffffffffffffffffffff1673ffffffffffffffffffffffffffffffffffffffff1673ffffffffffffffffffffffffffffffffffffffff1681525050905080600001518160200151826101000151836101200151846101600151856101400151866101a00151876101c00151886101e001518961020001519a509a509a509a509a509a509a509a509a509a50509193959799509193959799565b611480612e00565b61148a6000612e7e565b565b61149c611497612d03565b612073565b6114a557600080fd5b806002600b8111156114ba576114b9613521565b5b60076000838152602001908152602001600020600d0160009054906101000a900460ff16600b8111156114f0576114ef613521565b5b146114fa57600080fd5b6007600083815260200190815260200160002060030160009054906101000a900473ffffffffffffffffffffffffffffffffffffffff168073ffffffffffffffffffffffffffffffffffffffff16611550612d03565b73ffffffffffffffffffffffffffffffffffffffff161461157057600080fd5b600360076000858152602001908152602001600020600d0160006101000a81548160ff0219169083600b8111156115aa576115a9613521565b5b02179055507fe6ae062d51064ae2a5a31a72fcb1bee1d343fdc6bddc1d3dfce658ece4f03212836040516115de9190613980565b60405180910390a1505050565b6115fb6115f6612d03565b611ece565b61160457600080fd5b61160d81612f42565b50565b6000806000806060806060806000806000600760008d81526020019081526020016000206040518061022001604052908160008201548152602001600182015481526020016002820160009054906101000a900473ffffffffffffffffffffffffffffffffffffffff1673ffffffffffffffffffffffffffffffffffffffff1673ffffffffffffffffffffffffffffffffffffffff1681526020016003820160009054906101000a900473ffffffffffffffffffffffffffffffffffffffff1673ffffffffffffffffffffffffffffffffffffffff1673ffffffffffffffffffffffffffffffffffffffff16815260200160048201805461171090613a2d565b80601f016020809104026020016040519081016040528092919081815260200182805461173c90613a2d565b80156117895780601f1061175e57610100808354040283529160200191611789565b820191906000526020600020905b81548152906001019060200180831161176c57829003601f168201915b505050505081526020016005820180546117a290613a2d565b80601f01602080910402602001604051908101604052809291908181526020018280546117ce90613a2d565b801561181b5780601f106117f05761010080835404028352916020019161181b565b820191906000526020600020905b8154815290600101906020018083116117fe57829003601f168201915b5050505050815260200160068201805461183490613a2d565b80601f016020809104026020016040519081016040528092919081815260200182805461186090613a2d565b80156118ad5780601f10611882576101008083540402835291602001916118ad565b820191906000526020600020905b81548152906001019060200180831161189057829003601f168201915b505050505081526020016007820180546118c690613a2d565b80601f01602080910402602001604051908101604052809291908181526020018280546118f290613a2d565b801561193f5780601f106119145761010080835404028352916020019161193f565b820191906000526020600020905b81548152906001019060200180831161192257829003601f168201915b505050505081526020016008820154815260200160098201805461196290613a2d565b80601f016020809104026020016040519081016040528092919081815260200182805461198e90613a2d565b80156119db5780601f106119b0576101008083540402835291602001916119db565b820191906000526020600020905b8154815290600101906020018083116119be57829003601f168201915b50505050508152602001600a8201548152602001600b8201548152602001600c8201548152602001600d820160009054906101000a900460ff16600b811115611a2757611a26613521565b5b600b811115611a3957611a38613521565b5b8152602001600d820160019054906101000a900473ffffffffffffffffffffffffffffffffffffffff1673ffffffffffffffffffffffffffffffffffffffff1673ffffffffffffffffffffffffffffffffffffffff168152602001600e820160009054906101000a900473ffffffffffffffffffffffffffffffffffffffff1673ffffffffffffffffffffffffffffffffffffffff1673ffffffffffffffffffffffffffffffffffffffff168152602001600f820160009054906101000a900473ffffffffffffffffffffffffffffffffffffffff1673ffffffffffffffffffffffffffffffffffffffff1673ffffffffffffffffffffffffffffffffffffffff16815250509050806000015181602001518260400151836060015184608001518560a001518660c001518760e001518861014001518961018001519a509a509a509a509a509a509a509a509a509a50509193959799509193959799565b611ba7611ba2612d03565b612073565b611bb057600080fd5b611bb981612f9c565b50565b611bcc611bc7612d03565b612ff6565b565b611bde611bd9612d03565b611ece565b611be757600080fd5b806008600b811115611bfc57611bfb613521565b5b60076000838152602001908152602001600020600d0160009054906101000a900460ff16600b811115611c3257611c31613521565b5b14611c3c57600080fd5b60076000838152602001908152602001600020600d0160019054906101000a900473ffffffffffffffffffffffffffffffffffffffff168073ffffffffffffffffffffffffffffffffffffffff16611c92612d03565b73ffffffffffffffffffffffffffffffffffffffff1614611cb257600080fd5b600960076000858152602001908152602001600020600d0160006101000a81548160ff0219169083600b811115611cec57611ceb613521565b5b02179055507fc5c33776d405e5686e4386e1ef31a65cf6195e4f7ceb8808ab64d05b6ccbc2a683604051611d209190613980565b60405180910390a1505050565b611d3d611d38612d03565b611ece565b611d4657600080fd5b816006600b811115611d5b57611d5a613521565b5b60076000838152602001908152602001600020600d0160009054906101000a900460ff16600b811115611d9157611d90613521565b5b14611d9b57600080fd5b6007600084815260200190815260200160002060020160009054906101000a900473ffffffffffffffffffffffffffffffffffffffff168073ffffffffffffffffffffffffffffffffffffffff16611df1612d03565b73ffffffffffffffffffffffffffffffffffffffff1614611e1157600080fd5b6007806000868152602001908152602001600020600d0160006101000a81548160ff0219169083600b811115611e4a57611e49613521565b5b02179055508260076000868152602001908152602001600020600b01819055507f539b4a835a8a5d1bc5756a9f146e2bfeaa6bd6b1fa77a7631c0a5154c86cdd03600554604051611e9b9190613980565b60405180910390a150505050565b611eb9611eb4612d03565b610ebb565b611ec257600080fd5b611ecb81613050565b50565b6000611ee4826002612d1590919063ffffffff16565b9050919050565b60008060009054906101000a900473ffffffffffffffffffffffffffffffffffffffff16905090565b611f24611f1f612d03565b611ece565b611f2d57600080fd5b806005600b811115611f4257611f41613521565b5b60076000838152602001908152602001600020600d0160009054906101000a900460ff16600b811115611f7857611f77613521565b5b14611f8257600080fd5b6007600083815260200190815260200160002060020160009054906101000a900473ffffffffffffffffffffffffffffffffffffffff168073ffffffffffffffffffffffffffffffffffffffff16611fd8612d03565b73ffffffffffffffffffffffffffffffffffffffff1614611ff857600080fd5b600660076000858152602001908152602001600020600d0160006101000a81548160ff0219169083600b81111561203257612031613521565b5b02179055507fe66bb55f536a4cc96647dde6ff37b712c07348eaa88366931f491d93c0fcd981836040516120669190613980565b60405180910390a1505050565b6000612089826001612d1590919063ffffffff16565b9050919050565b6120a061209b612d03565b6130aa565b565b60008060009054906101000a900473ffffffffffffffffffffffffffffffffffffffff16905090565b6120db6120d6612d03565b612073565b6120e457600080fd5b60008060006120f16131ae565b6006548160000181815250508a81602001818152505061210f612d03565b816040019073ffffffffffffffffffffffffffffffffffffffff16908173ffffffffffffffffffffffffffffffffffffffff168152505061214e612d03565b816060019073ffffffffffffffffffffffffffffffffffffffff16908173ffffffffffffffffffffffffffffffffffffffff1681525050898160800181905250888160a00181905250878160c00181905250868160e001819052506006548b6121b79190613a5e565b8161010001818152505085816101200181905250848161016001818152505042816101400181815250506000816101800181815250506000816101a00190600b81111561220757612206613521565b5b9081600b81111561221b5761221a613521565b5b8152505083816101c0019073ffffffffffffffffffffffffffffffffffffffff16908173ffffffffffffffffffffffffffffffffffffffff168152505082816101e0019073ffffffffffffffffffffffffffffffffffffffff16908173ffffffffffffffffffffffffffffffffffffffff16815250508181610200019073ffffffffffffffffffffffffffffffffffffffff16908173ffffffffffffffffffffffffffffffffffffffff168152505080600760008d8152602001908152602001600020600082015181600001556020820151816001015560408201518160020160006101000a81548173ffffffffffffffffffffffffffffffffffffffff021916908373ffffffffffffffffffffffffffffffffffffffff16021790555060608201518160030160006101000a81548173ffffffffffffffffffffffffffffffffffffffff021916908373ffffffffffffffffffffffffffffffffffffffff16021790555060808201518160040190816123959190613c3e565b5060a08201518160050190816123ab9190613c3e565b5060c08201518160060190816123c19190613c3e565b5060e08201518160070190816123d79190613c3e565b5061010082015181600801556101208201518160090190816123f99190613c3e565b5061014082015181600a015561016082015181600b015561018082015181600c01556101a082015181600d0160006101000a81548160ff0219169083600b81111561244757612446613521565b5b02179055506101c082015181600d0160016101000a81548173ffffffffffffffffffffffffffffffffffffffff021916908373ffffffffffffffffffffffffffffffffffffffff1602179055506101e082015181600e0160006101000a81548173ffffffffffffffffffffffffffffffffffffffff021916908373ffffffffffffffffffffffffffffffffffffffff16021790555061020082015181600f0160006101000a81548173ffffffffffffffffffffffffffffffffffffffff021916908373ffffffffffffffffffffffffffffffffffffffff16021790555090505060006125316132b2565b81816000018181525050818160200181815250508181604001818152505080600860008f815260200190815260200160002060008201518160000155602082015181600101556040820151816002015590505060016006546125939190613a5e565b6006819055507fe8a027a2bb83abbf6ec926b84d4aeb91585c16b58b27b8d0f0fb451566a552118d6040516125c89190613980565b60405180910390a150505050505050505050505050565b6125ef6125ea612d03565b612073565b6125f857600080fd5b816000600b81111561260d5761260c613521565b5b60076000838152602001908152602001600020600d0160009054906101000a900460ff16600b81111561264357612642613521565b5b1461264d57600080fd5b6007600084815260200190815260200160002060020160009054906101000a900473ffffffffffffffffffffffffffffffffffffffff168073ffffffffffffffffffffffffffffffffffffffff166126a3612d03565b73ffffffffffffffffffffffffffffffffffffffff16146126c357600080fd5b600160076000868152602001908152602001600020600d0160006101000a81548160ff0219169083600b8111156126fd576126fc613521565b5b02179055508260076000868152602001908152602001600020600b01819055507f7a02b5a0b1f928cffcafd0e750f369a40f124f4f34f65801fe1f0d945b9a79158460405161274c9190613980565b60405180910390a150505050565b61276a612765612d03565b611ece565b61277357600080fd5b816004600b81111561278857612787613521565b5b60076000838152602001908152602001600020600d0160009054906101000a900460ff16600b8111156127be576127bd613521565b5b146127c857600080fd5b6007600084815260200190815260200160002060020160009054906101000a900473ffffffffffffffffffffffffffffffffffffffff168073ffffffffffffffffffffffffffffffffffffffff1661281e612d03565b73ffffffffffffffffffffffffffffffffffffffff161461283e57600080fd5b600560076000868152602001908152602001600020600d0160006101000a81548160ff0219169083600b81111561287857612877613521565b5b02179055508260076000868152602001908152602001600020600c01819055507f5725e53fd0efed5294b7db2af148f040264a63630b4deb0afbccf6e60830988a846040516128c79190613980565b60405180910390a150505050565b6128dd612e00565b600073ffffffffffffffffffffffffffffffffffffffff168173ffffffffffffffffffffffffffffffffffffffff160361294c576040517f08c379a000000000000000000000000000000000000000000000000000000000815260040161294390613d82565b60405180910390fd5b61295581612e7e565b50565b612968612963612d03565b611ece565b61297157600080fd5b806001600b81111561298657612985613521565b5b60076000838152602001908152602001600020600d0160009054906101000a900460ff16600b8111156129bc576129bb613521565b5b146129c657600080fd5b60076000838152602001908152602001600020600b0154803410156129ea57600080fd5b826129f3612d03565b600060076000848152602001908152602001600020600b0154905060008134612a1c91906139ca565b90508273ffffffffffffffffffffffffffffffffffffffff166108fc829081150290604051600060405180830381858888f19350505050158015612a64573d6000803e3d6000fd5b506000612aa6600760008a815260200190815260200160002060030160009054906101000a900473ffffffffffffffffffffffffffffffffffffffff16612d0b565b90508073ffffffffffffffffffffffffffffffffffffffff166108fc600760008b8152602001908152602001600020600b01549081150290604051600060405180830381858888f19350505050158015612b04573d6000803e3d6000fd5b50612b0d612d03565b600760008a815260200190815260200160002060020160006101000a81548173ffffffffffffffffffffffffffffffffffffffff021916908373ffffffffffffffffffffffffffffffffffffffff160217905550612b69612d03565b600760008a8152602001908152602001600020600d0160016101000a81548173ffffffffffffffffffffffffffffffffffffffff021916908373ffffffffffffffffffffffffffffffffffffffff1602179055506002600760008a8152602001908152602001600020600d0160006101000a81548160ff0219169083600b811115612bf757612bf6613521565b5b021790555043600860008a8152602001908152602001600020600001819055507facd9402b9f9e8c15fa7c1819f8393ca56eb61316cc354fc6ac2150aed3ce793188604051612c469190613980565b60405180910390a15050505050505050565b600073ffffffffffffffffffffffffffffffffffffffff168173ffffffffffffffffffffffffffffffffffffffff1603612c9157600080fd5b612c9b8282612d15565b15612ca557600080fd5b60018260000160008373ffffffffffffffffffffffffffffffffffffffff1673ffffffffffffffffffffffffffffffffffffffff16815260200190815260200160002060006101000a81548160ff0219169083151502179055505050565b600033905090565b6000819050919050565b60008073ffffffffffffffffffffffffffffffffffffffff168273ffffffffffffffffffffffffffffffffffffffff1603612d4f57600080fd5b8260000160008373ffffffffffffffffffffffffffffffffffffffff1673ffffffffffffffffffffffffffffffffffffffff16815260200190815260200160002060009054906101000a900460ff16905092915050565b612dba81600261310490919063ffffffff16565b8073ffffffffffffffffffffffffffffffffffffffff167f126174f6cf49c81cdb4a9214c6b8f037bef55b4ec31e4fc776cea2a1c8a88d5960405160405180910390a250565b612e08611eeb565b73ffffffffffffffffffffffffffffffffffffffff16612e26612d03565b73ffffffffffffffffffffffffffffffffffffffff1614612e7c576040517f08c379a0000000000000000000000000000000000000000000000000000000008152600401612e7390613dee565b60405180910390fd5b565b60008060009054906101000a900473ffffffffffffffffffffffffffffffffffffffff169050816000806101000a81548173ffffffffffffffffffffffffffffffffffffffff021916908373ffffffffffffffffffffffffffffffffffffffff1602179055508173ffffffffffffffffffffffffffffffffffffffff168173ffffffffffffffffffffffffffffffffffffffff167f8be0079c531659141344cd1fd0a4f28419497f9722a3daafe3b4186f6b6457e060405160405180910390a35050565b612f56816002612c5890919063ffffffff16565b8073ffffffffffffffffffffffffffffffffffffffff167fddbf200aa634dc3fb81cfd68583dd1040d1c751d335e1d86b631bde3e977fea860405160405180910390a250565b612fb0816001612c5890919063ffffffff16565b8073ffffffffffffffffffffffffffffffffffffffff167f2e0ded4123377a3c2bc9a26f1717655a129e2f20752924d42e730ec89c83dbd060405160405180910390a250565b61300a81600161310490919063ffffffff16565b8073ffffffffffffffffffffffffffffffffffffffff167fa5e0f060af304ab17dd418c7927e3da3ae7868189bf387aee09ab179ccc572f260405160405180910390a250565b613064816003612c5890919063ffffffff16565b8073ffffffffffffffffffffffffffffffffffffffff167f71ae26cad02663e3d92efd6ec56031a80d74a20c0ab4183faa8bf262261c9baa60405160405180910390a250565b6130be81600361310490919063ffffffff16565b8073ffffffffffffffffffffffffffffffffffffffff167fdb7176e79cffef81cb01767dd0447a0b24bb72ca9778d4b245581086b2a7e6db60405160405180910390a250565b600073ffffffffffffffffffffffffffffffffffffffff168173ffffffffffffffffffffffffffffffffffffffff160361313d57600080fd5b6131478282612d15565b61315057600080fd5b60008260000160008373ffffffffffffffffffffffffffffffffffffffff1673ffffffffffffffffffffffffffffffffffffffff16815260200190815260200160002060006101000a81548160ff0219169083151502179055505050565b6040518061022001604052806000815260200160008152602001600073ffffffffffffffffffffffffffffffffffffffff168152602001600073ffffffffffffffffffffffffffffffffffffffff1681526020016060815260200160608152602001606081526020016060815260200160008152602001606081526020016000815260200160008152602001600081526020016000600b81111561325557613254613521565b5b8152602001600073ffffffffffffffffffffffffffffffffffffffff168152602001600073ffffffffffffffffffffffffffffffffffffffff168152602001600073ffffffffffffffffffffffffffffffffffffffff1681525090565b60405180606001604052806000815260200160008152602001600081525090565b6000604051905090565b600080fd5b600080fd5b6000819050919050565b6132fa816132e7565b811461330557600080fd5b50565b600081359050613317816132f1565b92915050565b600060208284031215613333576133326132dd565b5b600061334184828501613308565b91505092915050565b613353816132e7565b82525050565b600060608201905061336e600083018661334a565b61337b602083018561334a565b613388604083018461334a565b949350505050565b600080604083850312156133a7576133a66132dd565b5b60006133b585828601613308565b92505060206133c685828601613308565b9150509250929050565b600073ffffffffffffffffffffffffffffffffffffffff82169050919050565b60006133fb826133d0565b9050919050565b61340b816133f0565b811461341657600080fd5b50565b60008135905061342881613402565b92915050565b600060208284031215613444576134436132dd565b5b600061345284828501613419565b91505092915050565b60008115159050919050565b6134708161345b565b82525050565b600060208201905061348b6000830184613467565b92915050565b600081519050919050565b600082825260208201905092915050565b60005b838110156134cb5780820151818401526020810190506134b0565b60008484015250505050565b6000601f19601f8301169050919050565b60006134f382613491565b6134fd818561349c565b935061350d8185602086016134ad565b613516816134d7565b840191505092915050565b7f4e487b7100000000000000000000000000000000000000000000000000000000600052602160045260246000fd5b600c811061356157613560613521565b5b50565b600081905061357282613550565b919050565b600061358282613564565b9050919050565b61359281613577565b82525050565b6135a1816133f0565b82525050565b6000610140820190506135bd600083018d61334a565b6135ca602083018c61334a565b6135d7604083018b61334a565b81810360608301526135e9818a6134e8565b90506135f8608083018961334a565b61360560a083018861334a565b61361260c0830187613589565b61361f60e0830186613598565b61362d610100830185613598565b61363b610120830184613598565b9b9a5050505050505050505050565b600061014082019050613660600083018d61334a565b61366d602083018c61334a565b61367a604083018b613598565b613687606083018a613598565b818103608083015261369981896134e8565b905081810360a08301526136ad81886134e8565b905081810360c08301526136c181876134e8565b905081810360e08301526136d581866134e8565b90506136e561010083018561334a565b6136f361012083018461334a565b9b9a5050505050505050505050565b60006020820190506137176000830184613598565b92915050565b600080fd5b600080fd5b7f4e487b7100000000000000000000000000000000000000000000000000000000600052604160045260246000fd5b61375f826134d7565b810181811067ffffffffffffffff8211171561377e5761377d613727565b5b80604052505050565b60006137916132d3565b905061379d8282613756565b919050565b600067ffffffffffffffff8211156137bd576137bc613727565b5b6137c6826134d7565b9050602081019050919050565b82818337600083830152505050565b60006137f56137f0846137a2565b613787565b90508281526020810184848401111561381157613810613722565b5b61381c8482856137d3565b509392505050565b600082601f8301126138395761383861371d565b5b81356138498482602086016137e2565b91505092915050565b600080600080600080600060e0888a031215613871576138706132dd565b5b600061387f8a828b01613308565b975050602088013567ffffffffffffffff8111156138a05761389f6132e2565b5b6138ac8a828b01613824565b965050604088013567ffffffffffffffff8111156138cd576138cc6132e2565b5b6138d98a828b01613824565b955050606088013567ffffffffffffffff8111156138fa576138f96132e2565b5b6139068a828b01613824565b945050608088013567ffffffffffffffff811115613927576139266132e2565b5b6139338a828b01613824565b93505060a088013567ffffffffffffffff811115613954576139536132e2565b5b6139608a828b01613824565b92505060c06139718a828b01613308565b91505092959891949750929550565b6000602082019050613995600083018461334a565b92915050565b7f4e487b7100000000000000000000000000000000000000000000000000000000600052601160045260246000fd5b60006139d5826132e7565b91506139e0836132e7565b92508282039050818111156139f8576139f761399b565b5b92915050565b7f4e487b7100000000000000000000000000000000000000000000000000000000600052602260045260246000fd5b60006002820490506001821680613a4557607f821691505b602082108103613a5857613a576139fe565b5b50919050565b6000613a69826132e7565b9150613a74836132e7565b9250828201905080821115613a8c57613a8b61399b565b5b92915050565b60008190508160005260206000209050919050565b60006020601f8301049050919050565b600082821b905092915050565b600060088302613af47fffffffffffffffffffffffffffffffffffffffffffffffffffffffffffffffff82613ab7565b613afe8683613ab7565b95508019841693508086168417925050509392505050565b6000819050919050565b6000613b3b613b36613b31846132e7565b613b16565b6132e7565b9050919050565b6000819050919050565b613b5583613b20565b613b69613b6182613b42565b848454613ac4565b825550505050565b600090565b613b7e613b71565b613b89818484613b4c565b505050565b5b81811015613bad57613ba2600082613b76565b600181019050613b8f565b5050565b601f821115613bf257613bc381613a92565b613bcc84613aa7565b81016020851015613bdb578190505b613bef613be785613aa7565b830182613b8e565b50505b505050565b600082821c905092915050565b6000613c1560001984600802613bf7565b1980831691505092915050565b6000613c2e8383613c04565b9150826002028217905092915050565b613c4782613491565b67ffffffffffffffff811115613c6057613c5f613727565b5b613c6a8254613a2d565b613c75828285613bb1565b600060209050601f831160018114613ca85760008415613c96578287015190505b613ca08582613c22565b865550613d08565b601f198416613cb686613a92565b60005b82811015613cde57848901518255600182019150602085019450602081019050613cb9565b86831015613cfb5784890151613cf7601f891682613c04565b8355505b6001600288020188555050505b505050505050565b7f4f776e61626c653a206e6577206f776e657220697320746865207a65726f206160008201527f6464726573730000000000000000000000000000000000000000000000000000602082015250565b6000613d6c60268361349c565b9150613d7782613d10565b604082019050919050565b60006020820190508181036000830152613d9b81613d5f565b9050919050565b7f4f776e61626c653a2063616c6c6572206973206e6f7420746865206f776e6572600082015250565b6000613dd860208361349c565b9150613de382613da2565b602082019050919050565b60006020820190508181036000830152613e0781613dcb565b905091905056fea264697066735822122091251064f25da8ef0eab3193a67f03b27dc153ae88206c276ac87fae209dd4e464736f6c63430008110033",
  "immutableReferences": {},
  "source": "// SPDX-License-Identifier: MIT\r\npragma solidity ^0.8.0;\r\n\r\nimport \"./Ownable.sol\";\r\nimport \"./FarmerRole.sol\";\r\nimport \"./DistributorRole.sol\";\r\nimport \"./RetailerRole.sol\";\r\n// import \"./ConsumerRole.sol\";\r\n\r\n// Define a contract 'Supplychain'\r\ncontract SupplyChain is\r\n    Ownable,\r\n    FarmerRole,\r\n    DistributorRole,\r\n    RetailerRole\r\n{\r\n    // Define 'owner'\r\n    address owner;\r\n\r\n    // Define a variable called 'productCode' for Universal Product Code (productCode)\r\n    uint256 productCode;\r\n\r\n    // Define a variable called 'stockUnit' for Stock Keeping Unit (stockUnit)\r\n    uint256 stockUnit;\r\n\r\n    // Define a public mapping 'items' that maps the productCode to an Item.\r\n    mapping(uint256 => Item) items;\r\n\r\n    // Define a public mapping 'itemsHistory' that maps the productCode to an array of TxHash,\r\n    // that track its journey through the supply chain -- to be sent from DApp.\r\n    mapping(uint256 => Txblocks) itemsHistory;\r\n\r\n    // Define enum 'State' with the following values:\r\n    enum State {\r\n        ProduceByFarmer, // 0\r\n        ForSaleByFarmer, // 1\r\n        PurchasedByDistributor, // 2\r\n        ShippedByFarmer, // 3\r\n        ReceivedByDistributor, // 4\r\n        ProcessedByDistributor, // 5\r\n        PackageByDistributor, // 6\r\n        ForSaleByDistributor, // 7\r\n        PurchasedByRetailer, // 8\r\n        ShippedByDistributor, // 9\r\n        ReceivedByRetailer, // 10\r\n        ForSaleByRetailer // 11\r\n    }\r\n\r\n    State constant defaultState = State.ProduceByFarmer;\r\n\r\n    // Define a struct 'Item' with the following fields:\r\n    struct Item {\r\n        uint256 stockUnit; // Stock Keeping Unit (stockUnit)\r\n        uint256 productCode; // Universal Product Code (productCode), generated by the Farmer, goes on the package, can be verified by the Consumer\r\n        address ownerID; // Metamask-Ethereum address of the current owner as the product moves through 8 stages\r\n        address farmerID; // Metamask-Ethereum address of the Farmer // ADDED PAYABLE\r\n        string farmName; // Farmer Name\r\n        string farmInformation; // Farmer Information\r\n        string farmLatitude; // Farm Latitude\r\n        string farmLongitude; // Farm Longitude\r\n        uint256 productID; // Product ID potentially a combination of productCode + stockUnit\r\n        string productNotes; // Product Notes\r\n        uint256 productDate; // Product Date NOTE: MIGHT NEED TO CHANGE type\r\n        uint256 productPrice; // Product Price\r\n        uint256 productSliced; // Parent product\r\n        State itemState; // Product State as represented in the enum above\r\n        address distributorID; // Metamask-Ethereum address of the Distributor\r\n        address retailerID; // Metamask-Ethereum address of the Retailer\r\n        address consumerID; // Metamask-Ethereum address of the Consumer // ADDED payable\r\n    }\r\n\r\n    // Block number stuct\r\n    struct Txblocks {\r\n        uint256 FTD; // blockfarmerToDistributor\r\n        uint256 DTR; // blockDistributorToRetailer\r\n        uint256 RTC; // blockRetailerToConsumer\r\n    }\r\n\r\n    event ProduceByFarmer(uint256 productCode); //1\r\n    event ForSaleByFarmer(uint256 productCode); //2\r\n    event PurchasedByDistributor(uint256 productCode); //3\r\n    event ShippedByFarmer(uint256 productCode); //4\r\n    event ReceivedByDistributor(uint256 productCode); //5\r\n    event ProcessedByDistributor(uint256 productCode); //6\r\n    event PackagedByDistributor(uint256 productCode); //7\r\n    event ForSaleByDistributor(uint256 productCode); //8\r\n    event PurchasedByRetailer(uint256 productCode); //9\r\n    event ShippedByDistributor(uint256 productCode); //10\r\n    event ReceivedByRetailer(uint256 productCode); //11\r\n    event ForSaleByRetailer(uint256 productCode); //12\r\n    event PurchasedByConsumer(uint256 productCode); //13\r\n\r\n    // Define a modifer that checks to see if _msgSender() == owner of the contract\r\n    modifier only_Owner() {\r\n        require(_msgSender() == owner);\r\n        _;\r\n    }\r\n\r\n    // Define a modifer that verifies the Caller\r\n    modifier verifyCaller(address _address) {\r\n        require(_msgSender() == _address);\r\n        _;\r\n    }\r\n\r\n    // Define a modifier that checks if the paid amount is sufficient to cover the price\r\n    modifier paidEnough(uint256 _price) {\r\n        require(msg.value >= _price);\r\n        _;\r\n    }\r\n\r\n    // Define a modifier that checks the price and refunds the remaining balance\r\n    modifier checkValue(uint256 _productCode, address payable addressToFund) {\r\n        uint256 _price = items[_productCode].productPrice;\r\n        uint256 amountToReturn = msg.value - _price;\r\n        addressToFund.transfer(amountToReturn);\r\n        _;\r\n    }\r\n\r\n    //Item State Modifiers\r\n    modifier producedByFarmer(uint256 _productCode) {\r\n        require(items[_productCode].itemState == State.ProduceByFarmer);\r\n        _;\r\n    }\r\n\r\n    modifier forSaleByFarmer(uint256 _productCode) {\r\n        require(items[_productCode].itemState == State.ForSaleByFarmer);\r\n        _;\r\n    }\r\n\r\n    modifier purchasedByDistributor(uint256 _productCode) {\r\n        require(items[_productCode].itemState == State.PurchasedByDistributor);\r\n        _;\r\n    }\r\n\r\n    modifier shippedByFarmer(uint256 _productCode) {\r\n        require(items[_productCode].itemState == State.ShippedByFarmer);\r\n        _;\r\n    }\r\n\r\n    modifier receivedByDistributor(uint256 _productCode) {\r\n        require(items[_productCode].itemState == State.ReceivedByDistributor);\r\n        _;\r\n    }\r\n\r\n    modifier processByDistributor(uint256 _productCode) {\r\n        require(items[_productCode].itemState == State.ProcessedByDistributor);\r\n        _;\r\n    }\r\n\r\n    modifier packagedByDistributor(uint256 _productCode) {\r\n        require(items[_productCode].itemState == State.PackageByDistributor);\r\n        _;\r\n    }\r\n\r\n    modifier forSaleByDistributor(uint256 _productCode) {\r\n        require(items[_productCode].itemState == State.ForSaleByDistributor);\r\n        _;\r\n    }\r\n\r\n    modifier shippedByDistributor(uint256 _productCode) {\r\n        require(items[_productCode].itemState == State.ShippedByDistributor);\r\n        _;\r\n    }\r\n\r\n    modifier purchasedByRetailer(uint256 _productCode) {\r\n        require(items[_productCode].itemState == State.PurchasedByRetailer);\r\n        _;\r\n    }\r\n\r\n    modifier receivedByRetailer(uint256 _productCode) {\r\n        require(items[_productCode].itemState == State.ReceivedByRetailer);\r\n        _;\r\n    }\r\n\r\n    modifier forSaleByRetailer(uint256 _productCode) {\r\n        require(items[_productCode].itemState == State.ForSaleByRetailer);\r\n        _;\r\n    }\r\n\r\n    // modifier purchasedByConsumer(uint256 _productCode) {\r\n    //     require(items[_productCode].itemState == State.PurchasedByConsumer);\r\n    //     _;\r\n    // }\r\n\r\n    // constructor setup owner stockUnit productCode\r\n    constructor() public payable {\r\n        owner = _msgSender();\r\n        stockUnit = 1;\r\n        productCode = 1;\r\n    }\r\n\r\n    // Define a function 'kill'\r\n    function kill() public {\r\n        if (_msgSender() == owner) {\r\n            address payable ownerAddressPayable = _make_payable(owner);\r\n            selfdestruct(ownerAddressPayable);\r\n        }\r\n    }\r\n\r\n    // allows you to convert an address into a payable address\r\n    function _make_payable(address x) internal pure returns (address payable) {\r\n        return payable(address(uint160(x)));\r\n    }\r\n\r\n    /*\r\n 1st step in supplychain\r\n Allows farmer to create product\r\n*/\r\n    function produceItemByFarmer(\r\n        uint256 _productCode,\r\n        string memory _farmName,\r\n        string memory _farmInformation,\r\n        string memory _farmLatitude,\r\n        string memory _farmLongitude,\r\n        string memory _productNotes,\r\n        uint256 _price\r\n    )\r\n        public\r\n        onlyFarmer // check address belongs to farmerRole\r\n    {\r\n        address distributorID; // Empty distributorID address\r\n        address retailerID; // Empty retailerID address\r\n        address consumerID; // Empty consumerID address\r\n        Item memory newProduce; // Create a new struct Item in memory\r\n        newProduce.stockUnit = stockUnit; // Stock Keeping Unit (stockUnit)\r\n        newProduce.productCode = _productCode; // Universal Product Code (productCode), generated by the Farmer, goes on the package, can be verified by the Consumer\r\n        newProduce.ownerID = _msgSender(); // Metamask-Ethereum address of the current owner as the product moves through 8 stages\r\n        newProduce.farmerID = _msgSender(); // Metamask-Ethereum address of the Farmer\r\n        newProduce.farmName = _farmName; // Farmer Name\r\n        newProduce.farmInformation = _farmInformation; // Farmer Information\r\n        newProduce.farmLatitude = _farmLatitude; // Farm Latitude\r\n        newProduce.farmLongitude = _farmLongitude; // Farm Longitude\r\n        newProduce.productID = _productCode + stockUnit; // Product ID\r\n        newProduce.productNotes = _productNotes; // Product Notes\r\n        newProduce.productPrice = _price; // Product Price\r\n        newProduce.productDate = block.timestamp;\r\n        newProduce.productSliced = 0;\r\n        newProduce.itemState = defaultState; // Product State as represented in the enum above\r\n        newProduce.distributorID = distributorID; // Metamask-Ethereum address of the Distributor\r\n        newProduce.retailerID = retailerID; // Metamask-Ethereum address of the Retailer\r\n        newProduce.consumerID = consumerID; // Metamask-Ethereum address of the Consumer // ADDED payable\r\n        items[_productCode] = newProduce; // Add newProduce to items struct by productCode\r\n        uint256 placeholder; // Block number place holder\r\n        Txblocks memory txBlock; // create new txBlock struct\r\n        txBlock.FTD = placeholder; // assign placeholder values\r\n        txBlock.DTR = placeholder;\r\n        txBlock.RTC = placeholder;\r\n        itemsHistory[_productCode] = txBlock; // add txBlock to itemsHistory mapping by productCode\r\n\r\n        // Increment stockUnit\r\n        stockUnit = stockUnit + 1;\r\n\r\n        // Emit the appropriate event\r\n        emit ProduceByFarmer(_productCode);\r\n    }\r\n\r\n    /*\r\n2nd step in supplychain\r\nAllows farmer to sell product\r\n*/\r\n    function sellItemByFarmer(uint256 _productCode, uint256 _price)\r\n        public\r\n        onlyFarmer // check _msgSender() belongs to farmerRole\r\n        producedByFarmer(_productCode) // check items state has been produced\r\n        verifyCaller(items[_productCode].ownerID) // check _msgSender() is owner\r\n    {\r\n        items[_productCode].itemState = State.ForSaleByFarmer;\r\n        items[_productCode].productPrice = _price;\r\n        emit ForSaleByFarmer(_productCode);\r\n    }\r\n\r\n    /*\r\n3rd step in supplychain\r\nAllows distributor to purchase product\r\n*/\r\n    function purchaseItemByDistributor(uint256 _productCode)\r\n        public\r\n        payable\r\n        onlyDistributor // check _msgSender() belongs to distributorRole\r\n        forSaleByFarmer(_productCode) // check items state is for ForSaleByFarmer\r\n        paidEnough(items[_productCode].productPrice) // check if distributor sent enough Ether for product\r\n        checkValue(_productCode, payable(_msgSender())) // check if overpayed return remaing funds back to _msgSender()\r\n    {\r\n        address payable ownerAddressPayable = _make_payable(\r\n            items[_productCode].farmerID\r\n        ); // make originFarmID payable\r\n        ownerAddressPayable.transfer(items[_productCode].productPrice); // transfer funds from distributor to farmer\r\n        items[_productCode].ownerID = _msgSender(); // update owner\r\n        items[_productCode].distributorID = _msgSender(); // update distributor\r\n        items[_productCode].itemState = State.PurchasedByDistributor; // update state\r\n        itemsHistory[_productCode].FTD = block.number; // add block number\r\n        emit PurchasedByDistributor(_productCode);\r\n    }\r\n\r\n    /*\r\n  4th step in supplychain\r\n  Allows farmer to ship product purchased by distributor\r\n  */\r\n    function shippedItemByFarmer(uint256 _productCode)\r\n        public\r\n        payable\r\n        onlyFarmer // check _msgSender() belongs to FarmerRole\r\n        purchasedByDistributor(_productCode)\r\n        verifyCaller(items[_productCode].farmerID) // check _msgSender() is originFarmID\r\n    {\r\n        items[_productCode].itemState = State.ShippedByFarmer; // update state\r\n        emit ShippedByFarmer(_productCode);\r\n    }\r\n\r\n    /*\r\n  5th step in supplychain\r\n  Allows distributor to receive product\r\n  */\r\n    function receivedItemByDistributor(uint256 _productCode)\r\n        public\r\n        onlyDistributor // check _msgSender() belongs to DistributorRole\r\n        shippedByFarmer(_productCode)\r\n        verifyCaller(items[_productCode].ownerID) // check _msgSender() is owner\r\n    {\r\n        items[_productCode].itemState = State.ReceivedByDistributor; // update state\r\n        emit ReceivedByDistributor(_productCode);\r\n    }\r\n\r\n    /*\r\n  6th step in supplychain\r\n  Allows distributor to process product\r\n  */\r\n    function processedItemByDistributor(uint256 _productCode, uint256 slices)\r\n        public\r\n        onlyDistributor // check _msgSender() belongs to DistributorRole\r\n        receivedByDistributor(_productCode)\r\n        verifyCaller(items[_productCode].ownerID) // check _msgSender() is owner\r\n    {\r\n        items[_productCode].itemState = State.ProcessedByDistributor; // update state\r\n        items[_productCode].productSliced = slices; // add slice amount\r\n        emit ProcessedByDistributor(_productCode);\r\n    }\r\n\r\n    /*\r\n  7th step in supplychain\r\n  Allows distributor to package product\r\n  */\r\n    function packageItemByDistributor(uint256 _productCode)\r\n        public\r\n        onlyDistributor // check _msgSender() belongs to DistributorRole\r\n        processByDistributor(_productCode)\r\n        verifyCaller(items[_productCode].ownerID) // check _msgSender() is owner\r\n    {\r\n        items[_productCode].itemState = State.PackageByDistributor;\r\n        emit PackagedByDistributor(_productCode);\r\n    }\r\n\r\n    /*\r\n  8th step in supplychain\r\n  Allows distributor to sell product\r\n  */\r\n    function sellItemByDistributor(uint256 _productCode, uint256 _price)\r\n        public\r\n        onlyDistributor // check _msgSender() belongs to DistributorRole\r\n        packagedByDistributor(_productCode)\r\n        verifyCaller(items[_productCode].ownerID) // check _msgSender() is owner\r\n    {\r\n        items[_productCode].itemState = State.ForSaleByDistributor;\r\n        items[_productCode].productPrice = _price;\r\n        emit ForSaleByDistributor(productCode);\r\n    }\r\n\r\n    /*\r\n  9th step in supplychain\r\n  Allows retailer to purchase product\r\n  */\r\n    function purchaseItemByRetailer(uint256 _productCode)\r\n        public\r\n        payable\r\n        onlyRetailer // check _msgSender() belongs to RetailerRole\r\n        forSaleByDistributor(_productCode)\r\n        paidEnough(items[_productCode].productPrice)\r\n        checkValue(_productCode, payable(_msgSender()))\r\n    {\r\n        address payable ownerAddressPayable = _make_payable(\r\n            items[_productCode].distributorID\r\n        );\r\n        ownerAddressPayable.transfer(items[_productCode].productPrice);\r\n        items[_productCode].ownerID = _msgSender();\r\n        items[_productCode].retailerID = _msgSender();\r\n        items[_productCode].itemState = State.PurchasedByRetailer;\r\n        itemsHistory[_productCode].DTR = block.number;\r\n        emit PurchasedByRetailer(_productCode);\r\n    }\r\n\r\n    /*\r\n  10th step in supplychain\r\n  Allows Distributor to\r\n  */\r\n    function shippedItemByDistributor(uint256 _productCode)\r\n        public\r\n        onlyDistributor // check _msgSender() belongs to DistributorRole\r\n        purchasedByRetailer(_productCode)\r\n        verifyCaller(items[_productCode].distributorID) // check _msgSender() is distributorID\r\n    {\r\n        items[_productCode].itemState = State.ShippedByDistributor;\r\n        emit ShippedByDistributor(_productCode);\r\n    }\r\n\r\n    /*\r\n  11th step in supplychain\r\n  */\r\n    function receivedItemByRetailer(uint256 _productCode)\r\n        public\r\n        onlyRetailer // check _msgSender() belongs to RetailerRole\r\n        shippedByDistributor(_productCode)\r\n        verifyCaller(items[_productCode].ownerID) // check _msgSender() is ownerID\r\n    {\r\n        items[_productCode].itemState = State.ReceivedByRetailer;\r\n        emit ReceivedByRetailer(_productCode);\r\n    }\r\n\r\n    /*\r\n  12th step in supplychain\r\n  */\r\n    function sellItemByRetailer(uint256 _productCode, uint256 _price)\r\n        public\r\n        onlyRetailer // check _msgSender() belongs to RetailerRole\r\n        receivedByRetailer(_productCode)\r\n        verifyCaller(items[_productCode].ownerID) // check _msgSender() is ownerID\r\n    {\r\n        items[_productCode].itemState = State.ForSaleByRetailer;\r\n        items[_productCode].productPrice = _price;\r\n        emit ForSaleByRetailer(_productCode);\r\n    }\r\n\r\n    /*\r\n  13th step in supplychain\r\n  */\r\n    // function purchaseItemByConsumer(uint256 _productCode)\r\n    //     public\r\n    //     payable\r\n    //     onlyConsumer // check _msgSender() belongs to ConsumerRole\r\n    //     forSaleByRetailer(_productCode)\r\n    //     paidEnough(items[_productCode].productPrice)\r\n    //     checkValue(_productCode, payable(_msgSender()))\r\n    // {\r\n    //     items[_productCode].consumerID = _msgSender();\r\n    //     address payable ownerAddressPayable = _make_payable(\r\n    //         items[_productCode].retailerID\r\n    //     );\r\n    //     ownerAddressPayable.transfer(items[_productCode].productPrice);\r\n    //     items[_productCode].ownerID = _msgSender();\r\n    //     items[_productCode].consumerID = _msgSender();\r\n    //     items[_productCode].itemState = State.PurchasedByConsumer;\r\n    //     itemsHistory[_productCode].RTC = block.number;\r\n    //     emit PurchasedByConsumer(_productCode);\r\n    // }\r\n\r\n    // Define a function 'fetchItemBufferOne' that fetches the data\r\n    function fetchItemBufferOne(uint256 _productCode)\r\n        public\r\n        view\r\n        returns (\r\n            uint256 itemstockUnit,\r\n            uint256 itemproductCode,\r\n            address ownerID,\r\n            address farmerID,\r\n            string memory farmName,\r\n            string memory farmInformation,\r\n            string memory farmLatitude,\r\n            string memory farmLongitude,\r\n            uint256 productDate,\r\n            uint256 productSliced\r\n        )\r\n    {\r\n        // Assign values to the 8 parameters\r\n        Item memory item = items[_productCode];\r\n\r\n        return (\r\n            item.stockUnit,\r\n            item.productCode,\r\n            item.ownerID,\r\n            item.farmerID,\r\n            item.farmName,\r\n            item.farmInformation,\r\n            item.farmLatitude,\r\n            item.farmLongitude,\r\n            item.productDate,\r\n            item.productSliced\r\n        );\r\n    }\r\n\r\n    // Define a function 'fetchItemBufferTwo' that fetches the data\r\n    function fetchItemBufferTwo(uint256 _productCode)\r\n        public\r\n        view\r\n        returns (\r\n            uint256 itemstockUnit,\r\n            uint256 itemproductCode,\r\n            uint256 productID,\r\n            string memory productNotes,\r\n            uint256 productPrice,\r\n            uint256 productDate,\r\n            State itemState,\r\n            address distributorID,\r\n            address retailerID,\r\n            address consumerID\r\n        )\r\n    {\r\n        // Assign values to the 9 parameters\r\n        Item memory item = items[_productCode];\r\n\r\n        return (\r\n            item.stockUnit,\r\n            item.productCode,\r\n            item.productID,\r\n            item.productNotes,\r\n            item.productPrice,\r\n            item.productDate,\r\n            item.itemState,\r\n            item.distributorID,\r\n            item.retailerID,\r\n            item.consumerID\r\n        );\r\n    }\r\n\r\n    // Define a function 'fetchItemHistory' that fetaches the data\r\n    function fetchitemHistory(uint256 _productCode)\r\n        public\r\n        view\r\n        returns (\r\n            uint256 blockfarmerToDistributor,\r\n            uint256 blockDistributorToRetailer,\r\n            uint256 blockRetailerToConsumer\r\n        )\r\n    {\r\n        // Assign value to the parameters\r\n        Txblocks memory txblock = itemsHistory[_productCode];\r\n        return (txblock.FTD, txblock.DTR, txblock.RTC);\r\n    }\r\n}",
  "sourcePath": "D:\\Code\\Blockchain\\Final-year-project\\contracts\\SupplyChain.sol",
  "compiler": {
    "name": "solc",
    "version": "0.8.17+commit.8df45f5f.Emscripten.clang"
  },
  "schemaVersion": "3.4.10",
  "updatedAt": "2023-04-01T05:51:49.292Z",
  "devdoc": {
    "kind": "dev",
    "methods": {},
    "version": 1
  },
  "userdoc": {
    "kind": "user",
    "methods": {
      "ownerLookup()": {
        "notice": "Look up the address of the owner"
      },
      "renounceOwnership()": {
        "notice": "Define a function to renounce ownerhip"
      },
      "transferOwnership(address)": {
        "notice": "Define a public function to transfer ownership"
      }
    },
    "version": 1
  }
}